{
  "_format": "hh3-artifact-1",
  "contractName": "EventLogger",
  "sourceName": "contracts/EventLogger.sol",
  "abi": [
    {
      "inputs": [],
      "stateMutability": "nonpayable",
      "type": "constructor"
    },
    {
      "inputs": [
        {
          "internalType": "address",
          "name": "target",
          "type": "address"
        }
      ],
      "name": "AddressEmptyCode",
      "type": "error"
    },
    {
      "inputs": [
        {
          "internalType": "address",
          "name": "implementation",
          "type": "address"
        }
      ],
      "name": "ERC1967InvalidImplementation",
      "type": "error"
    },
    {
      "inputs": [],
      "name": "ERC1967NonPayable",
      "type": "error"
    },
    {
      "inputs": [],
      "name": "FailedCall",
      "type": "error"
    },
    {
      "inputs": [],
      "name": "InvalidInitialization",
      "type": "error"
    },
    {
      "inputs": [],
      "name": "NotInitializing",
      "type": "error"
    },
    {
      "inputs": [
        {
          "internalType": "address",
          "name": "owner",
          "type": "address"
        }
      ],
      "name": "OwnableInvalidOwner",
      "type": "error"
    },
    {
      "inputs": [
        {
          "internalType": "address",
          "name": "account",
          "type": "address"
        }
      ],
      "name": "OwnableUnauthorizedAccount",
      "type": "error"
    },
    {
      "inputs": [],
      "name": "UUPSUnauthorizedCallContext",
      "type": "error"
    },
    {
      "inputs": [
        {
          "internalType": "bytes32",
          "name": "slot",
          "type": "bytes32"
        }
      ],
      "name": "UUPSUnsupportedProxiableUUID",
      "type": "error"
    },
    {
      "inputs": [
        {
          "internalType": "address",
          "name": "caller",
          "type": "address"
        }
      ],
      "name": "UnauthorizedSource",
      "type": "error"
    },
    {
      "inputs": [],
      "name": "ZeroAddress",
      "type": "error"
    },
    {
      "anonymous": false,
      "inputs": [
        {
          "indexed": true,
          "internalType": "uint256",
          "name": "entryId",
          "type": "uint256"
        },
        {
          "indexed": true,
          "internalType": "address",
          "name": "user",
          "type": "address"
        },
        {
          "indexed": true,
          "internalType": "enum EventLogger.ActionType",
          "name": "action",
          "type": "uint8"
        },
        {
          "indexed": false,
          "internalType": "uint256",
          "name": "amount",
          "type": "uint256"
        },
        {
          "indexed": false,
          "internalType": "uint256",
          "name": "price",
          "type": "uint256"
        },
        {
          "indexed": false,
          "internalType": "address",
          "name": "source",
          "type": "address"
        },
        {
          "indexed": false,
          "internalType": "uint256",
          "name": "timestamp",
          "type": "uint256"
        }
      ],
      "name": "ActionLogged",
      "type": "event"
    },
    {
      "anonymous": false,
      "inputs": [
        {
          "indexed": false,
          "internalType": "uint64",
          "name": "version",
          "type": "uint64"
        }
      ],
      "name": "Initialized",
      "type": "event"
    },
    {
      "anonymous": false,
      "inputs": [
        {
          "indexed": true,
          "internalType": "address",
          "name": "previousOwner",
          "type": "address"
        },
        {
          "indexed": true,
          "internalType": "address",
          "name": "newOwner",
          "type": "address"
        }
      ],
      "name": "OwnershipTransferred",
      "type": "event"
    },
    {
      "anonymous": false,
      "inputs": [
        {
          "indexed": true,
          "internalType": "address",
          "name": "source",
          "type": "address"
        }
      ],
      "name": "SourceAuthorized",
      "type": "event"
    },
    {
      "anonymous": false,
      "inputs": [
        {
          "indexed": true,
          "internalType": "address",
          "name": "source",
          "type": "address"
        }
      ],
      "name": "SourceRevoked",
      "type": "event"
    },
    {
      "anonymous": false,
      "inputs": [
        {
          "indexed": true,
          "internalType": "address",
          "name": "implementation",
          "type": "address"
        }
      ],
      "name": "Upgraded",
      "type": "event"
    },
    {
      "inputs": [],
      "name": "UPGRADE_INTERFACE_VERSION",
      "outputs": [
        {
          "internalType": "string",
          "name": "",
          "type": "string"
        }
      ],
      "stateMutability": "view",
      "type": "function"
    },
    {
      "inputs": [
        {
          "internalType": "address",
          "name": "source",
          "type": "address"
        }
      ],
      "name": "authorizeSource",
      "outputs": [],
      "stateMutability": "nonpayable",
      "type": "function"
    },
    {
      "inputs": [
        {
          "internalType": "address",
          "name": "",
          "type": "address"
        }
      ],
      "name": "authorizedSources",
      "outputs": [
        {
          "internalType": "bool",
          "name": "",
          "type": "bool"
        }
      ],
      "stateMutability": "view",
      "type": "function"
    },
    {
      "inputs": [
        {
          "internalType": "uint256",
          "name": "entryId",
          "type": "uint256"
        }
      ],
      "name": "getEntry",
      "outputs": [
        {
          "components": [
            {
              "internalType": "uint256",
              "name": "timestamp",
              "type": "uint256"
            },
            {
              "internalType": "address",
              "name": "user",
              "type": "address"
            },
            {
              "internalType": "enum EventLogger.ActionType",
              "name": "action",
              "type": "uint8"
            },
            {
              "internalType": "uint256",
              "name": "amount",
              "type": "uint256"
            },
            {
              "internalType": "uint256",
              "name": "price",
              "type": "uint256"
            },
            {
              "internalType": "address",
              "name": "source",
              "type": "address"
            }
          ],
          "internalType": "struct EventLogger.LogEntry",
          "name": "",
          "type": "tuple"
        }
      ],
      "stateMutability": "view",
      "type": "function"
    },
    {
      "inputs": [
        {
          "internalType": "uint256",
          "name": "count",
          "type": "uint256"
        }
      ],
      "name": "getRecentEntries",
      "outputs": [
        {
          "components": [
            {
              "internalType": "uint256",
              "name": "timestamp",
              "type": "uint256"
            },
            {
              "internalType": "address",
              "name": "user",
              "type": "address"
            },
            {
              "internalType": "enum EventLogger.ActionType",
              "name": "action",
              "type": "uint8"
            },
            {
              "internalType": "uint256",
              "name": "amount",
              "type": "uint256"
            },
            {
              "internalType": "uint256",
              "name": "price",
              "type": "uint256"
            },
            {
              "internalType": "address",
              "name": "source",
              "type": "address"
            }
          ],
          "internalType": "struct EventLogger.LogEntry[]",
          "name": "",
          "type": "tuple[]"
        }
      ],
      "stateMutability": "view",
      "type": "function"
    },
    {
      "inputs": [
        {
          "internalType": "address",
          "name": "user",
          "type": "address"
        },
        {
          "internalType": "uint256",
          "name": "offset",
          "type": "uint256"
        },
        {
          "internalType": "uint256",
          "name": "limit",
          "type": "uint256"
        }
      ],
      "name": "getUserEntries",
      "outputs": [
        {
          "components": [
            {
              "internalType": "uint256",
              "name": "timestamp",
              "type": "uint256"
            },
            {
              "internalType": "address",
              "name": "user",
              "type": "address"
            },
            {
              "internalType": "enum EventLogger.ActionType",
              "name": "action",
              "type": "uint8"
            },
            {
              "internalType": "uint256",
              "name": "amount",
              "type": "uint256"
            },
            {
              "internalType": "uint256",
              "name": "price",
              "type": "uint256"
            },
            {
              "internalType": "address",
              "name": "source",
              "type": "address"
            }
          ],
          "internalType": "struct EventLogger.LogEntry[]",
          "name": "",
          "type": "tuple[]"
        }
      ],
      "stateMutability": "view",
      "type": "function"
    },
    {
      "inputs": [
        {
          "internalType": "address",
          "name": "user",
          "type": "address"
        }
      ],
      "name": "getUserEntryCount",
      "outputs": [
        {
          "internalType": "uint256",
          "name": "",
          "type": "uint256"
        }
      ],
      "stateMutability": "view",
      "type": "function"
    },
    {
      "inputs": [
        {
          "internalType": "address",
          "name": "user",
          "type": "address"
        }
      ],
      "name": "getUserEntryIds",
      "outputs": [
        {
          "internalType": "uint256[]",
          "name": "",
          "type": "uint256[]"
        }
      ],
      "stateMutability": "view",
      "type": "function"
    },
    {
      "inputs": [
        {
          "internalType": "address",
          "name": "initialOwner",
          "type": "address"
        }
      ],
      "name": "initialize",
      "outputs": [],
      "stateMutability": "nonpayable",
      "type": "function"
    },
    {
      "inputs": [
        {
          "internalType": "address",
          "name": "user",
          "type": "address"
        },
        {
          "internalType": "enum EventLogger.ActionType",
          "name": "action",
          "type": "uint8"
        },
        {
          "internalType": "uint256",
          "name": "amount",
          "type": "uint256"
        },
        {
          "internalType": "uint256",
          "name": "price",
          "type": "uint256"
        }
      ],
      "name": "log",
      "outputs": [],
      "stateMutability": "nonpayable",
      "type": "function"
    },
    {
      "inputs": [],
      "name": "owner",
      "outputs": [
        {
          "internalType": "address",
          "name": "",
          "type": "address"
        }
      ],
      "stateMutability": "view",
      "type": "function"
    },
    {
      "inputs": [],
      "name": "proxiableUUID",
      "outputs": [
        {
          "internalType": "bytes32",
          "name": "",
          "type": "bytes32"
        }
      ],
      "stateMutability": "view",
      "type": "function"
    },
    {
      "inputs": [],
      "name": "renounceOwnership",
      "outputs": [],
      "stateMutability": "nonpayable",
      "type": "function"
    },
    {
      "inputs": [
        {
          "internalType": "address",
          "name": "source",
          "type": "address"
        }
      ],
      "name": "revokeSource",
      "outputs": [],
      "stateMutability": "nonpayable",
      "type": "function"
    },
    {
      "inputs": [],
      "name": "totalEntries",
      "outputs": [
        {
          "internalType": "uint256",
          "name": "",
          "type": "uint256"
        }
      ],
      "stateMutability": "view",
      "type": "function"
    },
    {
      "inputs": [
        {
          "internalType": "address",
          "name": "newOwner",
          "type": "address"
        }
      ],
      "name": "transferOwnership",
      "outputs": [],
      "stateMutability": "nonpayable",
      "type": "function"
    },
    {
      "inputs": [
        {
          "internalType": "address",
          "name": "newImplementation",
          "type": "address"
        },
        {
          "internalType": "bytes",
          "name": "data",
          "type": "bytes"
        }
      ],
      "name": "upgradeToAndCall",
      "outputs": [],
      "stateMutability": "payable",
      "type": "function"
    }
  ],
  "bytecode": "0x60a060405230608052348015610013575f5ffd5b5061001c610021565b6100d3565b7ff0c57e16840df040f15088dc2f81fe391c3923bec73e23a9662efc9c229c6a00805468010000000000000000900460ff16156100715760405163f92ee8a960e01b815260040160405180910390fd5b80546001600160401b03908116146100d05780546001600160401b0319166001600160401b0390811782556040519081527fc7f505b2f371ae2175ee4913f4499e1f2633a7b5936321eed1cdaeb6115181d29060200160405180910390a15b50565b6080516114bb6100f95f395f8181610c4901528181610c720152610db601526114bb5ff3fe6080604052600436106100fa575f3560e01c8063acbb262511610092578063c2b0ad4b11610062578063c2b0ad4b146102ed578063c4d66de81461030c578063dcd6fcaf1461032b578063f2049d591461034a578063f2fde38b14610376575f5ffd5b8063acbb262514610231578063ad3cb1cc14610250578063b2a8116a1461028d578063bae78d7b146102c1575f5ffd5b80638a79243d116100cd5780638a79243d146101625780638da5cb5b1461018157806393722045146101c7578063964ebf42146101f3575f5ffd5b80634f1ef286146100fe57806352d1902d14610113578063715018a61461013a5780637fef036e1461014e575b5f5ffd5b61011161010c366004611158565b610395565b005b34801561011e575f5ffd5b506101276103b4565b6040519081526020015b60405180910390f35b348015610145575f5ffd5b506101116103cf565b348015610159575f5ffd5b50600154610127565b34801561016d575f5ffd5b5061011161017c36600461121c565b6103e2565b34801561018c575f5ffd5b507f9016d09d72d40fdae2fd8ceac6b6234c7706214fd39c1cd1e609a0528c199300546040516001600160a01b039091168152602001610131565b3480156101d2575f5ffd5b506101e66101e1366004611260565b6105a7565b6040516101319190611309565b3480156101fe575f5ffd5b5061022161020d366004611356565b5f6020819052908152604090205460ff1681565b6040519015158152602001610131565b34801561023c575f5ffd5b5061011161024b366004611356565b610796565b34801561025b575f5ffd5b50610280604051806040016040528060058152602001640352e302e360dc1b81525081565b604051610131919061136f565b348015610298575f5ffd5b506101276102a7366004611356565b6001600160a01b03165f9081526002602052604090205490565b3480156102cc575f5ffd5b506102e06102db3660046113a4565b610810565b60405161013191906113bb565b3480156102f8575f5ffd5b506101e66103073660046113a4565b6108c5565b348015610317575f5ffd5b50610111610326366004611356565b610a28565b348015610336575f5ffd5b50610111610345366004611356565b610b48565b348015610355575f5ffd5b50610369610364366004611356565b610b98565b60405161013191906113c9565b348015610381575f5ffd5b50610111610390366004611356565b610c01565b61039d610c3e565b6103a682610ce2565b6103b08282610cea565b5050565b5f6103bd610dab565b505f5160206114665f395f51905f5290565b6103d7610df4565b6103e05f610e4f565b565b335f9081526020819052604090205460ff166104185760405163162881ad60e21b81523360048201526024015b60405180910390fd5b600180546040805160c0810182524281526001600160a01b038816602082015291929190810186600781111561045057610450611290565b815260208082018790526040808301879052336060909301929092528354600181810186555f9586529482902084516005909202019081559083015193810180546001600160a01b03959095166001600160a01b031986168117825592840151939491939290916001600160a81b03191617600160a01b8360078111156104d9576104d9611290565b021790555060608201516002828101919091556080830151600383015560a090920151600490910180546001600160a01b0319166001600160a01b0392831617905586165f90815260209182526040812080546001810182559082529190200181905583600781111561054e5761054e611290565b6040805185815260208101859052338183015242606082015290516001600160a01b0388169184917fc4ec1fe36189727f30587b317cbf5ac956ae425fd0ce9d60dcbbeafe21be4a519181900360800190a45050505050565b6001600160a01b0383165f90815260026020526040902080546060919080851061060557604080515f80825260208201909252906105fb565b6105e86110ee565b8152602001906001900390816105e05790505b509250505061078f565b5f816106118688611414565b11610625576106208587611414565b610627565b815b90505f6106348783611427565b90505f8167ffffffffffffffff81111561065057610650611144565b60405190808252806020026020018201604052801561068957816020015b6106766110ee565b81526020019060019003908161066e5790505b5090505f5b82811015610787576001866106a3838c611414565b815481106106b3576106b361143a565b905f5260205f200154815481106106cc576106cc61143a565b5f9182526020918290206040805160c08101825260059093029091018054835260018101546001600160a01b0381169484019490945291929083019060ff600160a01b90910416600781111561072457610724611290565b600781111561073557610735611290565b815260028201546020820152600382015460408201526004909101546001600160a01b031660609091015282518390839081106107745761077461143a565b602090810291909101015260010161068e565b509450505050505b9392505050565b61079e610df4565b6001600160a01b0381166107c55760405163d92e233d60e01b815260040160405180910390fd5b6001600160a01b0381165f81815260208190526040808220805460ff19166001179055517f4259866215295669a8aa580379fdb1207113bfbe3fd2e1915e992bdba65acc079190a250565b6108186110ee565b6001828154811061082b5761082b61143a565b5f9182526020918290206040805160c08101825260059093029091018054835260018101546001600160a01b0381169484019490945291929083019060ff600160a01b90910416600781111561088357610883611290565b600781111561089457610894611290565b815260028201546020820152600382015460408201526004909101546001600160a01b031660609091015292915050565b6001546060905f8184116108d957836108db565b815b90505f8167ffffffffffffffff8111156108f7576108f7611144565b60405190808252806020026020018201604052801561093057816020015b61091d6110ee565b8152602001906001900390816109155790505b5090505f5b82811015610a1f5760018161094a8587611427565b6109549190611414565b815481106109645761096461143a565b5f9182526020918290206040805160c08101825260059093029091018054835260018101546001600160a01b0381169484019490945291929083019060ff600160a01b9091041660078111156109bc576109bc611290565b60078111156109cd576109cd611290565b815260028201546020820152600382015460408201526004909101546001600160a01b03166060909101528251839083908110610a0c57610a0c61143a565b6020908102919091010152600101610935565b50949350505050565b5f610a31610ebf565b805490915060ff600160401b820416159067ffffffffffffffff165f81158015610a585750825b90505f8267ffffffffffffffff166001148015610a745750303b155b905081158015610a82575080155b15610aa05760405163f92ee8a960e01b815260040160405180910390fd5b845467ffffffffffffffff191660011785558315610aca57845460ff60401b1916600160401b1785555b6001600160a01b038616610af15760405163d92e233d60e01b815260040160405180910390fd5b610afa86610ee9565b8315610b4057845460ff60401b19168555604051600181527fc7f505b2f371ae2175ee4913f4499e1f2633a7b5936321eed1cdaeb6115181d29060200160405180910390a15b505050505050565b610b50610df4565b6001600160a01b0381165f81815260208190526040808220805460ff19169055517ffe99fcb294979665c2561e12bf52a9b17f0412fdafecd42b4642a8582637322a9190a250565b6001600160a01b0381165f90815260026020908152604091829020805483518184028101840190945280845260609392830182828015610bf557602002820191905f5260205f20905b815481526020019060010190808311610be1575b50505050509050919050565b610c09610df4565b6001600160a01b038116610c3257604051631e4fbdf760e01b81525f600482015260240161040f565b610c3b81610e4f565b50565b306001600160a01b037f0000000000000000000000000000000000000000000000000000000000000000161480610cc457507f00000000000000000000000000000000000000000000000000000000000000006001600160a01b0316610cb85f5160206114665f395f51905f52546001600160a01b031690565b6001600160a01b031614155b156103e05760405163703e46dd60e11b815260040160405180910390fd5b610c3b610df4565b816001600160a01b03166352d1902d6040518163ffffffff1660e01b8152600401602060405180830381865afa925050508015610d44575060408051601f3d908101601f19168201909252610d419181019061144e565b60015b610d6c57604051634c9c8ce360e01b81526001600160a01b038316600482015260240161040f565b5f5160206114665f395f51905f528114610d9c57604051632a87526960e21b81526004810182905260240161040f565b610da68383610efa565b505050565b306001600160a01b037f000000000000000000000000000000000000000000000000000000000000000016146103e05760405163703e46dd60e11b815260040160405180910390fd5b33610e267f9016d09d72d40fdae2fd8ceac6b6234c7706214fd39c1cd1e609a0528c199300546001600160a01b031690565b6001600160a01b0316146103e05760405163118cdaa760e01b815233600482015260240161040f565b7f9016d09d72d40fdae2fd8ceac6b6234c7706214fd39c1cd1e609a0528c19930080546001600160a01b031981166001600160a01b03848116918217845560405192169182907f8be0079c531659141344cd1fd0a4f28419497f9722a3daafe3b4186f6b6457e0905f90a3505050565b5f807ff0c57e16840df040f15088dc2f81fe391c3923bec73e23a9662efc9c229c6a005b92915050565b610ef1610f4f565b610c3b81610f74565b610f0382610f7c565b6040516001600160a01b038316907fbc7cd75a20ee27fd9adebab32041f755214dbc6bffa90cc0225b39da2e5c2d3b905f90a2805115610f4757610da68282610fdf565b6103b061107f565b610f5761109e565b6103e057604051631afcd79f60e31b815260040160405180910390fd5b610c09610f4f565b806001600160a01b03163b5f03610fb157604051634c9c8ce360e01b81526001600160a01b038216600482015260240161040f565b5f5160206114665f395f51905f5280546001600160a01b0319166001600160a01b0392909216919091179055565b60605f610fec84846110b7565b905080801561100d57505f3d118061100d57505f846001600160a01b03163b115b156110225761101a6110ca565b915050610ee3565b801561104c57604051639996b31560e01b81526001600160a01b038516600482015260240161040f565b3d1561105f5761105a6110e3565b611078565b60405163d6bda27560e01b815260040160405180910390fd5b5092915050565b34156103e05760405163b398979f60e01b815260040160405180910390fd5b5f6110a7610ebf565b54600160401b900460ff16919050565b5f5f5f835160208501865af49392505050565b6040513d81523d5f602083013e3d602001810160405290565b6040513d5f823e3d81fd5b6040805160c0810182525f80825260208201819052909182019081526020015f81526020015f81526020015f6001600160a01b031681525090565b80356001600160a01b038116811461113f575f5ffd5b919050565b634e487b7160e01b5f52604160045260245ffd5b5f5f60408385031215611169575f5ffd5b61117283611129565b9150602083013567ffffffffffffffff81111561118d575f5ffd5b8301601f8101851361119d575f5ffd5b803567ffffffffffffffff8111156111b7576111b7611144565b604051601f8201601f19908116603f0116810167ffffffffffffffff811182821017156111e6576111e6611144565b6040528181528282016020018710156111fd575f5ffd5b816020840160208301375f602083830101528093505050509250929050565b5f5f5f5f6080858703121561122f575f5ffd5b61123885611129565b935060208501356008811061124b575f5ffd5b93969395505050506040820135916060013590565b5f5f5f60608486031215611272575f5ffd5b61127b84611129565b95602085013595506040909401359392505050565b634e487b7160e01b5f52602160045260245ffd5b805182526020808201516001600160a01b0316908301526040810151600881106112dc57634e487b7160e01b5f52602160045260245ffd5b6040830152606081810151908301526080808201519083015260a0908101516001600160a01b0316910152565b602080825282518282018190525f918401906040840190835b8181101561134b576113358385516112a4565b6020939093019260c09290920191600101611322565b509095945050505050565b5f60208284031215611366575f5ffd5b61078f82611129565b602081525f82518060208401528060208501604085015e5f604082850101526040601f19601f83011684010191505092915050565b5f602082840312156113b4575f5ffd5b5035919050565b60c08101610ee382846112a4565b602080825282518282018190525f918401906040840190835b8181101561134b5783518352602093840193909201916001016113e2565b634e487b7160e01b5f52601160045260245ffd5b80820180821115610ee357610ee3611400565b81810381811115610ee357610ee3611400565b634e487b7160e01b5f52603260045260245ffd5b5f6020828403121561145e575f5ffd5b505191905056fe360894a13ba1a3210667c828492db98dca3e2076cc3735a920a3ca505d382bbca2646970667358221220d4ed00899b57e4c4abaa599be1c2d9f87d4ac38cd90a58092aa9fa0bf69d63ab64736f6c634300081c0033",
  "linkReferences": {},
  "deployedLinkReferences": {},
  "immutableReferences": {
    "867": [
      {
        "length": 32,
        "start": 3145
      },
      {
        "length": 32,
        "start": 3186
      },
      {
        "length": 32,
        "start": 3510
      }
    ]
  },
  "inputSourceName": "project/contracts/EventLogger.sol",
  "buildInfoId": "solc-0_8_28-db3b3b1b4b3618f7582eb9e46862ae6540cecdc6"
}