{
  "_format": "hh3-artifact-1",
  "contractName": "Exchange",
  "sourceName": "contracts/Exchange.sol",
  "abi": [
    {
      "inputs": [],
      "stateMutability": "nonpayable",
      "type": "constructor"
    },
    {
      "inputs": [
        {
          "internalType": "address",
          "name": "target",
          "type": "address"
        }
      ],
      "name": "AddressEmptyCode",
      "type": "error"
    },
    {
      "inputs": [
        {
          "internalType": "address",
          "name": "implementation",
          "type": "address"
        }
      ],
      "name": "ERC1967InvalidImplementation",
      "type": "error"
    },
    {
      "inputs": [],
      "name": "ERC1967NonPayable",
      "type": "error"
    },
    {
      "inputs": [],
      "name": "EnforcedPause",
      "type": "error"
    },
    {
      "inputs": [],
      "name": "ExpectedPause",
      "type": "error"
    },
    {
      "inputs": [],
      "name": "FailedCall",
      "type": "error"
    },
    {
      "inputs": [
        {
          "internalType": "uint256",
          "name": "requested",
          "type": "uint256"
        },
        {
          "internalType": "uint256",
          "name": "available",
          "type": "uint256"
        }
      ],
      "name": "InsufficientUsdcInTreasury",
      "type": "error"
    },
    {
      "inputs": [],
      "name": "InvalidInitialization",
      "type": "error"
    },
    {
      "inputs": [],
      "name": "InvalidOraclePrice",
      "type": "error"
    },
    {
      "inputs": [],
      "name": "NoPriceAvailable",
      "type": "error"
    },
    {
      "inputs": [],
      "name": "NotInitializing",
      "type": "error"
    },
    {
      "inputs": [
        {
          "internalType": "address",
          "name": "owner",
          "type": "address"
        }
      ],
      "name": "OwnableInvalidOwner",
      "type": "error"
    },
    {
      "inputs": [
        {
          "internalType": "address",
          "name": "account",
          "type": "address"
        }
      ],
      "name": "OwnableUnauthorizedAccount",
      "type": "error"
    },
    {
      "inputs": [
        {
          "internalType": "address",
          "name": "token",
          "type": "address"
        }
      ],
      "name": "SafeERC20FailedOperation",
      "type": "error"
    },
    {
      "inputs": [
        {
          "internalType": "uint256",
          "name": "updatedAt",
          "type": "uint256"
        },
        {
          "internalType": "uint256",
          "name": "maxAge",
          "type": "uint256"
        }
      ],
      "name": "StaleOracleData",
      "type": "error"
    },
    {
      "inputs": [],
      "name": "UUPSUnauthorizedCallContext",
      "type": "error"
    },
    {
      "inputs": [
        {
          "internalType": "bytes32",
          "name": "slot",
          "type": "bytes32"
        }
      ],
      "name": "UUPSUnsupportedProxiableUUID",
      "type": "error"
    },
    {
      "inputs": [],
      "name": "ZeroAddress",
      "type": "error"
    },
    {
      "inputs": [],
      "name": "ZeroAmount",
      "type": "error"
    },
    {
      "anonymous": false,
      "inputs": [
        {
          "indexed": true,
          "internalType": "address",
          "name": "by",
          "type": "address"
        }
      ],
      "name": "ContractsPaused",
      "type": "event"
    },
    {
      "anonymous": false,
      "inputs": [
        {
          "indexed": true,
          "internalType": "address",
          "name": "by",
          "type": "address"
        }
      ],
      "name": "ContractsUnpaused",
      "type": "event"
    },
    {
      "anonymous": false,
      "inputs": [
        {
          "indexed": false,
          "internalType": "uint256",
          "name": "oldPrice",
          "type": "uint256"
        },
        {
          "indexed": false,
          "internalType": "uint256",
          "name": "newPrice",
          "type": "uint256"
        }
      ],
      "name": "FallbackPriceUpdated",
      "type": "event"
    },
    {
      "anonymous": false,
      "inputs": [
        {
          "indexed": false,
          "internalType": "uint256",
          "name": "oldFee",
          "type": "uint256"
        },
        {
          "indexed": false,
          "internalType": "uint256",
          "name": "newFee",
          "type": "uint256"
        }
      ],
      "name": "FeeBpsUpdated",
      "type": "event"
    },
    {
      "anonymous": false,
      "inputs": [
        {
          "indexed": true,
          "internalType": "address",
          "name": "oldCollector",
          "type": "address"
        },
        {
          "indexed": true,
          "internalType": "address",
          "name": "newCollector",
          "type": "address"
        }
      ],
      "name": "FeeCollectorUpdated",
      "type": "event"
    },
    {
      "anonymous": false,
      "inputs": [
        {
          "indexed": false,
          "internalType": "uint64",
          "name": "version",
          "type": "uint64"
        }
      ],
      "name": "Initialized",
      "type": "event"
    },
    {
      "anonymous": false,
      "inputs": [
        {
          "indexed": false,
          "internalType": "uint256",
          "name": "oldMaxAge",
          "type": "uint256"
        },
        {
          "indexed": false,
          "internalType": "uint256",
          "name": "newMaxAge",
          "type": "uint256"
        }
      ],
      "name": "OracleMaxAgeUpdated",
      "type": "event"
    },
    {
      "anonymous": false,
      "inputs": [
        {
          "indexed": true,
          "internalType": "address",
          "name": "oldOracle",
          "type": "address"
        },
        {
          "indexed": true,
          "internalType": "address",
          "name": "newOracle",
          "type": "address"
        }
      ],
      "name": "OracleUpdated",
      "type": "event"
    },
    {
      "anonymous": false,
      "inputs": [
        {
          "indexed": true,
          "internalType": "address",
          "name": "previousOwner",
          "type": "address"
        },
        {
          "indexed": true,
          "internalType": "address",
          "name": "newOwner",
          "type": "address"
        }
      ],
      "name": "OwnershipTransferred",
      "type": "event"
    },
    {
      "anonymous": false,
      "inputs": [
        {
          "indexed": false,
          "internalType": "address",
          "name": "account",
          "type": "address"
        }
      ],
      "name": "Paused",
      "type": "event"
    },
    {
      "anonymous": false,
      "inputs": [
        {
          "indexed": true,
          "internalType": "address",
          "name": "buyer",
          "type": "address"
        },
        {
          "indexed": false,
          "internalType": "uint256",
          "name": "usdcAmount",
          "type": "uint256"
        },
        {
          "indexed": false,
          "internalType": "uint256",
          "name": "gldAmount",
          "type": "uint256"
        },
        {
          "indexed": false,
          "internalType": "uint256",
          "name": "price",
          "type": "uint256"
        }
      ],
      "name": "TokensBought",
      "type": "event"
    },
    {
      "anonymous": false,
      "inputs": [
        {
          "indexed": true,
          "internalType": "address",
          "name": "seller",
          "type": "address"
        },
        {
          "indexed": false,
          "internalType": "uint256",
          "name": "gldAmount",
          "type": "uint256"
        },
        {
          "indexed": false,
          "internalType": "uint256",
          "name": "usdcAmount",
          "type": "uint256"
        },
        {
          "indexed": false,
          "internalType": "uint256",
          "name": "price",
          "type": "uint256"
        }
      ],
      "name": "TokensSold",
      "type": "event"
    },
    {
      "anonymous": false,
      "inputs": [
        {
          "indexed": false,
          "internalType": "address",
          "name": "account",
          "type": "address"
        }
      ],
      "name": "Unpaused",
      "type": "event"
    },
    {
      "anonymous": false,
      "inputs": [
        {
          "indexed": true,
          "internalType": "address",
          "name": "implementation",
          "type": "address"
        }
      ],
      "name": "Upgraded",
      "type": "event"
    },
    {
      "inputs": [],
      "name": "UPGRADE_INTERFACE_VERSION",
      "outputs": [
        {
          "internalType": "string",
          "name": "",
          "type": "string"
        }
      ],
      "stateMutability": "view",
      "type": "function"
    },
    {
      "inputs": [
        {
          "internalType": "uint256",
          "name": "usdcAmount",
          "type": "uint256"
        }
      ],
      "name": "buy",
      "outputs": [],
      "stateMutability": "nonpayable",
      "type": "function"
    },
    {
      "inputs": [],
      "name": "fallbackPrice",
      "outputs": [
        {
          "internalType": "uint256",
          "name": "",
          "type": "uint256"
        }
      ],
      "stateMutability": "view",
      "type": "function"
    },
    {
      "inputs": [],
      "name": "feeBps",
      "outputs": [
        {
          "internalType": "uint256",
          "name": "",
          "type": "uint256"
        }
      ],
      "stateMutability": "view",
      "type": "function"
    },
    {
      "inputs": [],
      "name": "feeCollector",
      "outputs": [
        {
          "internalType": "address",
          "name": "",
          "type": "address"
        }
      ],
      "stateMutability": "view",
      "type": "function"
    },
    {
      "inputs": [],
      "name": "getPrice",
      "outputs": [
        {
          "internalType": "uint256",
          "name": "price",
          "type": "uint256"
        },
        {
          "internalType": "bool",
          "name": "isOracle",
          "type": "bool"
        }
      ],
      "stateMutability": "view",
      "type": "function"
    },
    {
      "inputs": [],
      "name": "gld",
      "outputs": [
        {
          "internalType": "contract IGLD",
          "name": "",
          "type": "address"
        }
      ],
      "stateMutability": "view",
      "type": "function"
    },
    {
      "inputs": [
        {
          "internalType": "address",
          "name": "initialOwner",
          "type": "address"
        },
        {
          "internalType": "address",
          "name": "gldAddress",
          "type": "address"
        },
        {
          "internalType": "address",
          "name": "treasuryAddress",
          "type": "address"
        },
        {
          "internalType": "address",
          "name": "oracleAddress",
          "type": "address"
        },
        {
          "internalType": "uint256",
          "name": "initFallbackPrice",
          "type": "uint256"
        }
      ],
      "name": "initialize",
      "outputs": [],
      "stateMutability": "nonpayable",
      "type": "function"
    },
    {
      "inputs": [],
      "name": "oracleMaxAge",
      "outputs": [
        {
          "internalType": "uint256",
          "name": "",
          "type": "uint256"
        }
      ],
      "stateMutability": "view",
      "type": "function"
    },
    {
      "inputs": [],
      "name": "owner",
      "outputs": [
        {
          "internalType": "address",
          "name": "",
          "type": "address"
        }
      ],
      "stateMutability": "view",
      "type": "function"
    },
    {
      "inputs": [],
      "name": "pause",
      "outputs": [],
      "stateMutability": "nonpayable",
      "type": "function"
    },
    {
      "inputs": [],
      "name": "paused",
      "outputs": [
        {
          "internalType": "bool",
          "name": "",
          "type": "bool"
        }
      ],
      "stateMutability": "view",
      "type": "function"
    },
    {
      "inputs": [
        {
          "internalType": "uint256",
          "name": "usdcAmount",
          "type": "uint256"
        }
      ],
      "name": "previewBuy",
      "outputs": [
        {
          "internalType": "uint256",
          "name": "gldAmount",
          "type": "uint256"
        }
      ],
      "stateMutability": "view",
      "type": "function"
    },
    {
      "inputs": [
        {
          "internalType": "uint256",
          "name": "gldAmount",
          "type": "uint256"
        }
      ],
      "name": "previewSell",
      "outputs": [
        {
          "internalType": "uint256",
          "name": "usdcAmount",
          "type": "uint256"
        }
      ],
      "stateMutability": "view",
      "type": "function"
    },
    {
      "inputs": [],
      "name": "priceOracle",
      "outputs": [
        {
          "internalType": "contract AggregatorV3Interface",
          "name": "",
          "type": "address"
        }
      ],
      "stateMutability": "view",
      "type": "function"
    },
    {
      "inputs": [],
      "name": "proxiableUUID",
      "outputs": [
        {
          "internalType": "bytes32",
          "name": "",
          "type": "bytes32"
        }
      ],
      "stateMutability": "view",
      "type": "function"
    },
    {
      "inputs": [],
      "name": "renounceOwnership",
      "outputs": [],
      "stateMutability": "nonpayable",
      "type": "function"
    },
    {
      "inputs": [
        {
          "internalType": "uint256",
          "name": "gldAmount",
          "type": "uint256"
        }
      ],
      "name": "sell",
      "outputs": [],
      "stateMutability": "nonpayable",
      "type": "function"
    },
    {
      "inputs": [
        {
          "internalType": "uint256",
          "name": "newPrice",
          "type": "uint256"
        }
      ],
      "name": "setFallbackPrice",
      "outputs": [],
      "stateMutability": "nonpayable",
      "type": "function"
    },
    {
      "inputs": [
        {
          "internalType": "uint256",
          "name": "newFeeBps",
          "type": "uint256"
        }
      ],
      "name": "setFeeBps",
      "outputs": [],
      "stateMutability": "nonpayable",
      "type": "function"
    },
    {
      "inputs": [
        {
          "internalType": "address",
          "name": "newCollector",
          "type": "address"
        }
      ],
      "name": "setFeeCollector",
      "outputs": [],
      "stateMutability": "nonpayable",
      "type": "function"
    },
    {
      "inputs": [
        {
          "internalType": "address",
          "name": "newOracle",
          "type": "address"
        }
      ],
      "name": "setOracle",
      "outputs": [],
      "stateMutability": "nonpayable",
      "type": "function"
    },
    {
      "inputs": [
        {
          "internalType": "uint256",
          "name": "newMaxAge",
          "type": "uint256"
        }
      ],
      "name": "setOracleMaxAge",
      "outputs": [],
      "stateMutability": "nonpayable",
      "type": "function"
    },
    {
      "inputs": [
        {
          "internalType": "address",
          "name": "newTreasury",
          "type": "address"
        }
      ],
      "name": "setTreasury",
      "outputs": [],
      "stateMutability": "nonpayable",
      "type": "function"
    },
    {
      "inputs": [
        {
          "internalType": "address",
          "name": "newOwner",
          "type": "address"
        }
      ],
      "name": "transferOwnership",
      "outputs": [],
      "stateMutability": "nonpayable",
      "type": "function"
    },
    {
      "inputs": [],
      "name": "treasury",
      "outputs": [
        {
          "internalType": "contract ITreasury",
          "name": "",
          "type": "address"
        }
      ],
      "stateMutability": "view",
      "type": "function"
    },
    {
      "inputs": [],
      "name": "unpause",
      "outputs": [],
      "stateMutability": "nonpayable",
      "type": "function"
    },
    {
      "inputs": [
        {
          "internalType": "address",
          "name": "newImplementation",
          "type": "address"
        },
        {
          "internalType": "bytes",
          "name": "data",
          "type": "bytes"
        }
      ],
      "name": "upgradeToAndCall",
      "outputs": [],
      "stateMutability": "payable",
      "type": "function"
    },
    {
      "inputs": [],
      "name": "usdc",
      "outputs": [
        {
          "internalType": "contract IERC20",
          "name": "",
          "type": "address"
        }
      ],
      "stateMutability": "view",
      "type": "function"
    }
  ],
  "bytecode": "0x60a060405230608052348015610013575f5ffd5b5061001c610021565b6100d3565b7ff0c57e16840df040f15088dc2f81fe391c3923bec73e23a9662efc9c229c6a00805468010000000000000000900460ff16156100715760405163f92ee8a960e01b815260040160405180910390fd5b80546001600160401b03908116146100d05780546001600160401b0319166001600160401b0390811782556040519081527fc7f505b2f371ae2175ee4913f4499e1f2633a7b5936321eed1cdaeb6115181d29060200160405180910390a15b50565b608051611a796100f95f395f81816110d5015281816110fe01526112420152611a795ff3fe6080604052600436106101ba575f3560e01c806398d5fdca116100f2578063d96a094a11610092578063f0f4426011610062578063f0f44260146104ef578063f2fde38b1461050e578063f7013ef61461052d578063fb3dd95f1461054c575f5ffd5b8063d96a094a1461047d578063e28a1b861461049c578063e4849b32146104b1578063f0218a94146104d0575f5ffd5b8063a589b334116100cd578063a589b334146103e4578063ad3cb1cc14610402578063c415b95c1461043f578063ce4391df1461045e575f5ffd5b806398d5fdca146103875780639c56b272146103b0578063a42dce80146103c5575f5ffd5b80635c975abb1161015d57806372c27b621161013857806372c27b62146102f95780637adbf973146103185780638456cb59146103375780638da5cb5b1461034b575f5ffd5b80635c975abb1461029857806361d027b3146102c6578063715018a6146102e5575f5ffd5b80633f4ba83a116101985780633f4ba83a1461023c57806348153279146102525780634f1ef2861461027157806352d1902d14610284575f5ffd5b806324a9d853146101be5780632630c12f146101e65780633e413bee1461021d575b5f5ffd5b3480156101c9575f5ffd5b506101d360065481565b6040519081526020015b60405180910390f35b3480156101f1575f5ffd5b50600354610205906001600160a01b031681565b6040516001600160a01b0390911681526020016101dd565b348015610228575f5ffd5b50600254610205906001600160a01b031681565b348015610247575f5ffd5b5061025061056b565b005b34801561025d575f5ffd5b506101d361026c366004611753565b6105a7565b61025061027f366004611792565b6105f3565b34801561028f575f5ffd5b506101d3610612565b3480156102a3575f5ffd5b505f516020611a245f395f51905f525460ff1660405190151581526020016101dd565b3480156102d1575f5ffd5b50600154610205906001600160a01b031681565b3480156102f0575f5ffd5b5061025061062d565b348015610304575f5ffd5b50610250610313366004611753565b610640565b348015610323575f5ffd5b50610250610332366004611858565b610689565b348015610342575f5ffd5b506102506106ec565b348015610356575f5ffd5b507f9016d09d72d40fdae2fd8ceac6b6234c7706214fd39c1cd1e609a0528c199300546001600160a01b0316610205565b348015610392575f5ffd5b5061039b610728565b604080519283529015156020830152016101dd565b3480156103bb575f5ffd5b506101d360055481565b3480156103d0575f5ffd5b506102506103df366004611858565b61080f565b3480156103ef575f5ffd5b505f54610205906001600160a01b031681565b34801561040d575f5ffd5b50610432604051806040016040528060058152602001640352e302e360dc1b81525081565b6040516101dd9190611873565b34801561044a575f5ffd5b50600754610205906001600160a01b031681565b348015610469575f5ffd5b50610250610478366004611753565b610899565b348015610488575f5ffd5b50610250610497366004611753565b610902565b3480156104a7575f5ffd5b506101d360045481565b3480156104bc575f5ffd5b506102506104cb366004611753565b610a98565b3480156104db575f5ffd5b506102506104ea366004611753565b610bf4565b3480156104fa575f5ffd5b50610250610509366004611858565b610c3d565b348015610519575f5ffd5b50610250610528366004611858565b610d0a565b348015610538575f5ffd5b506102506105473660046118a8565b610d4c565b348015610557575f5ffd5b506101d3610566366004611753565b610fd5565b610573611010565b61057b61106b565b60405133907f1719cb3f7c4987edac4dc345d939a6449fb29d3502ad849f06f698ce07a80d28905f90a2565b5f815f036105c857604051631f2a200560e01b815260040160405180910390fd5b5f6105d1610728565b509050806105e284620186a061191c565b6105ec9190611933565b9392505050565b6105fb6110ca565b6106048261116e565b61060e8282611176565b5050565b5f61061b611237565b505f516020611a045f395f51905f5290565b610635611010565b61063e5f611280565b565b610648611010565b60065460408051918252602082018390527f5ec5620e288c4be955ccb6cfb3d55431a8fed5c4c96ffacc4b9506360695f64e910160405180910390a1600655565b610691611010565b6003546040516001600160a01b038084169216907f078c3b417dadf69374a59793b829c52001247130433427049317bde56607b1b7905f90a3600380546001600160a01b0319166001600160a01b0392909216919091179055565b6106f4611010565b6106fc6112f0565b60405133907f134cab949f2ee0297acb0f86d1980956748b9d055a8511ff9574c5d2875b7f01905f90a2565b6003545f9081906001600160a01b0316156107e35760035f9054906101000a90046001600160a01b03166001600160a01b031663feaf968c6040518163ffffffff1660e01b815260040160a060405180830381865afa9250505080156107ab575060408051601f3d908101601f191682019092526107a891810190611970565b60015b156107e3575f841380156107ca57506005546107c783426119be565b11155b156107dd57509195600195509350505050565b50505050505b6004545f0361080557604051631821d12360e31b815260040160405180910390fd5b5050600454905f90565b610817611010565b6001600160a01b03811661083e5760405163d92e233d60e01b815260040160405180910390fd5b6007546040516001600160a01b038084169216907f5d16ad41baeb009cd23eb8f6c7cde5c2e0cd5acf4a33926ab488875c37c37f38905f90a3600780546001600160a01b0319166001600160a01b0392909216919091179055565b6108a1611010565b805f036108c157604051631f2a200560e01b815260040160405180910390fd5b60045460408051918252602082018390527f1c1ae796fc41a2f7b042d5b4b9f7a0f7eee2169bc11e7ba0b3672cfa44f3d0c1910160405180910390a1600455565b61090a611338565b805f0361092a57604051631f2a200560e01b815260040160405180910390fd5b5f610934826105a7565b9050805f0361095657604051631f2a200560e01b815260040160405180910390fd5b5f61095f610728565b5060025490915061097b906001600160a01b0316333086611368565b600154600254610998916001600160a01b039182169116856113a4565b60015460405163b6b55f2560e01b8152600481018590526001600160a01b039091169063b6b55f25906024015f604051808303815f87803b1580156109db575f5ffd5b505af11580156109ed573d5f5f3e3d5ffd5b50505f546040516340c10f1960e01b8152336004820152602481018690526001600160a01b0390911692506340c10f1991506044015f604051808303815f87803b158015610a39575f5ffd5b505af1158015610a4b573d5f5f3e3d5ffd5b505060408051868152602081018690529081018490523392507f22f6af6e13430e3e7b6418d01e6a48c1fbce5e8cb1698901fc95134b4b1c58ad91506060015b60405180910390a2505050565b610aa0611338565b805f03610ac057604051631f2a200560e01b815260040160405180910390fd5b5f610aca82610fd5565b9050805f03610aec57604051631f2a200560e01b815260040160405180910390fd5b5f610af5610728565b505f54604051632770a7eb60e21b8152336004820152602481018690529192506001600160a01b031690639dc29fac906044015f604051808303815f87803b158015610b3f575f5ffd5b505af1158015610b51573d5f5f3e3d5ffd5b50506001546040516301dfad0560e71b8152336004820152602481018690526001600160a01b03909116925063efd6828091506044015f604051808303815f87803b158015610b9e575f5ffd5b505af1158015610bb0573d5f5f3e3d5ffd5b505060408051868152602081018690529081018490523392507f6db63bebf1e6540277744df32846ebdb98385b1a73f2d5de49b28348add63f509150606001610a8b565b610bfc611010565b60055460408051918252602082018390527fdc69c1ebd7f21dc66c736c87fb4de0dd6824633b099f73165f3b2b7bce220341910160405180910390a1600555565b610c45611010565b6001600160a01b038116610c6c5760405163d92e233d60e01b815260040160405180910390fd5b600180546001600160a01b0319166001600160a01b03831690811790915560408051631f209df760e11b81529051633e413bee916004808201926020929091908290030181865afa158015610cc3573d5f5f3e3d5ffd5b505050506040513d601f19601f82011682018060405250810190610ce791906119d1565b600280546001600160a01b0319166001600160a01b039290921691909117905550565b610d12611010565b6001600160a01b038116610d4057604051631e4fbdf760e01b81525f60048201526024015b60405180910390fd5b610d4981611280565b50565b5f610d5561141e565b805490915060ff600160401b820416159067ffffffffffffffff165f81158015610d7c5750825b90505f8267ffffffffffffffff166001148015610d985750303b155b905081158015610da6575080155b15610dc45760405163f92ee8a960e01b815260040160405180910390fd5b845467ffffffffffffffff191660011785558315610dee57845460ff60401b1916600160401b1785555b6001600160a01b038a16610e155760405163d92e233d60e01b815260040160405180910390fd5b6001600160a01b038916610e3c5760405163d92e233d60e01b815260040160405180910390fd5b6001600160a01b038816610e635760405163d92e233d60e01b815260040160405180910390fd5b855f03610e8357604051631f2a200560e01b815260040160405180910390fd5b610e8c8a611448565b610e94611459565b5f80546001600160a01b03808c166001600160a01b03199283161790925560018054928b16929091168217905560408051631f209df760e11b81529051633e413bee916004808201926020929091908290030181865afa158015610efa573d5f5f3e3d5ffd5b505050506040513d601f19601f82011682018060405250810190610f1e91906119d1565b600280546001600160a01b0319166001600160a01b03928316179055871615610f5d57600380546001600160a01b0319166001600160a01b0389161790555b6004869055610e10600555600780546001600160a01b0319166001600160a01b038c161790558315610fc957845460ff60401b19168555604051600181527fc7f505b2f371ae2175ee4913f4499e1f2633a7b5936321eed1cdaeb6115181d29060200160405180910390a15b50505050505050505050565b5f815f03610ff657604051631f2a200560e01b815260040160405180910390fd5b5f610fff610728565b509050620186a06105e2828561191c565b336110427f9016d09d72d40fdae2fd8ceac6b6234c7706214fd39c1cd1e609a0528c199300546001600160a01b031690565b6001600160a01b03161461063e5760405163118cdaa760e01b8152336004820152602401610d37565b611073611461565b5f516020611a245f395f51905f52805460ff191681557f5db9ee0a495bf2e6ff9c91a7834c1ba4fdd244a5e8aa4e537bd38aeae4b073aa335b6040516001600160a01b03909116815260200160405180910390a150565b306001600160a01b037f000000000000000000000000000000000000000000000000000000000000000016148061115057507f00000000000000000000000000000000000000000000000000000000000000006001600160a01b03166111445f516020611a045f395f51905f52546001600160a01b031690565b6001600160a01b031614155b1561063e5760405163703e46dd60e11b815260040160405180910390fd5b610d49611010565b816001600160a01b03166352d1902d6040518163ffffffff1660e01b8152600401602060405180830381865afa9250505080156111d0575060408051601f3d908101601f191682019092526111cd918101906119ec565b60015b6111f857604051634c9c8ce360e01b81526001600160a01b0383166004820152602401610d37565b5f516020611a045f395f51905f52811461122857604051632a87526960e21b815260048101829052602401610d37565b6112328383611490565b505050565b306001600160a01b037f0000000000000000000000000000000000000000000000000000000000000000161461063e5760405163703e46dd60e11b815260040160405180910390fd5b7f9016d09d72d40fdae2fd8ceac6b6234c7706214fd39c1cd1e609a0528c19930080546001600160a01b031981166001600160a01b03848116918217845560405192169182907f8be0079c531659141344cd1fd0a4f28419497f9722a3daafe3b4186f6b6457e0905f90a3505050565b6112f8611338565b5f516020611a245f395f51905f52805460ff191660011781557f62e78cea01bee320cd4e420270b5ea74000d11b0c9f74754ebdbfc544b05a258336110ac565b5f516020611a245f395f51905f525460ff161561063e5760405163d93c066560e01b815260040160405180910390fd5b6113768484848460016114e5565b61139e57604051635274afe760e01b81526001600160a01b0385166004820152602401610d37565b50505050565b6113b08383835f611552565b611232576113c183835f6001611552565b6113e957604051635274afe760e01b81526001600160a01b0384166004820152602401610d37565b6113f68383836001611552565b61123257604051635274afe760e01b81526001600160a01b0384166004820152602401610d37565b5f807ff0c57e16840df040f15088dc2f81fe391c3923bec73e23a9662efc9c229c6a005b92915050565b6114506115b4565b610d49816115d9565b61063e6115b4565b5f516020611a245f395f51905f525460ff1661063e57604051638dfc202b60e01b815260040160405180910390fd5b611499826115e1565b6040516001600160a01b038316907fbc7cd75a20ee27fd9adebab32041f755214dbc6bffa90cc0225b39da2e5c2d3b905f90a28051156114dd576112328282611644565b61060e6116e4565b6040516323b872dd60e01b5f8181526001600160a01b038781166004528616602452604485905291602083606481808c5af1925060015f51148316611541578383151615611535573d5f823e3d81fd5b5f883b113d1516831692505b604052505f60605295945050505050565b60405163095ea7b360e01b5f8181526001600160a01b038616600452602485905291602083604481808b5af1925060015f511483166115a857838315161561159c573d5f823e3d81fd5b5f873b113d1516831692505b60405250949350505050565b6115bc611703565b61063e57604051631afcd79f60e31b815260040160405180910390fd5b610d126115b4565b806001600160a01b03163b5f0361161657604051634c9c8ce360e01b81526001600160a01b0382166004820152602401610d37565b5f516020611a045f395f51905f5280546001600160a01b0319166001600160a01b0392909216919091179055565b60605f611651848461171c565b905080801561167257505f3d118061167257505f846001600160a01b03163b115b156116875761167f61172f565b915050611442565b80156116b157604051639996b31560e01b81526001600160a01b0385166004820152602401610d37565b3d156116c4576116bf611748565b6116dd565b60405163d6bda27560e01b815260040160405180910390fd5b5092915050565b341561063e5760405163b398979f60e01b815260040160405180910390fd5b5f61170c61141e565b54600160401b900460ff16919050565b5f5f5f835160208501865af49392505050565b6040513d81523d5f602083013e3d602001810160405290565b6040513d5f823e3d81fd5b5f60208284031215611763575f5ffd5b5035919050565b6001600160a01b0381168114610d49575f5ffd5b634e487b7160e01b5f52604160045260245ffd5b5f5f604083850312156117a3575f5ffd5b82356117ae8161176a565b9150602083013567ffffffffffffffff8111156117c9575f5ffd5b8301601f810185136117d9575f5ffd5b803567ffffffffffffffff8111156117f3576117f361177e565b604051601f8201601f19908116603f0116810167ffffffffffffffff811182821017156118225761182261177e565b604052818152828201602001871015611839575f5ffd5b816020840160208301375f602083830101528093505050509250929050565b5f60208284031215611868575f5ffd5b81356105ec8161176a565b602081525f82518060208401528060208501604085015e5f604082850101526040601f19601f83011684010191505092915050565b5f5f5f5f5f60a086880312156118bc575f5ffd5b85356118c78161176a565b945060208601356118d78161176a565b935060408601356118e78161176a565b925060608601356118f78161176a565b949793965091946080013592915050565b634e487b7160e01b5f52601160045260245ffd5b808202811582820484141761144257611442611908565b5f8261194d57634e487b7160e01b5f52601260045260245ffd5b500490565b805169ffffffffffffffffffff8116811461196b575f5ffd5b919050565b5f5f5f5f5f60a08688031215611984575f5ffd5b61198d86611952565b602087015160408801516060890151929750909550935091506119b260808701611952565b90509295509295909350565b8181038181111561144257611442611908565b5f602082840312156119e1575f5ffd5b81516105ec8161176a565b5f602082840312156119fc575f5ffd5b505191905056fe360894a13ba1a3210667c828492db98dca3e2076cc3735a920a3ca505d382bbccd5ed15c6e187e77e9aee88184c21f4f2182ab5827cb3b7e07fbedcd63f03300a264697066735822122091c51590ff4a077ed45e5b4deb2bf62a70821a9f153c328b70465c39b27d9f9364736f6c634300081c0033",
  "linkReferences": {},
  "deployedLinkReferences": {},
  "immutableReferences": {
    "1117": [
      {
        "length": 32,
        "start": 4309
      },
      {
        "length": 32,
        "start": 4350
      },
      {
        "length": 32,
        "start": 4674
      }
    ]
  },
  "inputSourceName": "project/contracts/Exchange.sol",
  "buildInfoId": "solc-0_8_28-7c7bbe6ad109dac359b3fdd0b7c768936b345309"
}