{
  "_format": "hh3-artifact-1",
  "contractName": "Exchange",
  "sourceName": "contracts/Exchange.sol",
  "abi": [
    {
      "inputs": [],
      "stateMutability": "nonpayable",
      "type": "constructor"
    },
    {
      "inputs": [
        {
          "internalType": "address",
          "name": "target",
          "type": "address"
        }
      ],
      "name": "AddressEmptyCode",
      "type": "error"
    },
    {
      "inputs": [
        {
          "internalType": "address",
          "name": "implementation",
          "type": "address"
        }
      ],
      "name": "ERC1967InvalidImplementation",
      "type": "error"
    },
    {
      "inputs": [],
      "name": "ERC1967NonPayable",
      "type": "error"
    },
    {
      "inputs": [],
      "name": "EnforcedPause",
      "type": "error"
    },
    {
      "inputs": [],
      "name": "ExpectedPause",
      "type": "error"
    },
    {
      "inputs": [],
      "name": "FailedCall",
      "type": "error"
    },
    {
      "inputs": [
        {
          "internalType": "uint256",
          "name": "requested",
          "type": "uint256"
        },
        {
          "internalType": "uint256",
          "name": "available",
          "type": "uint256"
        }
      ],
      "name": "InsufficientUsdcInTreasury",
      "type": "error"
    },
    {
      "inputs": [],
      "name": "InvalidInitialization",
      "type": "error"
    },
    {
      "inputs": [],
      "name": "InvalidOraclePrice",
      "type": "error"
    },
    {
      "inputs": [],
      "name": "NoPriceAvailable",
      "type": "error"
    },
    {
      "inputs": [],
      "name": "NotInitializing",
      "type": "error"
    },
    {
      "inputs": [
        {
          "internalType": "address",
          "name": "owner",
          "type": "address"
        }
      ],
      "name": "OwnableInvalidOwner",
      "type": "error"
    },
    {
      "inputs": [
        {
          "internalType": "address",
          "name": "account",
          "type": "address"
        }
      ],
      "name": "OwnableUnauthorizedAccount",
      "type": "error"
    },
    {
      "inputs": [
        {
          "internalType": "address",
          "name": "token",
          "type": "address"
        }
      ],
      "name": "SafeERC20FailedOperation",
      "type": "error"
    },
    {
      "inputs": [
        {
          "internalType": "uint256",
          "name": "updatedAt",
          "type": "uint256"
        },
        {
          "internalType": "uint256",
          "name": "maxAge",
          "type": "uint256"
        }
      ],
      "name": "StaleOracleData",
      "type": "error"
    },
    {
      "inputs": [],
      "name": "UUPSUnauthorizedCallContext",
      "type": "error"
    },
    {
      "inputs": [
        {
          "internalType": "bytes32",
          "name": "slot",
          "type": "bytes32"
        }
      ],
      "name": "UUPSUnsupportedProxiableUUID",
      "type": "error"
    },
    {
      "inputs": [],
      "name": "ZeroAddress",
      "type": "error"
    },
    {
      "inputs": [],
      "name": "ZeroAmount",
      "type": "error"
    },
    {
      "anonymous": false,
      "inputs": [
        {
          "indexed": true,
          "internalType": "address",
          "name": "by",
          "type": "address"
        }
      ],
      "name": "ContractsPaused",
      "type": "event"
    },
    {
      "anonymous": false,
      "inputs": [
        {
          "indexed": true,
          "internalType": "address",
          "name": "by",
          "type": "address"
        }
      ],
      "name": "ContractsUnpaused",
      "type": "event"
    },
    {
      "anonymous": false,
      "inputs": [
        {
          "indexed": false,
          "internalType": "uint256",
          "name": "oldPrice",
          "type": "uint256"
        },
        {
          "indexed": false,
          "internalType": "uint256",
          "name": "newPrice",
          "type": "uint256"
        }
      ],
      "name": "FallbackPriceUpdated",
      "type": "event"
    },
    {
      "anonymous": false,
      "inputs": [
        {
          "indexed": false,
          "internalType": "uint256",
          "name": "oldFee",
          "type": "uint256"
        },
        {
          "indexed": false,
          "internalType": "uint256",
          "name": "newFee",
          "type": "uint256"
        }
      ],
      "name": "FeeBpsUpdated",
      "type": "event"
    },
    {
      "anonymous": false,
      "inputs": [
        {
          "indexed": true,
          "internalType": "address",
          "name": "oldCollector",
          "type": "address"
        },
        {
          "indexed": true,
          "internalType": "address",
          "name": "newCollector",
          "type": "address"
        }
      ],
      "name": "FeeCollectorUpdated",
      "type": "event"
    },
    {
      "anonymous": false,
      "inputs": [
        {
          "indexed": false,
          "internalType": "uint64",
          "name": "version",
          "type": "uint64"
        }
      ],
      "name": "Initialized",
      "type": "event"
    },
    {
      "anonymous": false,
      "inputs": [
        {
          "indexed": false,
          "internalType": "uint256",
          "name": "oldMaxAge",
          "type": "uint256"
        },
        {
          "indexed": false,
          "internalType": "uint256",
          "name": "newMaxAge",
          "type": "uint256"
        }
      ],
      "name": "OracleMaxAgeUpdated",
      "type": "event"
    },
    {
      "anonymous": false,
      "inputs": [
        {
          "indexed": true,
          "internalType": "address",
          "name": "oldOracle",
          "type": "address"
        },
        {
          "indexed": true,
          "internalType": "address",
          "name": "newOracle",
          "type": "address"
        }
      ],
      "name": "OracleUpdated",
      "type": "event"
    },
    {
      "anonymous": false,
      "inputs": [
        {
          "indexed": true,
          "internalType": "address",
          "name": "previousOwner",
          "type": "address"
        },
        {
          "indexed": true,
          "internalType": "address",
          "name": "newOwner",
          "type": "address"
        }
      ],
      "name": "OwnershipTransferred",
      "type": "event"
    },
    {
      "anonymous": false,
      "inputs": [
        {
          "indexed": false,
          "internalType": "address",
          "name": "account",
          "type": "address"
        }
      ],
      "name": "Paused",
      "type": "event"
    },
    {
      "anonymous": false,
      "inputs": [
        {
          "indexed": true,
          "internalType": "address",
          "name": "buyer",
          "type": "address"
        },
        {
          "indexed": false,
          "internalType": "uint256",
          "name": "usdcAmount",
          "type": "uint256"
        },
        {
          "indexed": false,
          "internalType": "uint256",
          "name": "gldAmount",
          "type": "uint256"
        },
        {
          "indexed": false,
          "internalType": "uint256",
          "name": "price",
          "type": "uint256"
        }
      ],
      "name": "TokensBought",
      "type": "event"
    },
    {
      "anonymous": false,
      "inputs": [
        {
          "indexed": true,
          "internalType": "address",
          "name": "seller",
          "type": "address"
        },
        {
          "indexed": false,
          "internalType": "uint256",
          "name": "gldAmount",
          "type": "uint256"
        },
        {
          "indexed": false,
          "internalType": "uint256",
          "name": "usdcAmount",
          "type": "uint256"
        },
        {
          "indexed": false,
          "internalType": "uint256",
          "name": "price",
          "type": "uint256"
        }
      ],
      "name": "TokensSold",
      "type": "event"
    },
    {
      "anonymous": false,
      "inputs": [
        {
          "indexed": false,
          "internalType": "address",
          "name": "account",
          "type": "address"
        }
      ],
      "name": "Unpaused",
      "type": "event"
    },
    {
      "anonymous": false,
      "inputs": [
        {
          "indexed": true,
          "internalType": "address",
          "name": "implementation",
          "type": "address"
        }
      ],
      "name": "Upgraded",
      "type": "event"
    },
    {
      "inputs": [],
      "name": "UPGRADE_INTERFACE_VERSION",
      "outputs": [
        {
          "internalType": "string",
          "name": "",
          "type": "string"
        }
      ],
      "stateMutability": "view",
      "type": "function"
    },
    {
      "inputs": [
        {
          "internalType": "uint256",
          "name": "usdcAmount",
          "type": "uint256"
        }
      ],
      "name": "buy",
      "outputs": [],
      "stateMutability": "nonpayable",
      "type": "function"
    },
    {
      "inputs": [],
      "name": "fallbackPrice",
      "outputs": [
        {
          "internalType": "uint256",
          "name": "",
          "type": "uint256"
        }
      ],
      "stateMutability": "view",
      "type": "function"
    },
    {
      "inputs": [],
      "name": "feeBps",
      "outputs": [
        {
          "internalType": "uint256",
          "name": "",
          "type": "uint256"
        }
      ],
      "stateMutability": "view",
      "type": "function"
    },
    {
      "inputs": [],
      "name": "feeCollector",
      "outputs": [
        {
          "internalType": "address",
          "name": "",
          "type": "address"
        }
      ],
      "stateMutability": "view",
      "type": "function"
    },
    {
      "inputs": [],
      "name": "getPrice",
      "outputs": [
        {
          "internalType": "uint256",
          "name": "price",
          "type": "uint256"
        },
        {
          "internalType": "bool",
          "name": "isOracle",
          "type": "bool"
        }
      ],
      "stateMutability": "view",
      "type": "function"
    },
    {
      "inputs": [],
      "name": "gld",
      "outputs": [
        {
          "internalType": "contract IGLD",
          "name": "",
          "type": "address"
        }
      ],
      "stateMutability": "view",
      "type": "function"
    },
    {
      "inputs": [
        {
          "internalType": "address",
          "name": "initialOwner",
          "type": "address"
        },
        {
          "internalType": "address",
          "name": "gldAddress",
          "type": "address"
        },
        {
          "internalType": "address",
          "name": "treasuryAddress",
          "type": "address"
        },
        {
          "internalType": "address",
          "name": "oracleAddress",
          "type": "address"
        },
        {
          "internalType": "uint256",
          "name": "initFallbackPrice",
          "type": "uint256"
        }
      ],
      "name": "initialize",
      "outputs": [],
      "stateMutability": "nonpayable",
      "type": "function"
    },
    {
      "inputs": [],
      "name": "oracleMaxAge",
      "outputs": [
        {
          "internalType": "uint256",
          "name": "",
          "type": "uint256"
        }
      ],
      "stateMutability": "view",
      "type": "function"
    },
    {
      "inputs": [],
      "name": "owner",
      "outputs": [
        {
          "internalType": "address",
          "name": "",
          "type": "address"
        }
      ],
      "stateMutability": "view",
      "type": "function"
    },
    {
      "inputs": [],
      "name": "pause",
      "outputs": [],
      "stateMutability": "nonpayable",
      "type": "function"
    },
    {
      "inputs": [],
      "name": "paused",
      "outputs": [
        {
          "internalType": "bool",
          "name": "",
          "type": "bool"
        }
      ],
      "stateMutability": "view",
      "type": "function"
    },
    {
      "inputs": [
        {
          "internalType": "uint256",
          "name": "usdcAmount",
          "type": "uint256"
        }
      ],
      "name": "previewBuy",
      "outputs": [
        {
          "internalType": "uint256",
          "name": "gldAmount",
          "type": "uint256"
        }
      ],
      "stateMutability": "view",
      "type": "function"
    },
    {
      "inputs": [
        {
          "internalType": "uint256",
          "name": "gldAmount",
          "type": "uint256"
        }
      ],
      "name": "previewSell",
      "outputs": [
        {
          "internalType": "uint256",
          "name": "usdcAmount",
          "type": "uint256"
        }
      ],
      "stateMutability": "view",
      "type": "function"
    },
    {
      "inputs": [],
      "name": "priceOracle",
      "outputs": [
        {
          "internalType": "contract AggregatorV3Interface",
          "name": "",
          "type": "address"
        }
      ],
      "stateMutability": "view",
      "type": "function"
    },
    {
      "inputs": [],
      "name": "proxiableUUID",
      "outputs": [
        {
          "internalType": "bytes32",
          "name": "",
          "type": "bytes32"
        }
      ],
      "stateMutability": "view",
      "type": "function"
    },
    {
      "inputs": [],
      "name": "renounceOwnership",
      "outputs": [],
      "stateMutability": "nonpayable",
      "type": "function"
    },
    {
      "inputs": [
        {
          "internalType": "uint256",
          "name": "gldAmount",
          "type": "uint256"
        }
      ],
      "name": "sell",
      "outputs": [],
      "stateMutability": "nonpayable",
      "type": "function"
    },
    {
      "inputs": [
        {
          "internalType": "uint256",
          "name": "newPrice",
          "type": "uint256"
        }
      ],
      "name": "setFallbackPrice",
      "outputs": [],
      "stateMutability": "nonpayable",
      "type": "function"
    },
    {
      "inputs": [
        {
          "internalType": "uint256",
          "name": "newFeeBps",
          "type": "uint256"
        }
      ],
      "name": "setFeeBps",
      "outputs": [],
      "stateMutability": "nonpayable",
      "type": "function"
    },
    {
      "inputs": [
        {
          "internalType": "address",
          "name": "newCollector",
          "type": "address"
        }
      ],
      "name": "setFeeCollector",
      "outputs": [],
      "stateMutability": "nonpayable",
      "type": "function"
    },
    {
      "inputs": [
        {
          "internalType": "address",
          "name": "newOracle",
          "type": "address"
        }
      ],
      "name": "setOracle",
      "outputs": [],
      "stateMutability": "nonpayable",
      "type": "function"
    },
    {
      "inputs": [
        {
          "internalType": "uint256",
          "name": "newMaxAge",
          "type": "uint256"
        }
      ],
      "name": "setOracleMaxAge",
      "outputs": [],
      "stateMutability": "nonpayable",
      "type": "function"
    },
    {
      "inputs": [
        {
          "internalType": "address",
          "name": "newOwner",
          "type": "address"
        }
      ],
      "name": "transferOwnership",
      "outputs": [],
      "stateMutability": "nonpayable",
      "type": "function"
    },
    {
      "inputs": [],
      "name": "treasury",
      "outputs": [
        {
          "internalType": "contract ITreasury",
          "name": "",
          "type": "address"
        }
      ],
      "stateMutability": "view",
      "type": "function"
    },
    {
      "inputs": [],
      "name": "unpause",
      "outputs": [],
      "stateMutability": "nonpayable",
      "type": "function"
    },
    {
      "inputs": [
        {
          "internalType": "address",
          "name": "newImplementation",
          "type": "address"
        },
        {
          "internalType": "bytes",
          "name": "data",
          "type": "bytes"
        }
      ],
      "name": "upgradeToAndCall",
      "outputs": [],
      "stateMutability": "payable",
      "type": "function"
    },
    {
      "inputs": [],
      "name": "usdc",
      "outputs": [
        {
          "internalType": "contract IERC20",
          "name": "",
          "type": "address"
        }
      ],
      "stateMutability": "view",
      "type": "function"
    }
  ],
  "bytecode": "0x60a060405230608052348015610013575f5ffd5b5061001c610021565b6100d3565b7ff0c57e16840df040f15088dc2f81fe391c3923bec73e23a9662efc9c229c6a00805468010000000000000000900460ff16156100715760405163f92ee8a960e01b815260040160405180910390fd5b80546001600160401b03908116146100d05780546001600160401b0319166001600160401b0390811782556040519081527fc7f505b2f371ae2175ee4913f4499e1f2633a7b5936321eed1cdaeb6115181d29060200160405180910390a15b50565b6080516119826100f95f395f8181610fde01528181611007015261114b01526119825ff3fe6080604052600436106101af575f3560e01c806398d5fdca116100e7578063d96a094a11610087578063f0218a9411610062578063f0218a94146104c5578063f2fde38b146104e4578063f7013ef614610503578063fb3dd95f14610522575f5ffd5b8063d96a094a14610472578063e28a1b8614610491578063e4849b32146104a6575f5ffd5b8063a589b334116100c2578063a589b334146103d9578063ad3cb1cc146103f7578063c415b95c14610434578063ce4391df14610453575f5ffd5b806398d5fdca1461037c5780639c56b272146103a5578063a42dce80146103ba575f5ffd5b80635c975abb1161015257806372c27b621161012d57806372c27b62146102ee5780637adbf9731461030d5780638456cb591461032c5780638da5cb5b14610340575f5ffd5b80635c975abb1461028d57806361d027b3146102bb578063715018a6146102da575f5ffd5b80633f4ba83a1161018d5780633f4ba83a1461023157806348153279146102475780634f1ef2861461026657806352d1902d14610279575f5ffd5b806324a9d853146101b35780632630c12f146101db5780633e413bee14610212575b5f5ffd5b3480156101be575f5ffd5b506101c860065481565b6040519081526020015b60405180910390f35b3480156101e6575f5ffd5b506003546101fa906001600160a01b031681565b6040516001600160a01b0390911681526020016101d2565b34801561021d575f5ffd5b506002546101fa906001600160a01b031681565b34801561023c575f5ffd5b50610245610541565b005b348015610252575f5ffd5b506101c861026136600461165c565b61057d565b61024561027436600461169b565b6105c9565b348015610284575f5ffd5b506101c86105e8565b348015610298575f5ffd5b505f51602061192d5f395f51905f525460ff1660405190151581526020016101d2565b3480156102c6575f5ffd5b506001546101fa906001600160a01b031681565b3480156102e5575f5ffd5b50610245610603565b3480156102f9575f5ffd5b5061024561030836600461165c565b610616565b348015610318575f5ffd5b50610245610327366004611761565b61065f565b348015610337575f5ffd5b506102456106c2565b34801561034b575f5ffd5b507f9016d09d72d40fdae2fd8ceac6b6234c7706214fd39c1cd1e609a0528c199300546001600160a01b03166101fa565b348015610387575f5ffd5b506103906106fe565b604080519283529015156020830152016101d2565b3480156103b0575f5ffd5b506101c860055481565b3480156103c5575f5ffd5b506102456103d4366004611761565b6107e5565b3480156103e4575f5ffd5b505f546101fa906001600160a01b031681565b348015610402575f5ffd5b50610427604051806040016040528060058152602001640352e302e360dc1b81525081565b6040516101d2919061177c565b34801561043f575f5ffd5b506007546101fa906001600160a01b031681565b34801561045e575f5ffd5b5061024561046d36600461165c565b61086f565b34801561047d575f5ffd5b5061024561048c36600461165c565b6108d8565b34801561049c575f5ffd5b506101c860045481565b3480156104b1575f5ffd5b506102456104c036600461165c565b610a6e565b3480156104d0575f5ffd5b506102456104df36600461165c565b610bca565b3480156104ef575f5ffd5b506102456104fe366004611761565b610c13565b34801561050e575f5ffd5b5061024561051d3660046117b1565b610c55565b34801561052d575f5ffd5b506101c861053c36600461165c565b610ede565b610549610f19565b610551610f74565b60405133907f1719cb3f7c4987edac4dc345d939a6449fb29d3502ad849f06f698ce07a80d28905f90a2565b5f815f0361059e57604051631f2a200560e01b815260040160405180910390fd5b5f6105a76106fe565b509050806105b884620186a0611825565b6105c2919061183c565b9392505050565b6105d1610fd3565b6105da82611077565b6105e4828261107f565b5050565b5f6105f1611140565b505f51602061190d5f395f51905f5290565b61060b610f19565b6106145f611189565b565b61061e610f19565b60065460408051918252602082018390527f5ec5620e288c4be955ccb6cfb3d55431a8fed5c4c96ffacc4b9506360695f64e910160405180910390a1600655565b610667610f19565b6003546040516001600160a01b038084169216907f078c3b417dadf69374a59793b829c52001247130433427049317bde56607b1b7905f90a3600380546001600160a01b0319166001600160a01b0392909216919091179055565b6106ca610f19565b6106d26111f9565b60405133907f134cab949f2ee0297acb0f86d1980956748b9d055a8511ff9574c5d2875b7f01905f90a2565b6003545f9081906001600160a01b0316156107b95760035f9054906101000a90046001600160a01b03166001600160a01b031663feaf968c6040518163ffffffff1660e01b815260040160a060405180830381865afa925050508015610781575060408051601f3d908101601f1916820190925261077e91810190611879565b60015b156107b9575f841380156107a0575060055461079d83426118c7565b11155b156107b357509195600195509350505050565b50505050505b6004545f036107db57604051631821d12360e31b815260040160405180910390fd5b5050600454905f90565b6107ed610f19565b6001600160a01b0381166108145760405163d92e233d60e01b815260040160405180910390fd5b6007546040516001600160a01b038084169216907f5d16ad41baeb009cd23eb8f6c7cde5c2e0cd5acf4a33926ab488875c37c37f38905f90a3600780546001600160a01b0319166001600160a01b0392909216919091179055565b610877610f19565b805f0361089757604051631f2a200560e01b815260040160405180910390fd5b60045460408051918252602082018390527f1c1ae796fc41a2f7b042d5b4b9f7a0f7eee2169bc11e7ba0b3672cfa44f3d0c1910160405180910390a1600455565b6108e0611241565b805f0361090057604051631f2a200560e01b815260040160405180910390fd5b5f61090a8261057d565b9050805f0361092c57604051631f2a200560e01b815260040160405180910390fd5b5f6109356106fe565b50600254909150610951906001600160a01b0316333086611271565b60015460025461096e916001600160a01b039182169116856112ad565b60015460405163b6b55f2560e01b8152600481018590526001600160a01b039091169063b6b55f25906024015f604051808303815f87803b1580156109b1575f5ffd5b505af11580156109c3573d5f5f3e3d5ffd5b50505f546040516340c10f1960e01b8152336004820152602481018690526001600160a01b0390911692506340c10f1991506044015f604051808303815f87803b158015610a0f575f5ffd5b505af1158015610a21573d5f5f3e3d5ffd5b505060408051868152602081018690529081018490523392507f22f6af6e13430e3e7b6418d01e6a48c1fbce5e8cb1698901fc95134b4b1c58ad91506060015b60405180910390a2505050565b610a76611241565b805f03610a9657604051631f2a200560e01b815260040160405180910390fd5b5f610aa082610ede565b9050805f03610ac257604051631f2a200560e01b815260040160405180910390fd5b5f610acb6106fe565b505f54604051632770a7eb60e21b8152336004820152602481018690529192506001600160a01b031690639dc29fac906044015f604051808303815f87803b158015610b15575f5ffd5b505af1158015610b27573d5f5f3e3d5ffd5b50506001546040516301dfad0560e71b8152336004820152602481018690526001600160a01b03909116925063efd6828091506044015f604051808303815f87803b158015610b74575f5ffd5b505af1158015610b86573d5f5f3e3d5ffd5b505060408051868152602081018690529081018490523392507f6db63bebf1e6540277744df32846ebdb98385b1a73f2d5de49b28348add63f509150606001610a61565b610bd2610f19565b60055460408051918252602082018390527fdc69c1ebd7f21dc66c736c87fb4de0dd6824633b099f73165f3b2b7bce220341910160405180910390a1600555565b610c1b610f19565b6001600160a01b038116610c4957604051631e4fbdf760e01b81525f60048201526024015b60405180910390fd5b610c5281611189565b50565b5f610c5e611327565b805490915060ff600160401b820416159067ffffffffffffffff165f81158015610c855750825b90505f8267ffffffffffffffff166001148015610ca15750303b155b905081158015610caf575080155b15610ccd5760405163f92ee8a960e01b815260040160405180910390fd5b845467ffffffffffffffff191660011785558315610cf757845460ff60401b1916600160401b1785555b6001600160a01b038a16610d1e5760405163d92e233d60e01b815260040160405180910390fd5b6001600160a01b038916610d455760405163d92e233d60e01b815260040160405180910390fd5b6001600160a01b038816610d6c5760405163d92e233d60e01b815260040160405180910390fd5b855f03610d8c57604051631f2a200560e01b815260040160405180910390fd5b610d958a611351565b610d9d611362565b5f80546001600160a01b03808c166001600160a01b03199283161790925560018054928b16929091168217905560408051631f209df760e11b81529051633e413bee916004808201926020929091908290030181865afa158015610e03573d5f5f3e3d5ffd5b505050506040513d601f19601f82011682018060405250810190610e2791906118da565b600280546001600160a01b0319166001600160a01b03928316179055871615610e6657600380546001600160a01b0319166001600160a01b0389161790555b6004869055610e10600555600780546001600160a01b0319166001600160a01b038c161790558315610ed257845460ff60401b19168555604051600181527fc7f505b2f371ae2175ee4913f4499e1f2633a7b5936321eed1cdaeb6115181d29060200160405180910390a15b50505050505050505050565b5f815f03610eff57604051631f2a200560e01b815260040160405180910390fd5b5f610f086106fe565b509050620186a06105b88285611825565b33610f4b7f9016d09d72d40fdae2fd8ceac6b6234c7706214fd39c1cd1e609a0528c199300546001600160a01b031690565b6001600160a01b0316146106145760405163118cdaa760e01b8152336004820152602401610c40565b610f7c61136a565b5f51602061192d5f395f51905f52805460ff191681557f5db9ee0a495bf2e6ff9c91a7834c1ba4fdd244a5e8aa4e537bd38aeae4b073aa335b6040516001600160a01b03909116815260200160405180910390a150565b306001600160a01b037f000000000000000000000000000000000000000000000000000000000000000016148061105957507f00000000000000000000000000000000000000000000000000000000000000006001600160a01b031661104d5f51602061190d5f395f51905f52546001600160a01b031690565b6001600160a01b031614155b156106145760405163703e46dd60e11b815260040160405180910390fd5b610c52610f19565b816001600160a01b03166352d1902d6040518163ffffffff1660e01b8152600401602060405180830381865afa9250505080156110d9575060408051601f3d908101601f191682019092526110d6918101906118f5565b60015b61110157604051634c9c8ce360e01b81526001600160a01b0383166004820152602401610c40565b5f51602061190d5f395f51905f52811461113157604051632a87526960e21b815260048101829052602401610c40565b61113b8383611399565b505050565b306001600160a01b037f000000000000000000000000000000000000000000000000000000000000000016146106145760405163703e46dd60e11b815260040160405180910390fd5b7f9016d09d72d40fdae2fd8ceac6b6234c7706214fd39c1cd1e609a0528c19930080546001600160a01b031981166001600160a01b03848116918217845560405192169182907f8be0079c531659141344cd1fd0a4f28419497f9722a3daafe3b4186f6b6457e0905f90a3505050565b611201611241565b5f51602061192d5f395f51905f52805460ff191660011781557f62e78cea01bee320cd4e420270b5ea74000d11b0c9f74754ebdbfc544b05a25833610fb5565b5f51602061192d5f395f51905f525460ff16156106145760405163d93c066560e01b815260040160405180910390fd5b61127f8484848460016113ee565b6112a757604051635274afe760e01b81526001600160a01b0385166004820152602401610c40565b50505050565b6112b98383835f61145b565b61113b576112ca83835f600161145b565b6112f257604051635274afe760e01b81526001600160a01b0384166004820152602401610c40565b6112ff838383600161145b565b61113b57604051635274afe760e01b81526001600160a01b0384166004820152602401610c40565b5f807ff0c57e16840df040f15088dc2f81fe391c3923bec73e23a9662efc9c229c6a005b92915050565b6113596114bd565b610c52816114e2565b6106146114bd565b5f51602061192d5f395f51905f525460ff1661061457604051638dfc202b60e01b815260040160405180910390fd5b6113a2826114ea565b6040516001600160a01b038316907fbc7cd75a20ee27fd9adebab32041f755214dbc6bffa90cc0225b39da2e5c2d3b905f90a28051156113e65761113b828261154d565b6105e46115ed565b6040516323b872dd60e01b5f8181526001600160a01b038781166004528616602452604485905291602083606481808c5af1925060015f5114831661144a57838315161561143e573d5f823e3d81fd5b5f883b113d1516831692505b604052505f60605295945050505050565b60405163095ea7b360e01b5f8181526001600160a01b038616600452602485905291602083604481808b5af1925060015f511483166114b15783831516156114a5573d5f823e3d81fd5b5f873b113d1516831692505b60405250949350505050565b6114c561160c565b61061457604051631afcd79f60e31b815260040160405180910390fd5b610c1b6114bd565b806001600160a01b03163b5f0361151f57604051634c9c8ce360e01b81526001600160a01b0382166004820152602401610c40565b5f51602061190d5f395f51905f5280546001600160a01b0319166001600160a01b0392909216919091179055565b60605f61155a8484611625565b905080801561157b57505f3d118061157b57505f846001600160a01b03163b115b1561159057611588611638565b91505061134b565b80156115ba57604051639996b31560e01b81526001600160a01b0385166004820152602401610c40565b3d156115cd576115c8611651565b6115e6565b60405163d6bda27560e01b815260040160405180910390fd5b5092915050565b34156106145760405163b398979f60e01b815260040160405180910390fd5b5f611615611327565b54600160401b900460ff16919050565b5f5f5f835160208501865af49392505050565b6040513d81523d5f602083013e3d602001810160405290565b6040513d5f823e3d81fd5b5f6020828403121561166c575f5ffd5b5035919050565b6001600160a01b0381168114610c52575f5ffd5b634e487b7160e01b5f52604160045260245ffd5b5f5f604083850312156116ac575f5ffd5b82356116b781611673565b9150602083013567ffffffffffffffff8111156116d2575f5ffd5b8301601f810185136116e2575f5ffd5b803567ffffffffffffffff8111156116fc576116fc611687565b604051601f8201601f19908116603f0116810167ffffffffffffffff8111828210171561172b5761172b611687565b604052818152828201602001871015611742575f5ffd5b816020840160208301375f602083830101528093505050509250929050565b5f60208284031215611771575f5ffd5b81356105c281611673565b602081525f82518060208401528060208501604085015e5f604082850101526040601f19601f83011684010191505092915050565b5f5f5f5f5f60a086880312156117c5575f5ffd5b85356117d081611673565b945060208601356117e081611673565b935060408601356117f081611673565b9250606086013561180081611673565b949793965091946080013592915050565b634e487b7160e01b5f52601160045260245ffd5b808202811582820484141761134b5761134b611811565b5f8261185657634e487b7160e01b5f52601260045260245ffd5b500490565b805169ffffffffffffffffffff81168114611874575f5ffd5b919050565b5f5f5f5f5f60a0868803121561188d575f5ffd5b6118968661185b565b602087015160408801516060890151929750909550935091506118bb6080870161185b565b90509295509295909350565b8181038181111561134b5761134b611811565b5f602082840312156118ea575f5ffd5b81516105c281611673565b5f60208284031215611905575f5ffd5b505191905056fe360894a13ba1a3210667c828492db98dca3e2076cc3735a920a3ca505d382bbccd5ed15c6e187e77e9aee88184c21f4f2182ab5827cb3b7e07fbedcd63f03300a264697066735822122068aeebd86f45556a1d94f58635e1e8e2622b4aa6fade9a41e11fa997ba80be3e64736f6c634300081c0033",
  "linkReferences": {},
  "deployedLinkReferences": {},
  "immutableReferences": {
    "1117": [
      {
        "length": 32,
        "start": 4062
      },
      {
        "length": 32,
        "start": 4103
      },
      {
        "length": 32,
        "start": 4427
      }
    ]
  },
  "inputSourceName": "project/contracts/Exchange.sol",
  "buildInfoId": "solc-0_8_28-4fa2f0c91aa9e2aa519fedff4fd080ba6156b5ef"
}