{
  "_format": "hh3-artifact-1",
  "contractName": "GLD",
  "sourceName": "contracts/GLD.sol",
  "abi": [
    {
      "inputs": [],
      "stateMutability": "nonpayable",
      "type": "constructor"
    },
    {
      "inputs": [
        {
          "internalType": "address",
          "name": "account",
          "type": "address"
        }
      ],
      "name": "AccountBlacklisted",
      "type": "error"
    },
    {
      "inputs": [
        {
          "internalType": "address",
          "name": "target",
          "type": "address"
        }
      ],
      "name": "AddressEmptyCode",
      "type": "error"
    },
    {
      "inputs": [
        {
          "internalType": "address",
          "name": "implementation",
          "type": "address"
        }
      ],
      "name": "ERC1967InvalidImplementation",
      "type": "error"
    },
    {
      "inputs": [],
      "name": "ERC1967NonPayable",
      "type": "error"
    },
    {
      "inputs": [
        {
          "internalType": "address",
          "name": "spender",
          "type": "address"
        },
        {
          "internalType": "uint256",
          "name": "allowance",
          "type": "uint256"
        },
        {
          "internalType": "uint256",
          "name": "needed",
          "type": "uint256"
        }
      ],
      "name": "ERC20InsufficientAllowance",
      "type": "error"
    },
    {
      "inputs": [
        {
          "internalType": "address",
          "name": "sender",
          "type": "address"
        },
        {
          "internalType": "uint256",
          "name": "balance",
          "type": "uint256"
        },
        {
          "internalType": "uint256",
          "name": "needed",
          "type": "uint256"
        }
      ],
      "name": "ERC20InsufficientBalance",
      "type": "error"
    },
    {
      "inputs": [
        {
          "internalType": "address",
          "name": "approver",
          "type": "address"
        }
      ],
      "name": "ERC20InvalidApprover",
      "type": "error"
    },
    {
      "inputs": [
        {
          "internalType": "address",
          "name": "receiver",
          "type": "address"
        }
      ],
      "name": "ERC20InvalidReceiver",
      "type": "error"
    },
    {
      "inputs": [
        {
          "internalType": "address",
          "name": "sender",
          "type": "address"
        }
      ],
      "name": "ERC20InvalidSender",
      "type": "error"
    },
    {
      "inputs": [
        {
          "internalType": "address",
          "name": "spender",
          "type": "address"
        }
      ],
      "name": "ERC20InvalidSpender",
      "type": "error"
    },
    {
      "inputs": [],
      "name": "EnforcedPause",
      "type": "error"
    },
    {
      "inputs": [],
      "name": "ExpectedPause",
      "type": "error"
    },
    {
      "inputs": [],
      "name": "FailedCall",
      "type": "error"
    },
    {
      "inputs": [],
      "name": "InvalidInitialization",
      "type": "error"
    },
    {
      "inputs": [],
      "name": "NotInitializing",
      "type": "error"
    },
    {
      "inputs": [
        {
          "internalType": "address",
          "name": "owner",
          "type": "address"
        }
      ],
      "name": "OwnableInvalidOwner",
      "type": "error"
    },
    {
      "inputs": [
        {
          "internalType": "address",
          "name": "account",
          "type": "address"
        }
      ],
      "name": "OwnableUnauthorizedAccount",
      "type": "error"
    },
    {
      "inputs": [],
      "name": "UUPSUnauthorizedCallContext",
      "type": "error"
    },
    {
      "inputs": [
        {
          "internalType": "bytes32",
          "name": "slot",
          "type": "bytes32"
        }
      ],
      "name": "UUPSUnsupportedProxiableUUID",
      "type": "error"
    },
    {
      "inputs": [
        {
          "internalType": "address",
          "name": "caller",
          "type": "address"
        }
      ],
      "name": "UnauthorizedMinter",
      "type": "error"
    },
    {
      "inputs": [],
      "name": "ZeroAddress",
      "type": "error"
    },
    {
      "inputs": [],
      "name": "ZeroAmount",
      "type": "error"
    },
    {
      "anonymous": false,
      "inputs": [
        {
          "indexed": true,
          "internalType": "address",
          "name": "owner",
          "type": "address"
        },
        {
          "indexed": true,
          "internalType": "address",
          "name": "spender",
          "type": "address"
        },
        {
          "indexed": false,
          "internalType": "uint256",
          "name": "value",
          "type": "uint256"
        }
      ],
      "name": "Approval",
      "type": "event"
    },
    {
      "anonymous": false,
      "inputs": [
        {
          "indexed": true,
          "internalType": "address",
          "name": "account",
          "type": "address"
        }
      ],
      "name": "Blacklisted",
      "type": "event"
    },
    {
      "anonymous": false,
      "inputs": [
        {
          "indexed": false,
          "internalType": "uint64",
          "name": "version",
          "type": "uint64"
        }
      ],
      "name": "Initialized",
      "type": "event"
    },
    {
      "anonymous": false,
      "inputs": [
        {
          "indexed": true,
          "internalType": "address",
          "name": "oldMinter",
          "type": "address"
        },
        {
          "indexed": true,
          "internalType": "address",
          "name": "newMinter",
          "type": "address"
        }
      ],
      "name": "MinterUpdated",
      "type": "event"
    },
    {
      "anonymous": false,
      "inputs": [
        {
          "indexed": true,
          "internalType": "address",
          "name": "previousOwner",
          "type": "address"
        },
        {
          "indexed": true,
          "internalType": "address",
          "name": "newOwner",
          "type": "address"
        }
      ],
      "name": "OwnershipTransferred",
      "type": "event"
    },
    {
      "anonymous": false,
      "inputs": [
        {
          "indexed": false,
          "internalType": "address",
          "name": "account",
          "type": "address"
        }
      ],
      "name": "Paused",
      "type": "event"
    },
    {
      "anonymous": false,
      "inputs": [
        {
          "indexed": true,
          "internalType": "address",
          "name": "from",
          "type": "address"
        },
        {
          "indexed": true,
          "internalType": "address",
          "name": "to",
          "type": "address"
        },
        {
          "indexed": false,
          "internalType": "uint256",
          "name": "value",
          "type": "uint256"
        }
      ],
      "name": "Transfer",
      "type": "event"
    },
    {
      "anonymous": false,
      "inputs": [
        {
          "indexed": true,
          "internalType": "address",
          "name": "account",
          "type": "address"
        }
      ],
      "name": "Unblacklisted",
      "type": "event"
    },
    {
      "anonymous": false,
      "inputs": [
        {
          "indexed": false,
          "internalType": "address",
          "name": "account",
          "type": "address"
        }
      ],
      "name": "Unpaused",
      "type": "event"
    },
    {
      "anonymous": false,
      "inputs": [
        {
          "indexed": true,
          "internalType": "address",
          "name": "implementation",
          "type": "address"
        }
      ],
      "name": "Upgraded",
      "type": "event"
    },
    {
      "inputs": [],
      "name": "UPGRADE_INTERFACE_VERSION",
      "outputs": [
        {
          "internalType": "string",
          "name": "",
          "type": "string"
        }
      ],
      "stateMutability": "view",
      "type": "function"
    },
    {
      "inputs": [
        {
          "internalType": "address",
          "name": "owner",
          "type": "address"
        },
        {
          "internalType": "address",
          "name": "spender",
          "type": "address"
        }
      ],
      "name": "allowance",
      "outputs": [
        {
          "internalType": "uint256",
          "name": "",
          "type": "uint256"
        }
      ],
      "stateMutability": "view",
      "type": "function"
    },
    {
      "inputs": [
        {
          "internalType": "address",
          "name": "spender",
          "type": "address"
        },
        {
          "internalType": "uint256",
          "name": "value",
          "type": "uint256"
        }
      ],
      "name": "approve",
      "outputs": [
        {
          "internalType": "bool",
          "name": "",
          "type": "bool"
        }
      ],
      "stateMutability": "nonpayable",
      "type": "function"
    },
    {
      "inputs": [
        {
          "internalType": "address",
          "name": "account",
          "type": "address"
        }
      ],
      "name": "balanceOf",
      "outputs": [
        {
          "internalType": "uint256",
          "name": "",
          "type": "uint256"
        }
      ],
      "stateMutability": "view",
      "type": "function"
    },
    {
      "inputs": [
        {
          "internalType": "address",
          "name": "account",
          "type": "address"
        }
      ],
      "name": "blacklist",
      "outputs": [],
      "stateMutability": "nonpayable",
      "type": "function"
    },
    {
      "inputs": [
        {
          "internalType": "address",
          "name": "from",
          "type": "address"
        },
        {
          "internalType": "uint256",
          "name": "amount",
          "type": "uint256"
        }
      ],
      "name": "burn",
      "outputs": [],
      "stateMutability": "nonpayable",
      "type": "function"
    },
    {
      "inputs": [],
      "name": "decimals",
      "outputs": [
        {
          "internalType": "uint8",
          "name": "",
          "type": "uint8"
        }
      ],
      "stateMutability": "pure",
      "type": "function"
    },
    {
      "inputs": [
        {
          "internalType": "address",
          "name": "initialOwner",
          "type": "address"
        }
      ],
      "name": "initialize",
      "outputs": [],
      "stateMutability": "nonpayable",
      "type": "function"
    },
    {
      "inputs": [
        {
          "internalType": "address",
          "name": "account",
          "type": "address"
        }
      ],
      "name": "isBlacklisted",
      "outputs": [
        {
          "internalType": "bool",
          "name": "",
          "type": "bool"
        }
      ],
      "stateMutability": "view",
      "type": "function"
    },
    {
      "inputs": [
        {
          "internalType": "address",
          "name": "to",
          "type": "address"
        },
        {
          "internalType": "uint256",
          "name": "amount",
          "type": "uint256"
        }
      ],
      "name": "mint",
      "outputs": [],
      "stateMutability": "nonpayable",
      "type": "function"
    },
    {
      "inputs": [],
      "name": "minter",
      "outputs": [
        {
          "internalType": "address",
          "name": "",
          "type": "address"
        }
      ],
      "stateMutability": "view",
      "type": "function"
    },
    {
      "inputs": [],
      "name": "name",
      "outputs": [
        {
          "internalType": "string",
          "name": "",
          "type": "string"
        }
      ],
      "stateMutability": "view",
      "type": "function"
    },
    {
      "inputs": [],
      "name": "owner",
      "outputs": [
        {
          "internalType": "address",
          "name": "",
          "type": "address"
        }
      ],
      "stateMutability": "view",
      "type": "function"
    },
    {
      "inputs": [],
      "name": "pause",
      "outputs": [],
      "stateMutability": "nonpayable",
      "type": "function"
    },
    {
      "inputs": [],
      "name": "paused",
      "outputs": [
        {
          "internalType": "bool",
          "name": "",
          "type": "bool"
        }
      ],
      "stateMutability": "view",
      "type": "function"
    },
    {
      "inputs": [],
      "name": "proxiableUUID",
      "outputs": [
        {
          "internalType": "bytes32",
          "name": "",
          "type": "bytes32"
        }
      ],
      "stateMutability": "view",
      "type": "function"
    },
    {
      "inputs": [],
      "name": "renounceOwnership",
      "outputs": [],
      "stateMutability": "nonpayable",
      "type": "function"
    },
    {
      "inputs": [
        {
          "internalType": "address",
          "name": "newMinter",
          "type": "address"
        }
      ],
      "name": "setMinter",
      "outputs": [],
      "stateMutability": "nonpayable",
      "type": "function"
    },
    {
      "inputs": [],
      "name": "symbol",
      "outputs": [
        {
          "internalType": "string",
          "name": "",
          "type": "string"
        }
      ],
      "stateMutability": "view",
      "type": "function"
    },
    {
      "inputs": [],
      "name": "totalSupply",
      "outputs": [
        {
          "internalType": "uint256",
          "name": "",
          "type": "uint256"
        }
      ],
      "stateMutability": "view",
      "type": "function"
    },
    {
      "inputs": [
        {
          "internalType": "address",
          "name": "to",
          "type": "address"
        },
        {
          "internalType": "uint256",
          "name": "value",
          "type": "uint256"
        }
      ],
      "name": "transfer",
      "outputs": [
        {
          "internalType": "bool",
          "name": "",
          "type": "bool"
        }
      ],
      "stateMutability": "nonpayable",
      "type": "function"
    },
    {
      "inputs": [
        {
          "internalType": "address",
          "name": "from",
          "type": "address"
        },
        {
          "internalType": "address",
          "name": "to",
          "type": "address"
        },
        {
          "internalType": "uint256",
          "name": "value",
          "type": "uint256"
        }
      ],
      "name": "transferFrom",
      "outputs": [
        {
          "internalType": "bool",
          "name": "",
          "type": "bool"
        }
      ],
      "stateMutability": "nonpayable",
      "type": "function"
    },
    {
      "inputs": [
        {
          "internalType": "address",
          "name": "newOwner",
          "type": "address"
        }
      ],
      "name": "transferOwnership",
      "outputs": [],
      "stateMutability": "nonpayable",
      "type": "function"
    },
    {
      "inputs": [
        {
          "internalType": "address",
          "name": "account",
          "type": "address"
        }
      ],
      "name": "unblacklist",
      "outputs": [],
      "stateMutability": "nonpayable",
      "type": "function"
    },
    {
      "inputs": [],
      "name": "unpause",
      "outputs": [],
      "stateMutability": "nonpayable",
      "type": "function"
    },
    {
      "inputs": [
        {
          "internalType": "address",
          "name": "newImplementation",
          "type": "address"
        },
        {
          "internalType": "bytes",
          "name": "data",
          "type": "bytes"
        }
      ],
      "name": "upgradeToAndCall",
      "outputs": [],
      "stateMutability": "payable",
      "type": "function"
    }
  ],
  "bytecode": "0x60a060405230608052348015610013575f5ffd5b5061001c610021565b6100d3565b7ff0c57e16840df040f15088dc2f81fe391c3923bec73e23a9662efc9c229c6a00805468010000000000000000900460ff16156100715760405163f92ee8a960e01b815260040160405180910390fd5b80546001600160401b03908116146100d05780546001600160401b0319166001600160401b0390811782556040519081527fc7f505b2f371ae2175ee4913f4499e1f2633a7b5936321eed1cdaeb6115181d29060200160405180910390a15b50565b60805161197f6100f95f395f8181610d2e01528181610d570152610e96015261197f5ff3fe60806040526004361061017b575f3560e01c806375e3661e116100cd578063ad3cb1cc11610087578063f2fde38b11610062578063f2fde38b14610460578063f9f92be41461047f578063fca3b5aa1461049e578063fe575a87146104bd575f5ffd5b8063ad3cb1cc146103f2578063c4d66de814610422578063dd62ed3e14610441575f5ffd5b806375e3661e146103595780638456cb59146103785780638da5cb5b1461038c57806395d89b41146103a05780639dc29fac146103b4578063a9059cbb146103d3575f5ffd5b80633f4ba83a1161013857806352d1902d1161011357806352d1902d146102ce5780635c975abb146102e257806370a0823114610305578063715018a614610345575f5ffd5b80633f4ba83a1461028657806340c10f191461029c5780634f1ef286146102bb575f5ffd5b806306fdde031461017f57806307546172146101a9578063095ea7b3146101e057806318160ddd1461020f57806323b872dd1461024c578063313ce5671461026b575b5f5ffd5b34801561018a575f5ffd5b506101936104f4565b6040516101a091906115a1565b60405180910390f35b3480156101b4575f5ffd5b506001546101c8906001600160a01b031681565b6040516001600160a01b0390911681526020016101a0565b3480156101eb575f5ffd5b506101ff6101fa3660046115f1565b6105b4565b60405190151581526020016101a0565b34801561021a575f5ffd5b507f52c63247e1f47db19d5ce0460030c497f067ca4cebf71ba98eeadabe20bace02545b6040519081526020016101a0565b348015610257575f5ffd5b506101ff610266366004611619565b6105cd565b348015610276575f5ffd5b50604051600381526020016101a0565b348015610291575f5ffd5b5061029a6105f0565b005b3480156102a7575f5ffd5b5061029a6102b63660046115f1565b610602565b61029a6102c9366004611667565b6106f4565b3480156102d9575f5ffd5b5061023e61070f565b3480156102ed575f5ffd5b505f51602061192a5f395f51905f525460ff166101ff565b348015610310575f5ffd5b5061023e61031f36600461172b565b6001600160a01b03165f9081525f5160206118ea5f395f51905f52602052604090205490565b348015610350575f5ffd5b5061029a61072a565b348015610364575f5ffd5b5061029a61037336600461172b565b61073b565b348015610383575f5ffd5b5061029a61078b565b348015610397575f5ffd5b506101c861079b565b3480156103ab575f5ffd5b506101936107c9565b3480156103bf575f5ffd5b5061029a6103ce3660046115f1565b610807565b3480156103de575f5ffd5b506101ff6103ed3660046115f1565b6108ac565b3480156103fd575f5ffd5b50610193604051806040016040528060058152602001640352e302e360dc1b81525081565b34801561042d575f5ffd5b5061029a61043c36600461172b565b6108b9565b34801561044c575f5ffd5b5061023e61045b36600461174b565b610a28565b34801561046b575f5ffd5b5061029a61047a36600461172b565b610a71565b34801561048a575f5ffd5b5061029a61049936600461172b565b610aae565b3480156104a9575f5ffd5b5061029a6104b836600461172b565b610b28565b3480156104c8575f5ffd5b506101ff6104d736600461172b565b6001600160a01b03165f9081526020819052604090205460ff1690565b7f52c63247e1f47db19d5ce0460030c497f067ca4cebf71ba98eeadabe20bace0380546060915f5160206118ea5f395f51905f52916105329061177c565b80601f016020809104026020016040519081016040528092919081815260200182805461055e9061177c565b80156105a95780601f10610580576101008083540402835291602001916105a9565b820191905f5260205f20905b81548152906001019060200180831161058c57829003601f168201915b505050505091505090565b5f336105c1818585610b8b565b60019150505b92915050565b5f336105da858285610b9d565b6105e5858585610c01565b506001949350505050565b6105f8610c5e565b610600610c90565b565b61060a61079b565b6001600160a01b0316336001600160a01b03161415801561063657506001546001600160a01b03163314155b1561065b5760405163a4f3966560e01b81523360048201526024015b60405180910390fd5b6001600160a01b0382166106825760405163d92e233d60e01b815260040160405180910390fd5b805f036106a257604051631f2a200560e01b815260040160405180910390fd5b6001600160a01b0382165f9081526020819052604090205460ff16156106e65760405163571f7b4960e01b81526001600160a01b0383166004820152602401610652565b6106f08282610cef565b5050565b6106fc610d23565b61070582610dc7565b6106f08282610dcf565b5f610718610e8b565b505f51602061190a5f395f51905f5290565b610732610c5e565b6106005f610ed4565b610743610c5e565b6001600160a01b0381165f81815260208190526040808220805460ff19169055517f7534c63860313c46c473e4e98328f37017e9674e2162faf1a3ad7a96236c3b7b9190a250565b610793610c5e565b610600610f44565b7f9016d09d72d40fdae2fd8ceac6b6234c7706214fd39c1cd1e609a0528c199300546001600160a01b031690565b7f52c63247e1f47db19d5ce0460030c497f067ca4cebf71ba98eeadabe20bace0480546060915f5160206118ea5f395f51905f52916105329061177c565b61080f61079b565b6001600160a01b0316336001600160a01b03161415801561083b57506001546001600160a01b03163314155b1561085b5760405163a4f3966560e01b8152336004820152602401610652565b6001600160a01b0382166108825760405163d92e233d60e01b815260040160405180910390fd5b805f036108a257604051631f2a200560e01b815260040160405180910390fd5b6106f08282610f8c565b5f336105c1818585610c01565b5f6108c2610fc0565b805490915060ff600160401b820416159067ffffffffffffffff165f811580156108e95750825b90505f8267ffffffffffffffff1660011480156109055750303b155b905081158015610913575080155b156109315760405163f92ee8a960e01b815260040160405180910390fd5b845467ffffffffffffffff19166001178555831561095b57845460ff60401b1916600160401b1785555b6001600160a01b0386166109825760405163d92e233d60e01b815260040160405180910390fd5b6109c96040518060400160405280600a81526020016923b7b632102a37b5b2b760b11b8152506040518060400160405280600381526020016211d31160ea1b815250610fe8565b6109d1610ffa565b6109da86611002565b8315610a2057845460ff60401b19168555604051600181527fc7f505b2f371ae2175ee4913f4499e1f2633a7b5936321eed1cdaeb6115181d29060200160405180910390a15b505050505050565b6001600160a01b039182165f9081527f52c63247e1f47db19d5ce0460030c497f067ca4cebf71ba98eeadabe20bace016020908152604080832093909416825291909152205490565b610a79610c5e565b6001600160a01b038116610aa257604051631e4fbdf760e01b81525f6004820152602401610652565b610aab81610ed4565b50565b610ab6610c5e565b6001600160a01b038116610add5760405163d92e233d60e01b815260040160405180910390fd5b6001600160a01b0381165f81815260208190526040808220805460ff19166001179055517fffa4e6181777692565cf28528fc88fd1516ea86b56da075235fa575af6a4b8559190a250565b610b30610c5e565b6001546040516001600160a01b038084169216907f1cf2de25c5bf439ac0287061c3a0fa69b3b02867d0ccfd2ded34e42577050b73905f90a3600180546001600160a01b0319166001600160a01b0392909216919091179055565b610b988383836001611013565b505050565b5f610ba88484610a28565b90505f19811015610bfb5781811015610bed57604051637dc7a0d960e11b81526001600160a01b03841660048201526024810182905260448101839052606401610652565b610bfb84848484035f611013565b50505050565b6001600160a01b038316610c2a57604051634b637e8f60e11b81525f6004820152602401610652565b6001600160a01b038216610c535760405163ec442f0560e01b81525f6004820152602401610652565b610b988383836110f7565b33610c6761079b565b6001600160a01b0316146106005760405163118cdaa760e01b8152336004820152602401610652565b610c986111b2565b5f51602061192a5f395f51905f52805460ff191681557f5db9ee0a495bf2e6ff9c91a7834c1ba4fdd244a5e8aa4e537bd38aeae4b073aa335b6040516001600160a01b03909116815260200160405180910390a150565b6001600160a01b038216610d185760405163ec442f0560e01b81525f6004820152602401610652565b6106f05f83836110f7565b306001600160a01b037f0000000000000000000000000000000000000000000000000000000000000000161480610da957507f00000000000000000000000000000000000000000000000000000000000000006001600160a01b0316610d9d5f51602061190a5f395f51905f52546001600160a01b031690565b6001600160a01b031614155b156106005760405163703e46dd60e11b815260040160405180910390fd5b610aab610c5e565b816001600160a01b03166352d1902d6040518163ffffffff1660e01b8152600401602060405180830381865afa925050508015610e29575060408051601f3d908101601f19168201909252610e26918101906117b4565b60015b610e5157604051634c9c8ce360e01b81526001600160a01b0383166004820152602401610652565b5f51602061190a5f395f51905f528114610e8157604051632a87526960e21b815260048101829052602401610652565b610b9883836111e1565b306001600160a01b037f000000000000000000000000000000000000000000000000000000000000000016146106005760405163703e46dd60e11b815260040160405180910390fd5b7f9016d09d72d40fdae2fd8ceac6b6234c7706214fd39c1cd1e609a0528c19930080546001600160a01b031981166001600160a01b03848116918217845560405192169182907f8be0079c531659141344cd1fd0a4f28419497f9722a3daafe3b4186f6b6457e0905f90a3505050565b610f4c611236565b5f51602061192a5f395f51905f52805460ff191660011781557f62e78cea01bee320cd4e420270b5ea74000d11b0c9f74754ebdbfc544b05a25833610cd1565b6001600160a01b038216610fb557604051634b637e8f60e11b81525f6004820152602401610652565b6106f0825f836110f7565b5f807ff0c57e16840df040f15088dc2f81fe391c3923bec73e23a9662efc9c229c6a006105c7565b610ff0611266565b6106f0828261128b565b610600611266565b61100a611266565b610aab816112db565b5f5160206118ea5f395f51905f526001600160a01b03851661104a5760405163e602df0560e01b81525f6004820152602401610652565b6001600160a01b03841661107357604051634a1406b160e11b81525f6004820152602401610652565b6001600160a01b038086165f908152600183016020908152604080832093881683529290522083905581156110f057836001600160a01b0316856001600160a01b03167f8c5be1e5ebec7d5bd14f71427d1e84f3dd0314c0f7b2291e5b200ac8c7c3b925856040516110e791815260200190565b60405180910390a35b5050505050565b6001600160a01b0383161580159061112657506001600160a01b0383165f9081526020819052604090205460ff165b1561114f5760405163571f7b4960e01b81526001600160a01b0384166004820152602401610652565b6001600160a01b0382161580159061117e57506001600160a01b0382165f9081526020819052604090205460ff165b156111a75760405163571f7b4960e01b81526001600160a01b0383166004820152602401610652565b610b988383836112e3565b5f51602061192a5f395f51905f525460ff1661060057604051638dfc202b60e01b815260040160405180910390fd5b6111ea826112f6565b6040516001600160a01b038316907fbc7cd75a20ee27fd9adebab32041f755214dbc6bffa90cc0225b39da2e5c2d3b905f90a280511561122e57610b988282611359565b6106f06113f9565b5f51602061192a5f395f51905f525460ff16156106005760405163d93c066560e01b815260040160405180910390fd5b61126e611418565b61060057604051631afcd79f60e31b815260040160405180910390fd5b611293611266565b5f5160206118ea5f395f51905f527f52c63247e1f47db19d5ce0460030c497f067ca4cebf71ba98eeadabe20bace036112cc848261180f565b5060048101610bfb838261180f565b610a79611266565b6112eb611236565b610b98838383611431565b806001600160a01b03163b5f0361132b57604051634c9c8ce360e01b81526001600160a01b0382166004820152602401610652565b5f51602061190a5f395f51905f5280546001600160a01b0319166001600160a01b0392909216919091179055565b60605f611366848461156a565b905080801561138757505f3d118061138757505f846001600160a01b03163b115b1561139c5761139461157d565b9150506105c7565b80156113c657604051639996b31560e01b81526001600160a01b0385166004820152602401610652565b3d156113d9576113d4611596565b6113f2565b60405163d6bda27560e01b815260040160405180910390fd5b5092915050565b34156106005760405163b398979f60e01b815260040160405180910390fd5b5f611421610fc0565b54600160401b900460ff16919050565b5f5160206118ea5f395f51905f526001600160a01b03841661146b5781816002015f82825461146091906118ca565b909155506114db9050565b6001600160a01b0384165f90815260208290526040902054828110156114bd5760405163391434e360e21b81526001600160a01b03861660048201526024810182905260448101849052606401610652565b6001600160a01b0385165f9081526020839052604090209083900390555b6001600160a01b0383166114f9576002810180548390039055611517565b6001600160a01b0383165f9081526020829052604090208054830190555b826001600160a01b0316846001600160a01b03167fddf252ad1be2c89b69c2b068fc378daa952ba7f163c4a11628f55a4df523b3ef8460405161155c91815260200190565b60405180910390a350505050565b5f5f5f835160208501865af49392505050565b6040513d81523d5f602083013e3d602001810160405290565b6040513d5f823e3d81fd5b602081525f82518060208401528060208501604085015e5f604082850101526040601f19601f83011684010191505092915050565b80356001600160a01b03811681146115ec575f5ffd5b919050565b5f5f60408385031215611602575f5ffd5b61160b836115d6565b946020939093013593505050565b5f5f5f6060848603121561162b575f5ffd5b611634846115d6565b9250611642602085016115d6565b929592945050506040919091013590565b634e487b7160e01b5f52604160045260245ffd5b5f5f60408385031215611678575f5ffd5b611681836115d6565b9150602083013567ffffffffffffffff81111561169c575f5ffd5b8301601f810185136116ac575f5ffd5b803567ffffffffffffffff8111156116c6576116c6611653565b604051601f8201601f19908116603f0116810167ffffffffffffffff811182821017156116f5576116f5611653565b60405281815282820160200187101561170c575f5ffd5b816020840160208301375f602083830101528093505050509250929050565b5f6020828403121561173b575f5ffd5b611744826115d6565b9392505050565b5f5f6040838503121561175c575f5ffd5b611765836115d6565b9150611773602084016115d6565b90509250929050565b600181811c9082168061179057607f821691505b6020821081036117ae57634e487b7160e01b5f52602260045260245ffd5b50919050565b5f602082840312156117c4575f5ffd5b5051919050565b601f821115610b9857805f5260205f20601f840160051c810160208510156117f05750805b601f840160051c820191505b818110156110f0575f81556001016117fc565b815167ffffffffffffffff81111561182957611829611653565b61183d81611837845461177c565b846117cb565b6020601f82116001811461186f575f83156118585750848201515b5f19600385901b1c1916600184901b1784556110f0565b5f84815260208120601f198516915b8281101561189e578785015182556020948501946001909201910161187e565b50848210156118bb57868401515f19600387901b60f8161c191681555b50505050600190811b01905550565b808201808211156105c757634e487b7160e01b5f52601160045260245ffdfe52c63247e1f47db19d5ce0460030c497f067ca4cebf71ba98eeadabe20bace00360894a13ba1a3210667c828492db98dca3e2076cc3735a920a3ca505d382bbccd5ed15c6e187e77e9aee88184c21f4f2182ab5827cb3b7e07fbedcd63f03300a26469706673582212203efe6816404e512b17d4ae08b7a0c09a644cef3e7abd818e2848a24cbc148e6864736f6c634300081c0033",
  "linkReferences": {},
  "deployedLinkReferences": {},
  "immutableReferences": {
    "1930": [
      {
        "length": 32,
        "start": 3374
      },
      {
        "length": 32,
        "start": 3415
      },
      {
        "length": 32,
        "start": 3734
      }
    ]
  },
  "inputSourceName": "project/contracts/GLD.sol",
  "buildInfoId": "solc-0_8_28-324862eece6117dd2004631bb272ab6aa9442d5b"
}