{
  "_format": "hh3-artifact-1",
  "contractName": "Reserve",
  "sourceName": "contracts/Reserve.sol",
  "abi": [
    {
      "inputs": [],
      "stateMutability": "nonpayable",
      "type": "constructor"
    },
    {
      "inputs": [
        {
          "internalType": "address",
          "name": "target",
          "type": "address"
        }
      ],
      "name": "AddressEmptyCode",
      "type": "error"
    },
    {
      "inputs": [
        {
          "internalType": "address",
          "name": "implementation",
          "type": "address"
        }
      ],
      "name": "ERC1967InvalidImplementation",
      "type": "error"
    },
    {
      "inputs": [],
      "name": "ERC1967NonPayable",
      "type": "error"
    },
    {
      "inputs": [],
      "name": "FailedCall",
      "type": "error"
    },
    {
      "inputs": [],
      "name": "InvalidInitialization",
      "type": "error"
    },
    {
      "inputs": [
        {
          "internalType": "uint256",
          "name": "ratio",
          "type": "uint256"
        }
      ],
      "name": "InvalidRatio",
      "type": "error"
    },
    {
      "inputs": [],
      "name": "NoGLDSupply",
      "type": "error"
    },
    {
      "inputs": [],
      "name": "NoPriceAvailable",
      "type": "error"
    },
    {
      "inputs": [],
      "name": "NotInitializing",
      "type": "error"
    },
    {
      "inputs": [
        {
          "internalType": "address",
          "name": "owner",
          "type": "address"
        }
      ],
      "name": "OwnableInvalidOwner",
      "type": "error"
    },
    {
      "inputs": [
        {
          "internalType": "address",
          "name": "account",
          "type": "address"
        }
      ],
      "name": "OwnableUnauthorizedAccount",
      "type": "error"
    },
    {
      "inputs": [
        {
          "internalType": "address",
          "name": "token",
          "type": "address"
        }
      ],
      "name": "SafeERC20FailedOperation",
      "type": "error"
    },
    {
      "inputs": [],
      "name": "UUPSUnauthorizedCallContext",
      "type": "error"
    },
    {
      "inputs": [
        {
          "internalType": "bytes32",
          "name": "slot",
          "type": "bytes32"
        }
      ],
      "name": "UUPSUnsupportedProxiableUUID",
      "type": "error"
    },
    {
      "inputs": [],
      "name": "ZeroAddress",
      "type": "error"
    },
    {
      "inputs": [],
      "name": "ZeroAmount",
      "type": "error"
    },
    {
      "anonymous": false,
      "inputs": [
        {
          "indexed": true,
          "internalType": "uint256",
          "name": "timestamp",
          "type": "uint256"
        },
        {
          "indexed": false,
          "internalType": "uint256",
          "name": "ratioBps",
          "type": "uint256"
        }
      ],
      "name": "ExchangePausedByReserve",
      "type": "event"
    },
    {
      "anonymous": false,
      "inputs": [
        {
          "indexed": true,
          "internalType": "uint256",
          "name": "timestamp",
          "type": "uint256"
        },
        {
          "indexed": false,
          "internalType": "uint256",
          "name": "ratioBps",
          "type": "uint256"
        }
      ],
      "name": "ExchangeUnpausedByReserve",
      "type": "event"
    },
    {
      "anonymous": false,
      "inputs": [
        {
          "indexed": false,
          "internalType": "uint64",
          "name": "version",
          "type": "uint64"
        }
      ],
      "name": "Initialized",
      "type": "event"
    },
    {
      "anonymous": false,
      "inputs": [
        {
          "indexed": false,
          "internalType": "uint256",
          "name": "oldRatio",
          "type": "uint256"
        },
        {
          "indexed": false,
          "internalType": "uint256",
          "name": "newRatio",
          "type": "uint256"
        }
      ],
      "name": "MinRatioUpdated",
      "type": "event"
    },
    {
      "anonymous": false,
      "inputs": [
        {
          "indexed": false,
          "internalType": "uint256",
          "name": "oldMaxAge",
          "type": "uint256"
        },
        {
          "indexed": false,
          "internalType": "uint256",
          "name": "newMaxAge",
          "type": "uint256"
        }
      ],
      "name": "OracleMaxAgeUpdated",
      "type": "event"
    },
    {
      "anonymous": false,
      "inputs": [
        {
          "indexed": true,
          "internalType": "address",
          "name": "oldOracle",
          "type": "address"
        },
        {
          "indexed": true,
          "internalType": "address",
          "name": "newOracle",
          "type": "address"
        }
      ],
      "name": "OracleUpdated",
      "type": "event"
    },
    {
      "anonymous": false,
      "inputs": [
        {
          "indexed": true,
          "internalType": "address",
          "name": "previousOwner",
          "type": "address"
        },
        {
          "indexed": true,
          "internalType": "address",
          "name": "newOwner",
          "type": "address"
        }
      ],
      "name": "OwnershipTransferred",
      "type": "event"
    },
    {
      "anonymous": false,
      "inputs": [
        {
          "indexed": true,
          "internalType": "address",
          "name": "by",
          "type": "address"
        },
        {
          "indexed": false,
          "internalType": "uint256",
          "name": "amount",
          "type": "uint256"
        },
        {
          "indexed": false,
          "internalType": "uint256",
          "name": "newRatioBps",
          "type": "uint256"
        }
      ],
      "name": "Recapitalized",
      "type": "event"
    },
    {
      "anonymous": false,
      "inputs": [
        {
          "indexed": true,
          "internalType": "uint256",
          "name": "timestamp",
          "type": "uint256"
        },
        {
          "indexed": false,
          "internalType": "uint256",
          "name": "usdcReserve",
          "type": "uint256"
        },
        {
          "indexed": false,
          "internalType": "uint256",
          "name": "gldSupply",
          "type": "uint256"
        },
        {
          "indexed": false,
          "internalType": "uint256",
          "name": "goldValueUsdc",
          "type": "uint256"
        },
        {
          "indexed": false,
          "internalType": "uint256",
          "name": "ratioBps",
          "type": "uint256"
        },
        {
          "indexed": false,
          "internalType": "bool",
          "name": "healthy",
          "type": "bool"
        }
      ],
      "name": "ReserveChecked",
      "type": "event"
    },
    {
      "anonymous": false,
      "inputs": [
        {
          "indexed": true,
          "internalType": "uint256",
          "name": "timestamp",
          "type": "uint256"
        },
        {
          "indexed": false,
          "internalType": "uint256",
          "name": "deficit",
          "type": "uint256"
        },
        {
          "indexed": false,
          "internalType": "uint256",
          "name": "ratioBps",
          "type": "uint256"
        },
        {
          "indexed": false,
          "internalType": "uint256",
          "name": "minRatioBps",
          "type": "uint256"
        }
      ],
      "name": "ReserveDeficit",
      "type": "event"
    },
    {
      "anonymous": false,
      "inputs": [
        {
          "indexed": true,
          "internalType": "address",
          "name": "implementation",
          "type": "address"
        }
      ],
      "name": "Upgraded",
      "type": "event"
    },
    {
      "inputs": [],
      "name": "BASIS_POINTS",
      "outputs": [
        {
          "internalType": "uint256",
          "name": "",
          "type": "uint256"
        }
      ],
      "stateMutability": "view",
      "type": "function"
    },
    {
      "inputs": [],
      "name": "DEFAULT_MIN_RATIO",
      "outputs": [
        {
          "internalType": "uint256",
          "name": "",
          "type": "uint256"
        }
      ],
      "stateMutability": "view",
      "type": "function"
    },
    {
      "inputs": [],
      "name": "UPGRADE_INTERFACE_VERSION",
      "outputs": [
        {
          "internalType": "string",
          "name": "",
          "type": "string"
        }
      ],
      "stateMutability": "view",
      "type": "function"
    },
    {
      "inputs": [],
      "name": "checkReserve",
      "outputs": [
        {
          "internalType": "uint256",
          "name": "usdcReserve",
          "type": "uint256"
        },
        {
          "internalType": "uint256",
          "name": "gldSupply",
          "type": "uint256"
        },
        {
          "internalType": "uint256",
          "name": "goldValueUsdc",
          "type": "uint256"
        },
        {
          "internalType": "uint256",
          "name": "ratioBps",
          "type": "uint256"
        }
      ],
      "stateMutability": "view",
      "type": "function"
    },
    {
      "inputs": [],
      "name": "exchange",
      "outputs": [
        {
          "internalType": "contract IExchange",
          "name": "",
          "type": "address"
        }
      ],
      "stateMutability": "view",
      "type": "function"
    },
    {
      "inputs": [],
      "name": "getPrice",
      "outputs": [
        {
          "internalType": "uint256",
          "name": "price",
          "type": "uint256"
        }
      ],
      "stateMutability": "view",
      "type": "function"
    },
    {
      "inputs": [],
      "name": "getReserveStatus",
      "outputs": [
        {
          "internalType": "uint256",
          "name": "usdcReserve",
          "type": "uint256"
        },
        {
          "internalType": "uint256",
          "name": "gldSupply",
          "type": "uint256"
        },
        {
          "internalType": "uint256",
          "name": "goldValueUsdc",
          "type": "uint256"
        },
        {
          "internalType": "uint256",
          "name": "ratioBps",
          "type": "uint256"
        },
        {
          "internalType": "uint256",
          "name": "minRatio",
          "type": "uint256"
        },
        {
          "internalType": "bool",
          "name": "healthy",
          "type": "bool"
        },
        {
          "internalType": "bool",
          "name": "exchangePaused",
          "type": "bool"
        },
        {
          "internalType": "uint256",
          "name": "price",
          "type": "uint256"
        },
        {
          "internalType": "uint256",
          "name": "deficitUsdc",
          "type": "uint256"
        }
      ],
      "stateMutability": "view",
      "type": "function"
    },
    {
      "inputs": [],
      "name": "gld",
      "outputs": [
        {
          "internalType": "contract IGLDReserve",
          "name": "",
          "type": "address"
        }
      ],
      "stateMutability": "view",
      "type": "function"
    },
    {
      "inputs": [
        {
          "internalType": "address",
          "name": "initialOwner",
          "type": "address"
        },
        {
          "internalType": "address",
          "name": "gldAddress",
          "type": "address"
        },
        {
          "internalType": "address",
          "name": "treasuryAddress",
          "type": "address"
        },
        {
          "internalType": "address",
          "name": "exchangeAddress",
          "type": "address"
        },
        {
          "internalType": "address",
          "name": "oracleAddress",
          "type": "address"
        },
        {
          "internalType": "uint256",
          "name": "initMinRatio",
          "type": "uint256"
        }
      ],
      "name": "initialize",
      "outputs": [],
      "stateMutability": "nonpayable",
      "type": "function"
    },
    {
      "inputs": [],
      "name": "isHealthy",
      "outputs": [
        {
          "internalType": "bool",
          "name": "",
          "type": "bool"
        }
      ],
      "stateMutability": "view",
      "type": "function"
    },
    {
      "inputs": [],
      "name": "lastCheckAt",
      "outputs": [
        {
          "internalType": "uint256",
          "name": "",
          "type": "uint256"
        }
      ],
      "stateMutability": "view",
      "type": "function"
    },
    {
      "inputs": [],
      "name": "lastCheckHealthy",
      "outputs": [
        {
          "internalType": "bool",
          "name": "",
          "type": "bool"
        }
      ],
      "stateMutability": "view",
      "type": "function"
    },
    {
      "inputs": [],
      "name": "minRatioBps",
      "outputs": [
        {
          "internalType": "uint256",
          "name": "",
          "type": "uint256"
        }
      ],
      "stateMutability": "view",
      "type": "function"
    },
    {
      "inputs": [],
      "name": "oracle",
      "outputs": [
        {
          "internalType": "contract IOracle",
          "name": "",
          "type": "address"
        }
      ],
      "stateMutability": "view",
      "type": "function"
    },
    {
      "inputs": [],
      "name": "oracleMaxAge",
      "outputs": [
        {
          "internalType": "uint256",
          "name": "",
          "type": "uint256"
        }
      ],
      "stateMutability": "view",
      "type": "function"
    },
    {
      "inputs": [],
      "name": "owner",
      "outputs": [
        {
          "internalType": "address",
          "name": "",
          "type": "address"
        }
      ],
      "stateMutability": "view",
      "type": "function"
    },
    {
      "inputs": [],
      "name": "proofOfReserve",
      "outputs": [],
      "stateMutability": "nonpayable",
      "type": "function"
    },
    {
      "inputs": [],
      "name": "proxiableUUID",
      "outputs": [
        {
          "internalType": "bytes32",
          "name": "",
          "type": "bytes32"
        }
      ],
      "stateMutability": "view",
      "type": "function"
    },
    {
      "inputs": [
        {
          "internalType": "uint256",
          "name": "amount",
          "type": "uint256"
        }
      ],
      "name": "recapitalize",
      "outputs": [],
      "stateMutability": "nonpayable",
      "type": "function"
    },
    {
      "inputs": [],
      "name": "renounceOwnership",
      "outputs": [],
      "stateMutability": "nonpayable",
      "type": "function"
    },
    {
      "inputs": [
        {
          "internalType": "uint256",
          "name": "newPrice",
          "type": "uint256"
        }
      ],
      "name": "setExchangeFallbackPrice",
      "outputs": [],
      "stateMutability": "nonpayable",
      "type": "function"
    },
    {
      "inputs": [
        {
          "internalType": "address",
          "name": "newOracle",
          "type": "address"
        }
      ],
      "name": "setExchangeOracle",
      "outputs": [],
      "stateMutability": "nonpayable",
      "type": "function"
    },
    {
      "inputs": [
        {
          "internalType": "address",
          "name": "newOwner",
          "type": "address"
        }
      ],
      "name": "setExchangeOwner",
      "outputs": [],
      "stateMutability": "nonpayable",
      "type": "function"
    },
    {
      "inputs": [
        {
          "internalType": "address",
          "name": "newTreasury",
          "type": "address"
        }
      ],
      "name": "setExchangeTreasury",
      "outputs": [],
      "stateMutability": "nonpayable",
      "type": "function"
    },
    {
      "inputs": [
        {
          "internalType": "uint256",
          "name": "newRatioBps",
          "type": "uint256"
        }
      ],
      "name": "setMinRatio",
      "outputs": [],
      "stateMutability": "nonpayable",
      "type": "function"
    },
    {
      "inputs": [
        {
          "internalType": "address",
          "name": "newOracle",
          "type": "address"
        }
      ],
      "name": "setOracle",
      "outputs": [],
      "stateMutability": "nonpayable",
      "type": "function"
    },
    {
      "inputs": [
        {
          "internalType": "uint256",
          "name": "newMaxAge",
          "type": "uint256"
        }
      ],
      "name": "setOracleMaxAge",
      "outputs": [],
      "stateMutability": "nonpayable",
      "type": "function"
    },
    {
      "inputs": [
        {
          "internalType": "address",
          "name": "newOwner",
          "type": "address"
        }
      ],
      "name": "transferOwnership",
      "outputs": [],
      "stateMutability": "nonpayable",
      "type": "function"
    },
    {
      "inputs": [],
      "name": "treasury",
      "outputs": [
        {
          "internalType": "contract ITreasuryReserve",
          "name": "",
          "type": "address"
        }
      ],
      "stateMutability": "view",
      "type": "function"
    },
    {
      "inputs": [
        {
          "internalType": "address",
          "name": "newImplementation",
          "type": "address"
        },
        {
          "internalType": "bytes",
          "name": "data",
          "type": "bytes"
        }
      ],
      "name": "upgradeToAndCall",
      "outputs": [],
      "stateMutability": "payable",
      "type": "function"
    }
  ],
  "bytecode": "0x60a060405230608052348015610013575f5ffd5b5061001c610021565b6100d3565b7ff0c57e16840df040f15088dc2f81fe391c3923bec73e23a9662efc9c229c6a00805468010000000000000000900460ff16156100715760405163f92ee8a960e01b815260040160405180910390fd5b80546001600160401b03908116146100d05780546001600160401b0319166001600160401b0390811782556040519081527fc7f505b2f371ae2175ee4913f4499e1f2633a7b5936321eed1cdaeb6115181d29060200160405180910390a15b50565b608051611d736100f95f395f81816115230152818161154c015261168b0152611d735ff3fe6080604052600436106101c5575f3560e01c806395b6ef0c116100f2578063d2f7265a11610092578063ec029a4411610062578063ec029a4414610532578063eecc5be214610551578063f0218a9414610566578063f2fde38b14610585575f5ffd5b8063d2f7265a146104cb578063e1ac7cfe146104ea578063e1f1c4a71461045b578063e40208041461051e575f5ffd5b80639f97ee60116100cd5780639f97ee601461043c578063a097f3091461045b578063a589b33414610470578063ad3cb1cc1461048e575f5ffd5b806395b6ef0c146103f457806398d5fdca146104135780639c56b27214610427575f5ffd5b806353971dd311610168578063715018a611610138578063715018a6146103665780637adbf9731461037a5780637dc0d1d0146103995780638da5cb5b146103b8575f5ffd5b806353971dd31461029f578063564ed5ee146102b4578063572a97dc1461031057806361d027b31461032f575f5ffd5b80632be52293116101a35780632be522931461022c57806349b66a801461024b5780634f1ef2861461026a57806352d1902d1461027d575f5ffd5b80630c47d267146101c95780631fbfe658146101ea5780632740af7c14610218575b5f5ffd5b3480156101d4575f5ffd5b506101e86101e3366004611a37565b6105a4565b005b3480156101f5575f5ffd5b506007546102039060ff1681565b60405190151581526020015b60405180910390f35b348015610223575f5ffd5b506101e8610834565b348015610237575f5ffd5b506101e8610246366004611a62565b610b61565b348015610256575f5ffd5b506101e8610265366004611a62565b610bc0565b6101e8610278366004611a98565b610bfa565b348015610288575f5ffd5b50610291610c19565b60405190815260200161020f565b3480156102aa575f5ffd5b5061029160065481565b3480156102bf575f5ffd5b506102c8610c34565b60408051998a5260208a01989098529688019590955260608701939093526080860191909152151560a0850152151560c084015260e08301526101008201526101200161020f565b34801561031b575f5ffd5b506101e861032a366004611a62565b610d21565b34801561033a575f5ffd5b5060015461034e906001600160a01b031681565b6040516001600160a01b03909116815260200161020f565b348015610371575f5ffd5b506101e8610d5b565b348015610385575f5ffd5b506101e8610394366004611a62565b610d6e565b3480156103a4575f5ffd5b5060035461034e906001600160a01b031681565b3480156103c3575f5ffd5b507f9016d09d72d40fdae2fd8ceac6b6234c7706214fd39c1cd1e609a0528c199300546001600160a01b031661034e565b3480156103ff575f5ffd5b506101e861040e366004611b5e565b610dd1565b34801561041e575f5ffd5b50610291611014565b348015610432575f5ffd5b5061029160055481565b348015610447575f5ffd5b506101e8610456366004611a37565b61115b565b348015610466575f5ffd5b5061029161271081565b34801561047b575f5ffd5b505f5461034e906001600160a01b031681565b348015610499575f5ffd5b506104be604051806040016040528060058152602001640352e302e360dc1b81525081565b60405161020f9190611bd3565b3480156104d6575f5ffd5b5060025461034e906001600160a01b031681565b3480156104f5575f5ffd5b506104fe611194565b60408051948552602085019390935291830152606082015260800161020f565b348015610529575f5ffd5b506102036112f2565b34801561053d575f5ffd5b506101e861054c366004611a37565b61130a565b34801561055c575f5ffd5b5061029160045481565b348015610571575f5ffd5b506101e8610580366004611a37565b611382565b348015610590575f5ffd5b506101e861059f366004611a62565b6113cb565b6105ac611408565b805f036105cc57604051631f2a200560e01b815260040160405180910390fd5b60015460408051631f209df760e11b815290515f926001600160a01b031691633e413bee9160048083019260209291908290030181865afa158015610613573d5f5f3e3d5ffd5b505050506040513d601f19601f820116820180604052508101906106379190611c08565b90508061064f6001600160a01b038216333086611463565b600154610669906001600160a01b03838116911685611499565b600154604051632f663a8960e11b8152600481018590526001600160a01b0390911690635ecc7512906024015f604051808303815f87803b1580156106ac575f5ffd5b505af11580156106be573d5f5f3e3d5ffd5b505050505f6106cb611194565b604080518981526020810183905281519296503395507f1fee765e80ddaf742ff398712668092546689ad5b99733e879e8baf04a9800179450829003019150a2600454811015801561078c575060025f9054906101000a90046001600160a01b03166001600160a01b0316635c975abb6040518163ffffffff1660e01b8152600401602060405180830381865afa158015610768573d5f5f3e3d5ffd5b505050506040513d601f19601f8201168201806040525081019061078c9190611c23565b1561082e5760025f9054906101000a90046001600160a01b03166001600160a01b0316633f4ba83a6040518163ffffffff1660e01b81526004015f604051808303815f87803b1580156107dd575f5ffd5b505af11580156107ef573d5f5f3e3d5ffd5b50505050427fd9e5e6ee504cfba36c7b8913400b667468850073114254e604ebfd124e1ae1638260405161082591815260200190565b60405180910390a25b50505050565b5f5f5f5f610840611194565b6004544260068190556007805460ff1916928410159283179055604080518781526020810187905290810185905260608101849052608081018390529599509397509195509350917febe8de9da4d3668ba0df3bf4576fefbb2c084f6f17fe72703e4165722a8bbc079060a00160405180910390a280610a44575f85612710600454866108cd9190611c56565b6108d79190611c6d565b6108e19190611c8c565b6004546040805183815260208101879052808201929092525191925042917f46508c14c5deb1fc9126b7d576dbded816dd3c8774635707894a1b6426654c049181900360600190a260025f9054906101000a90046001600160a01b03166001600160a01b0316635c975abb6040518163ffffffff1660e01b8152600401602060405180830381865afa158015610979573d5f5f3e3d5ffd5b505050506040513d601f19601f8201168201806040525081019061099d9190611c23565b610a3e5760025f9054906101000a90046001600160a01b03166001600160a01b0316638456cb596040518163ffffffff1660e01b81526004015f604051808303815f87803b1580156109ed575f5ffd5b505af11580156109ff573d5f5f3e3d5ffd5b50505050427f1d887312f96636242c14964fa6035cc795d171eb37411d7f88a4c2036f6cba3d84604051610a3591815260200190565b60405180910390a25b50610b5a565b60025f9054906101000a90046001600160a01b03166001600160a01b0316635c975abb6040518163ffffffff1660e01b8152600401602060405180830381865afa158015610a94573d5f5f3e3d5ffd5b505050506040513d601f19601f82011682018060405250810190610ab89190611c23565b15610b5a5760025f9054906101000a90046001600160a01b03166001600160a01b0316633f4ba83a6040518163ffffffff1660e01b81526004015f604051808303815f87803b158015610b09575f5ffd5b505af1158015610b1b573d5f5f3e3d5ffd5b50505050427fd9e5e6ee504cfba36c7b8913400b667468850073114254e604ebfd124e1ae16383604051610b5191815260200190565b60405180910390a25b5050505050565b610b69611408565b600254604051637adbf97360e01b81526001600160a01b03838116600483015290911690637adbf973906024015b5f604051808303815f87803b158015610bae575f5ffd5b505af1158015610b5a573d5f5f3e3d5ffd5b610bc8611408565b60025460405163f2fde38b60e01b81526001600160a01b0383811660048301529091169063f2fde38b90602401610b97565b610c02611518565b610c0b826115bc565b610c1582826115c4565b5050565b5f610c22611680565b505f516020611d1e5f395f51905f5290565b5f5f5f5f5f5f5f5f5f610c45611194565b809950819a50829b50839c50505050506004549450600454861015935060025f9054906101000a90046001600160a01b03166001600160a01b0316635c975abb6040518163ffffffff1660e01b8152600401602060405180830381865afa158015610cb2573d5f5f3e3d5ffd5b505050506040513d601f19601f82011682018060405250810190610cd69190611c23565b9250610ce0611014565b915083610d12578861271060045489610cf99190611c56565b610d039190611c6d565b610d0d9190611c8c565b610d14565b5f5b9050909192939495969798565b610d29611408565b600254604051630787a21360e51b81526001600160a01b0383811660048301529091169063f0f4426090602401610b97565b610d63611408565b610d6c5f6116c9565b565b610d76611408565b6003546040516001600160a01b038084169216907f078c3b417dadf69374a59793b829c52001247130433427049317bde56607b1b7905f90a3600380546001600160a01b0319166001600160a01b0392909216919091179055565b5f610dda611739565b805490915060ff600160401b820416159067ffffffffffffffff165f81158015610e015750825b90505f8267ffffffffffffffff166001148015610e1d5750303b155b905081158015610e2b575080155b15610e495760405163f92ee8a960e01b815260040160405180910390fd5b845467ffffffffffffffff191660011785558315610e7357845460ff60401b1916600160401b1785555b6001600160a01b038b16610e9a5760405163d92e233d60e01b815260040160405180910390fd5b6001600160a01b038a16610ec15760405163d92e233d60e01b815260040160405180910390fd5b6001600160a01b038916610ee85760405163d92e233d60e01b815260040160405180910390fd5b6001600160a01b038816610f0f5760405163d92e233d60e01b815260040160405180910390fd5b851580610f1d5750614e2086115b15610f435760405163046a85ef60e31b8152600481018790526024015b60405180910390fd5b610f4c8b611763565b5f80546001600160a01b03808d166001600160a01b031992831617909255600180548c8416908316179055600280548b84169216919091179055871615610fa957600380546001600160a01b0319166001600160a01b0389161790555b6004869055610e106005556007805460ff19166001179055831561100757845460ff60401b19168555604051600181527fc7f505b2f371ae2175ee4913f4499e1f2633a7b5936321eed1cdaeb6115181d29060200160405180910390a15b5050505050505050505050565b6003545f906001600160a01b0316156110c95760035f9054906101000a90046001600160a01b03166001600160a01b031663feaf968c6040518163ffffffff1660e01b815260040160a060405180830381865afa925050508015611095575060408051601f3d908101601f1916820190925261109291810190611cb8565b60015b156110c9575f841380156110b457506005546110b18342611c8c565b11155b156110c3575091949350505050565b50505050505b600254604080516371450dc360e11b815290515f926001600160a01b03169163e28a1b869160048083019260209291908290030181865afa158015611110573d5f5f3e3d5ffd5b505050506040513d601f19601f820116820180604052508101906111349190611d06565b9050805f0361115657604051631821d12360e31b815260040160405180910390fd5b919050565b611163611408565b60025460405163ce4391df60e01b8152600481018390526001600160a01b039091169063ce4391df90602401610b97565b5f5f5f5f60015f9054906101000a90046001600160a01b03166001600160a01b031663ff50abdc6040518163ffffffff1660e01b8152600401602060405180830381865afa1580156111e8573d5f5f3e3d5ffd5b505050506040513d601f19601f8201168201806040525081019061120c9190611d06565b93505f5f9054906101000a90046001600160a01b03166001600160a01b03166318160ddd6040518163ffffffff1660e01b8152600401602060405180830381865afa15801561125d573d5f5f3e3d5ffd5b505050506040513d601f19601f820116820180604052508101906112819190611d06565b9250825f0361129857505f91508190505f196112ec565b5f6112a1611014565b9050620186a06112b18286611c56565b6112bb9190611c6d565b9250825f036112d157505f91505f1990506112ec565b826112de61271087611c56565b6112e89190611c6d565b9150505b90919293565b5f5f6112fc611194565b600454111595945050505050565b611312611408565b8015806113205750614e2081115b156113415760405163046a85ef60e31b815260048101829052602401610f3a565b60045460408051918252602082018390527fe6b782a9c9128bdb75a3f0fc9d04e645b2b76ae80620e5ae506efbc4cbbce3e5910160405180910390a1600455565b61138a611408565b60055460408051918252602082018390527fdc69c1ebd7f21dc66c736c87fb4de0dd6824633b099f73165f3b2b7bce220341910160405180910390a1600555565b6113d3611408565b6001600160a01b0381166113fc57604051631e4fbdf760e01b81525f6004820152602401610f3a565b611405816116c9565b50565b3361143a7f9016d09d72d40fdae2fd8ceac6b6234c7706214fd39c1cd1e609a0528c199300546001600160a01b031690565b6001600160a01b031614610d6c5760405163118cdaa760e01b8152336004820152602401610f3a565b611471848484846001611774565b61082e57604051635274afe760e01b81526001600160a01b0385166004820152602401610f3a565b6114a58383835f6117e1565b611513576114b683835f60016117e1565b6114de57604051635274afe760e01b81526001600160a01b0384166004820152602401610f3a565b6114eb83838360016117e1565b61151357604051635274afe760e01b81526001600160a01b0384166004820152602401610f3a565b505050565b306001600160a01b037f000000000000000000000000000000000000000000000000000000000000000016148061159e57507f00000000000000000000000000000000000000000000000000000000000000006001600160a01b03166115925f516020611d1e5f395f51905f52546001600160a01b031690565b6001600160a01b031614155b15610d6c5760405163703e46dd60e11b815260040160405180910390fd5b611405611408565b816001600160a01b03166352d1902d6040518163ffffffff1660e01b8152600401602060405180830381865afa92505050801561161e575060408051601f3d908101601f1916820190925261161b91810190611d06565b60015b61164657604051634c9c8ce360e01b81526001600160a01b0383166004820152602401610f3a565b5f516020611d1e5f395f51905f52811461167657604051632a87526960e21b815260048101829052602401610f3a565b6115138383611843565b306001600160a01b037f00000000000000000000000000000000000000000000000000000000000000001614610d6c5760405163703e46dd60e11b815260040160405180910390fd5b7f9016d09d72d40fdae2fd8ceac6b6234c7706214fd39c1cd1e609a0528c19930080546001600160a01b031981166001600160a01b03848116918217845560405192169182907f8be0079c531659141344cd1fd0a4f28419497f9722a3daafe3b4186f6b6457e0905f90a3505050565b5f807ff0c57e16840df040f15088dc2f81fe391c3923bec73e23a9662efc9c229c6a005b92915050565b61176b611898565b611405816118bd565b6040516323b872dd60e01b5f8181526001600160a01b038781166004528616602452604485905291602083606481808c5af1925060015f511483166117d05783831516156117c4573d5f823e3d81fd5b5f883b113d1516831692505b604052505f60605295945050505050565b60405163095ea7b360e01b5f8181526001600160a01b038616600452602485905291602083604481808b5af1925060015f5114831661183757838315161561182b573d5f823e3d81fd5b5f873b113d1516831692505b60405250949350505050565b61184c826118c5565b6040516001600160a01b038316907fbc7cd75a20ee27fd9adebab32041f755214dbc6bffa90cc0225b39da2e5c2d3b905f90a2805115611890576115138282611928565b610c156119c8565b6118a06119e7565b610d6c57604051631afcd79f60e31b815260040160405180910390fd5b6113d3611898565b806001600160a01b03163b5f036118fa57604051634c9c8ce360e01b81526001600160a01b0382166004820152602401610f3a565b5f516020611d1e5f395f51905f5280546001600160a01b0319166001600160a01b0392909216919091179055565b60605f6119358484611a00565b905080801561195657505f3d118061195657505f846001600160a01b03163b115b1561196b57611963611a13565b91505061175d565b801561199557604051639996b31560e01b81526001600160a01b0385166004820152602401610f3a565b3d156119a8576119a3611a2c565b6119c1565b60405163d6bda27560e01b815260040160405180910390fd5b5092915050565b3415610d6c5760405163b398979f60e01b815260040160405180910390fd5b5f6119f0611739565b54600160401b900460ff16919050565b5f5f5f835160208501865af49392505050565b6040513d81523d5f602083013e3d602001810160405290565b6040513d5f823e3d81fd5b5f60208284031215611a47575f5ffd5b5035919050565b6001600160a01b0381168114611405575f5ffd5b5f60208284031215611a72575f5ffd5b8135611a7d81611a4e565b9392505050565b634e487b7160e01b5f52604160045260245ffd5b5f5f60408385031215611aa9575f5ffd5b8235611ab481611a4e565b9150602083013567ffffffffffffffff811115611acf575f5ffd5b8301601f81018513611adf575f5ffd5b803567ffffffffffffffff811115611af957611af9611a84565b604051601f8201601f19908116603f0116810167ffffffffffffffff81118282101715611b2857611b28611a84565b604052818152828201602001871015611b3f575f5ffd5b816020840160208301375f602083830101528093505050509250929050565b5f5f5f5f5f5f60c08789031215611b73575f5ffd5b8635611b7e81611a4e565b95506020870135611b8e81611a4e565b94506040870135611b9e81611a4e565b93506060870135611bae81611a4e565b92506080870135611bbe81611a4e565b9598949750929591949360a090920135925050565b602081525f82518060208401528060208501604085015e5f604082850101526040601f19601f83011684010191505092915050565b5f60208284031215611c18575f5ffd5b8151611a7d81611a4e565b5f60208284031215611c33575f5ffd5b81518015158114611a7d575f5ffd5b634e487b7160e01b5f52601160045260245ffd5b808202811582820484141761175d5761175d611c42565b5f82611c8757634e487b7160e01b5f52601260045260245ffd5b500490565b8181038181111561175d5761175d611c42565b805169ffffffffffffffffffff81168114611156575f5ffd5b5f5f5f5f5f60a08688031215611ccc575f5ffd5b611cd586611c9f565b60208701516040880151606089015192975090955093509150611cfa60808701611c9f565b90509295509295909350565b5f60208284031215611d16575f5ffd5b505191905056fe360894a13ba1a3210667c828492db98dca3e2076cc3735a920a3ca505d382bbca2646970667358221220760987409ca4a055e8df91c78e0b2f7d936a9c619f047d7c963a479b7d5526bb64736f6c634300081c0033",
  "linkReferences": {},
  "deployedLinkReferences": {},
  "immutableReferences": {
    "957": [
      {
        "length": 32,
        "start": 5411
      },
      {
        "length": 32,
        "start": 5452
      },
      {
        "length": 32,
        "start": 5771
      }
    ]
  },
  "inputSourceName": "project/contracts/Reserve.sol",
  "buildInfoId": "solc-0_8_28-bc8c576aec9c65e10523cb27f7829e4de0810531"
}