{
  "_format": "hh3-artifact-1",
  "contractName": "Reserve",
  "sourceName": "contracts/Reserve.sol",
  "abi": [
    {
      "inputs": [],
      "stateMutability": "nonpayable",
      "type": "constructor"
    },
    {
      "inputs": [
        {
          "internalType": "address",
          "name": "target",
          "type": "address"
        }
      ],
      "name": "AddressEmptyCode",
      "type": "error"
    },
    {
      "inputs": [
        {
          "internalType": "address",
          "name": "implementation",
          "type": "address"
        }
      ],
      "name": "ERC1967InvalidImplementation",
      "type": "error"
    },
    {
      "inputs": [],
      "name": "ERC1967NonPayable",
      "type": "error"
    },
    {
      "inputs": [],
      "name": "FailedCall",
      "type": "error"
    },
    {
      "inputs": [],
      "name": "InvalidInitialization",
      "type": "error"
    },
    {
      "inputs": [
        {
          "internalType": "uint256",
          "name": "ratio",
          "type": "uint256"
        }
      ],
      "name": "InvalidRatio",
      "type": "error"
    },
    {
      "inputs": [],
      "name": "NoGLDSupply",
      "type": "error"
    },
    {
      "inputs": [],
      "name": "NoPriceAvailable",
      "type": "error"
    },
    {
      "inputs": [],
      "name": "NotInitializing",
      "type": "error"
    },
    {
      "inputs": [
        {
          "internalType": "address",
          "name": "owner",
          "type": "address"
        }
      ],
      "name": "OwnableInvalidOwner",
      "type": "error"
    },
    {
      "inputs": [
        {
          "internalType": "address",
          "name": "account",
          "type": "address"
        }
      ],
      "name": "OwnableUnauthorizedAccount",
      "type": "error"
    },
    {
      "inputs": [
        {
          "internalType": "address",
          "name": "token",
          "type": "address"
        }
      ],
      "name": "SafeERC20FailedOperation",
      "type": "error"
    },
    {
      "inputs": [],
      "name": "UUPSUnauthorizedCallContext",
      "type": "error"
    },
    {
      "inputs": [
        {
          "internalType": "bytes32",
          "name": "slot",
          "type": "bytes32"
        }
      ],
      "name": "UUPSUnsupportedProxiableUUID",
      "type": "error"
    },
    {
      "inputs": [],
      "name": "ZeroAddress",
      "type": "error"
    },
    {
      "inputs": [],
      "name": "ZeroAmount",
      "type": "error"
    },
    {
      "anonymous": false,
      "inputs": [
        {
          "indexed": true,
          "internalType": "uint256",
          "name": "timestamp",
          "type": "uint256"
        },
        {
          "indexed": false,
          "internalType": "uint256",
          "name": "ratioBps",
          "type": "uint256"
        }
      ],
      "name": "ExchangePausedByReserve",
      "type": "event"
    },
    {
      "anonymous": false,
      "inputs": [
        {
          "indexed": true,
          "internalType": "uint256",
          "name": "timestamp",
          "type": "uint256"
        },
        {
          "indexed": false,
          "internalType": "uint256",
          "name": "ratioBps",
          "type": "uint256"
        }
      ],
      "name": "ExchangeUnpausedByReserve",
      "type": "event"
    },
    {
      "anonymous": false,
      "inputs": [
        {
          "indexed": false,
          "internalType": "uint64",
          "name": "version",
          "type": "uint64"
        }
      ],
      "name": "Initialized",
      "type": "event"
    },
    {
      "anonymous": false,
      "inputs": [
        {
          "indexed": false,
          "internalType": "uint256",
          "name": "oldRatio",
          "type": "uint256"
        },
        {
          "indexed": false,
          "internalType": "uint256",
          "name": "newRatio",
          "type": "uint256"
        }
      ],
      "name": "MinRatioUpdated",
      "type": "event"
    },
    {
      "anonymous": false,
      "inputs": [
        {
          "indexed": false,
          "internalType": "uint256",
          "name": "oldMaxAge",
          "type": "uint256"
        },
        {
          "indexed": false,
          "internalType": "uint256",
          "name": "newMaxAge",
          "type": "uint256"
        }
      ],
      "name": "OracleMaxAgeUpdated",
      "type": "event"
    },
    {
      "anonymous": false,
      "inputs": [
        {
          "indexed": true,
          "internalType": "address",
          "name": "oldOracle",
          "type": "address"
        },
        {
          "indexed": true,
          "internalType": "address",
          "name": "newOracle",
          "type": "address"
        }
      ],
      "name": "OracleUpdated",
      "type": "event"
    },
    {
      "anonymous": false,
      "inputs": [
        {
          "indexed": true,
          "internalType": "address",
          "name": "previousOwner",
          "type": "address"
        },
        {
          "indexed": true,
          "internalType": "address",
          "name": "newOwner",
          "type": "address"
        }
      ],
      "name": "OwnershipTransferred",
      "type": "event"
    },
    {
      "anonymous": false,
      "inputs": [
        {
          "indexed": true,
          "internalType": "address",
          "name": "by",
          "type": "address"
        },
        {
          "indexed": false,
          "internalType": "uint256",
          "name": "amount",
          "type": "uint256"
        },
        {
          "indexed": false,
          "internalType": "uint256",
          "name": "newRatioBps",
          "type": "uint256"
        }
      ],
      "name": "Recapitalized",
      "type": "event"
    },
    {
      "anonymous": false,
      "inputs": [
        {
          "indexed": true,
          "internalType": "uint256",
          "name": "timestamp",
          "type": "uint256"
        },
        {
          "indexed": false,
          "internalType": "uint256",
          "name": "usdcReserve",
          "type": "uint256"
        },
        {
          "indexed": false,
          "internalType": "uint256",
          "name": "gldSupply",
          "type": "uint256"
        },
        {
          "indexed": false,
          "internalType": "uint256",
          "name": "goldValueUsdc",
          "type": "uint256"
        },
        {
          "indexed": false,
          "internalType": "uint256",
          "name": "ratioBps",
          "type": "uint256"
        },
        {
          "indexed": false,
          "internalType": "bool",
          "name": "healthy",
          "type": "bool"
        }
      ],
      "name": "ReserveChecked",
      "type": "event"
    },
    {
      "anonymous": false,
      "inputs": [
        {
          "indexed": true,
          "internalType": "uint256",
          "name": "timestamp",
          "type": "uint256"
        },
        {
          "indexed": false,
          "internalType": "uint256",
          "name": "deficit",
          "type": "uint256"
        },
        {
          "indexed": false,
          "internalType": "uint256",
          "name": "ratioBps",
          "type": "uint256"
        },
        {
          "indexed": false,
          "internalType": "uint256",
          "name": "minRatioBps",
          "type": "uint256"
        }
      ],
      "name": "ReserveDeficit",
      "type": "event"
    },
    {
      "anonymous": false,
      "inputs": [
        {
          "indexed": true,
          "internalType": "address",
          "name": "implementation",
          "type": "address"
        }
      ],
      "name": "Upgraded",
      "type": "event"
    },
    {
      "inputs": [],
      "name": "BASIS_POINTS",
      "outputs": [
        {
          "internalType": "uint256",
          "name": "",
          "type": "uint256"
        }
      ],
      "stateMutability": "view",
      "type": "function"
    },
    {
      "inputs": [],
      "name": "DEFAULT_MIN_RATIO",
      "outputs": [
        {
          "internalType": "uint256",
          "name": "",
          "type": "uint256"
        }
      ],
      "stateMutability": "view",
      "type": "function"
    },
    {
      "inputs": [],
      "name": "UPGRADE_INTERFACE_VERSION",
      "outputs": [
        {
          "internalType": "string",
          "name": "",
          "type": "string"
        }
      ],
      "stateMutability": "view",
      "type": "function"
    },
    {
      "inputs": [],
      "name": "checkReserve",
      "outputs": [
        {
          "internalType": "uint256",
          "name": "usdcReserve",
          "type": "uint256"
        },
        {
          "internalType": "uint256",
          "name": "gldSupply",
          "type": "uint256"
        },
        {
          "internalType": "uint256",
          "name": "goldValueUsdc",
          "type": "uint256"
        },
        {
          "internalType": "uint256",
          "name": "ratioBps",
          "type": "uint256"
        }
      ],
      "stateMutability": "view",
      "type": "function"
    },
    {
      "inputs": [],
      "name": "exchange",
      "outputs": [
        {
          "internalType": "contract IExchange",
          "name": "",
          "type": "address"
        }
      ],
      "stateMutability": "view",
      "type": "function"
    },
    {
      "inputs": [],
      "name": "getPrice",
      "outputs": [
        {
          "internalType": "uint256",
          "name": "price",
          "type": "uint256"
        }
      ],
      "stateMutability": "view",
      "type": "function"
    },
    {
      "inputs": [],
      "name": "getReserveStatus",
      "outputs": [
        {
          "internalType": "uint256",
          "name": "usdcReserve",
          "type": "uint256"
        },
        {
          "internalType": "uint256",
          "name": "gldSupply",
          "type": "uint256"
        },
        {
          "internalType": "uint256",
          "name": "goldValueUsdc",
          "type": "uint256"
        },
        {
          "internalType": "uint256",
          "name": "ratioBps",
          "type": "uint256"
        },
        {
          "internalType": "uint256",
          "name": "minRatio",
          "type": "uint256"
        },
        {
          "internalType": "bool",
          "name": "healthy",
          "type": "bool"
        },
        {
          "internalType": "bool",
          "name": "exchangePaused",
          "type": "bool"
        },
        {
          "internalType": "uint256",
          "name": "price",
          "type": "uint256"
        },
        {
          "internalType": "uint256",
          "name": "deficitUsdc",
          "type": "uint256"
        }
      ],
      "stateMutability": "view",
      "type": "function"
    },
    {
      "inputs": [],
      "name": "gld",
      "outputs": [
        {
          "internalType": "contract IGLDReserve",
          "name": "",
          "type": "address"
        }
      ],
      "stateMutability": "view",
      "type": "function"
    },
    {
      "inputs": [
        {
          "internalType": "address",
          "name": "initialOwner",
          "type": "address"
        },
        {
          "internalType": "address",
          "name": "gldAddress",
          "type": "address"
        },
        {
          "internalType": "address",
          "name": "treasuryAddress",
          "type": "address"
        },
        {
          "internalType": "address",
          "name": "exchangeAddress",
          "type": "address"
        },
        {
          "internalType": "address",
          "name": "oracleAddress",
          "type": "address"
        },
        {
          "internalType": "uint256",
          "name": "initMinRatio",
          "type": "uint256"
        }
      ],
      "name": "initialize",
      "outputs": [],
      "stateMutability": "nonpayable",
      "type": "function"
    },
    {
      "inputs": [],
      "name": "isHealthy",
      "outputs": [
        {
          "internalType": "bool",
          "name": "",
          "type": "bool"
        }
      ],
      "stateMutability": "view",
      "type": "function"
    },
    {
      "inputs": [],
      "name": "lastCheckAt",
      "outputs": [
        {
          "internalType": "uint256",
          "name": "",
          "type": "uint256"
        }
      ],
      "stateMutability": "view",
      "type": "function"
    },
    {
      "inputs": [],
      "name": "lastCheckHealthy",
      "outputs": [
        {
          "internalType": "bool",
          "name": "",
          "type": "bool"
        }
      ],
      "stateMutability": "view",
      "type": "function"
    },
    {
      "inputs": [],
      "name": "minRatioBps",
      "outputs": [
        {
          "internalType": "uint256",
          "name": "",
          "type": "uint256"
        }
      ],
      "stateMutability": "view",
      "type": "function"
    },
    {
      "inputs": [],
      "name": "oracle",
      "outputs": [
        {
          "internalType": "contract IOracle",
          "name": "",
          "type": "address"
        }
      ],
      "stateMutability": "view",
      "type": "function"
    },
    {
      "inputs": [],
      "name": "oracleMaxAge",
      "outputs": [
        {
          "internalType": "uint256",
          "name": "",
          "type": "uint256"
        }
      ],
      "stateMutability": "view",
      "type": "function"
    },
    {
      "inputs": [],
      "name": "owner",
      "outputs": [
        {
          "internalType": "address",
          "name": "",
          "type": "address"
        }
      ],
      "stateMutability": "view",
      "type": "function"
    },
    {
      "inputs": [],
      "name": "proofOfReserve",
      "outputs": [],
      "stateMutability": "nonpayable",
      "type": "function"
    },
    {
      "inputs": [],
      "name": "proxiableUUID",
      "outputs": [
        {
          "internalType": "bytes32",
          "name": "",
          "type": "bytes32"
        }
      ],
      "stateMutability": "view",
      "type": "function"
    },
    {
      "inputs": [
        {
          "internalType": "uint256",
          "name": "amount",
          "type": "uint256"
        }
      ],
      "name": "recapitalize",
      "outputs": [],
      "stateMutability": "nonpayable",
      "type": "function"
    },
    {
      "inputs": [],
      "name": "renounceOwnership",
      "outputs": [],
      "stateMutability": "nonpayable",
      "type": "function"
    },
    {
      "inputs": [
        {
          "internalType": "uint256",
          "name": "newPrice",
          "type": "uint256"
        }
      ],
      "name": "setExchangeFallbackPrice",
      "outputs": [],
      "stateMutability": "nonpayable",
      "type": "function"
    },
    {
      "inputs": [
        {
          "internalType": "address",
          "name": "newOracle",
          "type": "address"
        }
      ],
      "name": "setExchangeOracle",
      "outputs": [],
      "stateMutability": "nonpayable",
      "type": "function"
    },
    {
      "inputs": [
        {
          "internalType": "address",
          "name": "newOwner",
          "type": "address"
        }
      ],
      "name": "setExchangeOwner",
      "outputs": [],
      "stateMutability": "nonpayable",
      "type": "function"
    },
    {
      "inputs": [
        {
          "internalType": "uint256",
          "name": "newRatioBps",
          "type": "uint256"
        }
      ],
      "name": "setMinRatio",
      "outputs": [],
      "stateMutability": "nonpayable",
      "type": "function"
    },
    {
      "inputs": [
        {
          "internalType": "address",
          "name": "newOracle",
          "type": "address"
        }
      ],
      "name": "setOracle",
      "outputs": [],
      "stateMutability": "nonpayable",
      "type": "function"
    },
    {
      "inputs": [
        {
          "internalType": "uint256",
          "name": "newMaxAge",
          "type": "uint256"
        }
      ],
      "name": "setOracleMaxAge",
      "outputs": [],
      "stateMutability": "nonpayable",
      "type": "function"
    },
    {
      "inputs": [
        {
          "internalType": "address",
          "name": "newOwner",
          "type": "address"
        }
      ],
      "name": "transferOwnership",
      "outputs": [],
      "stateMutability": "nonpayable",
      "type": "function"
    },
    {
      "inputs": [],
      "name": "treasury",
      "outputs": [
        {
          "internalType": "contract ITreasuryReserve",
          "name": "",
          "type": "address"
        }
      ],
      "stateMutability": "view",
      "type": "function"
    },
    {
      "inputs": [
        {
          "internalType": "address",
          "name": "newImplementation",
          "type": "address"
        },
        {
          "internalType": "bytes",
          "name": "data",
          "type": "bytes"
        }
      ],
      "name": "upgradeToAndCall",
      "outputs": [],
      "stateMutability": "payable",
      "type": "function"
    }
  ],
  "bytecode": "0x60a060405230608052348015610013575f5ffd5b5061001c610021565b6100d3565b7ff0c57e16840df040f15088dc2f81fe391c3923bec73e23a9662efc9c229c6a00805468010000000000000000900460ff16156100715760405163f92ee8a960e01b815260040160405180910390fd5b80546001600160401b03908116146100d05780546001600160401b0319166001600160401b0390811782556040519081527fc7f505b2f371ae2175ee4913f4499e1f2633a7b5936321eed1cdaeb6115181d29060200160405180910390a15b50565b608051611d0f6100f95f395f81816114bf015281816114e801526116270152611d0f5ff3fe6080604052600436106101ba575f3560e01c806395b6ef0c116100f2578063d2f7265a11610092578063ec029a4411610062578063ec029a4414610508578063eecc5be214610527578063f0218a941461053c578063f2fde38b1461055b575f5ffd5b8063d2f7265a146104a1578063e1ac7cfe146104c0578063e1f1c4a714610431578063e4020804146104f4575f5ffd5b80639f97ee60116100cd5780639f97ee6014610412578063a097f30914610431578063a589b33414610446578063ad3cb1cc14610464575f5ffd5b806395b6ef0c146103ca57806398d5fdca146103e95780639c56b272146103fd575f5ffd5b806353971dd31161015d578063715018a611610138578063715018a61461033c5780637adbf973146103505780637dc0d1d01461036f5780638da5cb5b1461038e575f5ffd5b806353971dd314610294578063564ed5ee146102a957806361d027b314610305575f5ffd5b80632be52293116101985780632be522931461022157806349b66a80146102405780634f1ef2861461025f57806352d1902d14610272575f5ffd5b80630c47d267146101be5780631fbfe658146101df5780632740af7c1461020d575b5f5ffd5b3480156101c9575f5ffd5b506101dd6101d83660046119d3565b61057a565b005b3480156101ea575f5ffd5b506007546101f89060ff1681565b60405190151581526020015b60405180910390f35b348015610218575f5ffd5b506101dd61080a565b34801561022c575f5ffd5b506101dd61023b3660046119fe565b610b37565b34801561024b575f5ffd5b506101dd61025a3660046119fe565b610b96565b6101dd61026d366004611a34565b610bd0565b34801561027d575f5ffd5b50610286610bef565b604051908152602001610204565b34801561029f575f5ffd5b5061028660065481565b3480156102b4575f5ffd5b506102bd610c0a565b60408051998a5260208a01989098529688019590955260608701939093526080860191909152151560a0850152151560c084015260e083015261010082015261012001610204565b348015610310575f5ffd5b50600154610324906001600160a01b031681565b6040516001600160a01b039091168152602001610204565b348015610347575f5ffd5b506101dd610cf7565b34801561035b575f5ffd5b506101dd61036a3660046119fe565b610d0a565b34801561037a575f5ffd5b50600354610324906001600160a01b031681565b348015610399575f5ffd5b507f9016d09d72d40fdae2fd8ceac6b6234c7706214fd39c1cd1e609a0528c199300546001600160a01b0316610324565b3480156103d5575f5ffd5b506101dd6103e4366004611afa565b610d6d565b3480156103f4575f5ffd5b50610286610fb0565b348015610408575f5ffd5b5061028660055481565b34801561041d575f5ffd5b506101dd61042c3660046119d3565b6110f7565b34801561043c575f5ffd5b5061028661271081565b348015610451575f5ffd5b505f54610324906001600160a01b031681565b34801561046f575f5ffd5b50610494604051806040016040528060058152602001640352e302e360dc1b81525081565b6040516102049190611b6f565b3480156104ac575f5ffd5b50600254610324906001600160a01b031681565b3480156104cb575f5ffd5b506104d4611130565b604080519485526020850193909352918301526060820152608001610204565b3480156104ff575f5ffd5b506101f861128e565b348015610513575f5ffd5b506101dd6105223660046119d3565b6112a6565b348015610532575f5ffd5b5061028660045481565b348015610547575f5ffd5b506101dd6105563660046119d3565b61131e565b348015610566575f5ffd5b506101dd6105753660046119fe565b611367565b6105826113a4565b805f036105a257604051631f2a200560e01b815260040160405180910390fd5b60015460408051631f209df760e11b815290515f926001600160a01b031691633e413bee9160048083019260209291908290030181865afa1580156105e9573d5f5f3e3d5ffd5b505050506040513d601f19601f8201168201806040525081019061060d9190611ba4565b9050806106256001600160a01b0382163330866113ff565b60015461063f906001600160a01b03838116911685611435565b600154604051632f663a8960e11b8152600481018590526001600160a01b0390911690635ecc7512906024015f604051808303815f87803b158015610682575f5ffd5b505af1158015610694573d5f5f3e3d5ffd5b505050505f6106a1611130565b604080518981526020810183905281519296503395507f1fee765e80ddaf742ff398712668092546689ad5b99733e879e8baf04a9800179450829003019150a26004548110158015610762575060025f9054906101000a90046001600160a01b03166001600160a01b0316635c975abb6040518163ffffffff1660e01b8152600401602060405180830381865afa15801561073e573d5f5f3e3d5ffd5b505050506040513d601f19601f820116820180604052508101906107629190611bbf565b156108045760025f9054906101000a90046001600160a01b03166001600160a01b0316633f4ba83a6040518163ffffffff1660e01b81526004015f604051808303815f87803b1580156107b3575f5ffd5b505af11580156107c5573d5f5f3e3d5ffd5b50505050427fd9e5e6ee504cfba36c7b8913400b667468850073114254e604ebfd124e1ae163826040516107fb91815260200190565b60405180910390a25b50505050565b5f5f5f5f610816611130565b6004544260068190556007805460ff1916928410159283179055604080518781526020810187905290810185905260608101849052608081018390529599509397509195509350917febe8de9da4d3668ba0df3bf4576fefbb2c084f6f17fe72703e4165722a8bbc079060a00160405180910390a280610a1a575f85612710600454866108a39190611bf2565b6108ad9190611c09565b6108b79190611c28565b6004546040805183815260208101879052808201929092525191925042917f46508c14c5deb1fc9126b7d576dbded816dd3c8774635707894a1b6426654c049181900360600190a260025f9054906101000a90046001600160a01b03166001600160a01b0316635c975abb6040518163ffffffff1660e01b8152600401602060405180830381865afa15801561094f573d5f5f3e3d5ffd5b505050506040513d601f19601f820116820180604052508101906109739190611bbf565b610a145760025f9054906101000a90046001600160a01b03166001600160a01b0316638456cb596040518163ffffffff1660e01b81526004015f604051808303815f87803b1580156109c3575f5ffd5b505af11580156109d5573d5f5f3e3d5ffd5b50505050427f1d887312f96636242c14964fa6035cc795d171eb37411d7f88a4c2036f6cba3d84604051610a0b91815260200190565b60405180910390a25b50610b30565b60025f9054906101000a90046001600160a01b03166001600160a01b0316635c975abb6040518163ffffffff1660e01b8152600401602060405180830381865afa158015610a6a573d5f5f3e3d5ffd5b505050506040513d601f19601f82011682018060405250810190610a8e9190611bbf565b15610b305760025f9054906101000a90046001600160a01b03166001600160a01b0316633f4ba83a6040518163ffffffff1660e01b81526004015f604051808303815f87803b158015610adf575f5ffd5b505af1158015610af1573d5f5f3e3d5ffd5b50505050427fd9e5e6ee504cfba36c7b8913400b667468850073114254e604ebfd124e1ae16383604051610b2791815260200190565b60405180910390a25b5050505050565b610b3f6113a4565b600254604051637adbf97360e01b81526001600160a01b03838116600483015290911690637adbf973906024015b5f604051808303815f87803b158015610b84575f5ffd5b505af1158015610b30573d5f5f3e3d5ffd5b610b9e6113a4565b60025460405163f2fde38b60e01b81526001600160a01b0383811660048301529091169063f2fde38b90602401610b6d565b610bd86114b4565b610be182611558565b610beb8282611560565b5050565b5f610bf861161c565b505f516020611cba5f395f51905f5290565b5f5f5f5f5f5f5f5f5f610c1b611130565b809950819a50829b50839c50505050506004549450600454861015935060025f9054906101000a90046001600160a01b03166001600160a01b0316635c975abb6040518163ffffffff1660e01b8152600401602060405180830381865afa158015610c88573d5f5f3e3d5ffd5b505050506040513d601f19601f82011682018060405250810190610cac9190611bbf565b9250610cb6610fb0565b915083610ce8578861271060045489610ccf9190611bf2565b610cd99190611c09565b610ce39190611c28565b610cea565b5f5b9050909192939495969798565b610cff6113a4565b610d085f611665565b565b610d126113a4565b6003546040516001600160a01b038084169216907f078c3b417dadf69374a59793b829c52001247130433427049317bde56607b1b7905f90a3600380546001600160a01b0319166001600160a01b0392909216919091179055565b5f610d766116d5565b805490915060ff600160401b820416159067ffffffffffffffff165f81158015610d9d5750825b90505f8267ffffffffffffffff166001148015610db95750303b155b905081158015610dc7575080155b15610de55760405163f92ee8a960e01b815260040160405180910390fd5b845467ffffffffffffffff191660011785558315610e0f57845460ff60401b1916600160401b1785555b6001600160a01b038b16610e365760405163d92e233d60e01b815260040160405180910390fd5b6001600160a01b038a16610e5d5760405163d92e233d60e01b815260040160405180910390fd5b6001600160a01b038916610e845760405163d92e233d60e01b815260040160405180910390fd5b6001600160a01b038816610eab5760405163d92e233d60e01b815260040160405180910390fd5b851580610eb95750614e2086115b15610edf5760405163046a85ef60e31b8152600481018790526024015b60405180910390fd5b610ee88b6116ff565b5f80546001600160a01b03808d166001600160a01b031992831617909255600180548c8416908316179055600280548b84169216919091179055871615610f4557600380546001600160a01b0319166001600160a01b0389161790555b6004869055610e106005556007805460ff191660011790558315610fa357845460ff60401b19168555604051600181527fc7f505b2f371ae2175ee4913f4499e1f2633a7b5936321eed1cdaeb6115181d29060200160405180910390a15b5050505050505050505050565b6003545f906001600160a01b0316156110655760035f9054906101000a90046001600160a01b03166001600160a01b031663feaf968c6040518163ffffffff1660e01b815260040160a060405180830381865afa925050508015611031575060408051601f3d908101601f1916820190925261102e91810190611c54565b60015b15611065575f84138015611050575060055461104d8342611c28565b11155b1561105f575091949350505050565b50505050505b600254604080516371450dc360e11b815290515f926001600160a01b03169163e28a1b869160048083019260209291908290030181865afa1580156110ac573d5f5f3e3d5ffd5b505050506040513d601f19601f820116820180604052508101906110d09190611ca2565b9050805f036110f257604051631821d12360e31b815260040160405180910390fd5b919050565b6110ff6113a4565b60025460405163ce4391df60e01b8152600481018390526001600160a01b039091169063ce4391df90602401610b6d565b5f5f5f5f60015f9054906101000a90046001600160a01b03166001600160a01b031663ff50abdc6040518163ffffffff1660e01b8152600401602060405180830381865afa158015611184573d5f5f3e3d5ffd5b505050506040513d601f19601f820116820180604052508101906111a89190611ca2565b93505f5f9054906101000a90046001600160a01b03166001600160a01b03166318160ddd6040518163ffffffff1660e01b8152600401602060405180830381865afa1580156111f9573d5f5f3e3d5ffd5b505050506040513d601f19601f8201168201806040525081019061121d9190611ca2565b9250825f0361123457505f91508190505f19611288565b5f61123d610fb0565b9050620186a061124d8286611bf2565b6112579190611c09565b9250825f0361126d57505f91505f199050611288565b8261127a61271087611bf2565b6112849190611c09565b9150505b90919293565b5f5f611298611130565b600454111595945050505050565b6112ae6113a4565b8015806112bc5750614e2081115b156112dd5760405163046a85ef60e31b815260048101829052602401610ed6565b60045460408051918252602082018390527fe6b782a9c9128bdb75a3f0fc9d04e645b2b76ae80620e5ae506efbc4cbbce3e5910160405180910390a1600455565b6113266113a4565b60055460408051918252602082018390527fdc69c1ebd7f21dc66c736c87fb4de0dd6824633b099f73165f3b2b7bce220341910160405180910390a1600555565b61136f6113a4565b6001600160a01b03811661139857604051631e4fbdf760e01b81525f6004820152602401610ed6565b6113a181611665565b50565b336113d67f9016d09d72d40fdae2fd8ceac6b6234c7706214fd39c1cd1e609a0528c199300546001600160a01b031690565b6001600160a01b031614610d085760405163118cdaa760e01b8152336004820152602401610ed6565b61140d848484846001611710565b61080457604051635274afe760e01b81526001600160a01b0385166004820152602401610ed6565b6114418383835f61177d565b6114af5761145283835f600161177d565b61147a57604051635274afe760e01b81526001600160a01b0384166004820152602401610ed6565b611487838383600161177d565b6114af57604051635274afe760e01b81526001600160a01b0384166004820152602401610ed6565b505050565b306001600160a01b037f000000000000000000000000000000000000000000000000000000000000000016148061153a57507f00000000000000000000000000000000000000000000000000000000000000006001600160a01b031661152e5f516020611cba5f395f51905f52546001600160a01b031690565b6001600160a01b031614155b15610d085760405163703e46dd60e11b815260040160405180910390fd5b6113a16113a4565b816001600160a01b03166352d1902d6040518163ffffffff1660e01b8152600401602060405180830381865afa9250505080156115ba575060408051601f3d908101601f191682019092526115b791810190611ca2565b60015b6115e257604051634c9c8ce360e01b81526001600160a01b0383166004820152602401610ed6565b5f516020611cba5f395f51905f52811461161257604051632a87526960e21b815260048101829052602401610ed6565b6114af83836117df565b306001600160a01b037f00000000000000000000000000000000000000000000000000000000000000001614610d085760405163703e46dd60e11b815260040160405180910390fd5b7f9016d09d72d40fdae2fd8ceac6b6234c7706214fd39c1cd1e609a0528c19930080546001600160a01b031981166001600160a01b03848116918217845560405192169182907f8be0079c531659141344cd1fd0a4f28419497f9722a3daafe3b4186f6b6457e0905f90a3505050565b5f807ff0c57e16840df040f15088dc2f81fe391c3923bec73e23a9662efc9c229c6a005b92915050565b611707611834565b6113a181611859565b6040516323b872dd60e01b5f8181526001600160a01b038781166004528616602452604485905291602083606481808c5af1925060015f5114831661176c578383151615611760573d5f823e3d81fd5b5f883b113d1516831692505b604052505f60605295945050505050565b60405163095ea7b360e01b5f8181526001600160a01b038616600452602485905291602083604481808b5af1925060015f511483166117d35783831516156117c7573d5f823e3d81fd5b5f873b113d1516831692505b60405250949350505050565b6117e882611861565b6040516001600160a01b038316907fbc7cd75a20ee27fd9adebab32041f755214dbc6bffa90cc0225b39da2e5c2d3b905f90a280511561182c576114af82826118c4565b610beb611964565b61183c611983565b610d0857604051631afcd79f60e31b815260040160405180910390fd5b61136f611834565b806001600160a01b03163b5f0361189657604051634c9c8ce360e01b81526001600160a01b0382166004820152602401610ed6565b5f516020611cba5f395f51905f5280546001600160a01b0319166001600160a01b0392909216919091179055565b60605f6118d1848461199c565b90508080156118f257505f3d11806118f257505f846001600160a01b03163b115b15611907576118ff6119af565b9150506116f9565b801561193157604051639996b31560e01b81526001600160a01b0385166004820152602401610ed6565b3d156119445761193f6119c8565b61195d565b60405163d6bda27560e01b815260040160405180910390fd5b5092915050565b3415610d085760405163b398979f60e01b815260040160405180910390fd5b5f61198c6116d5565b54600160401b900460ff16919050565b5f5f5f835160208501865af49392505050565b6040513d81523d5f602083013e3d602001810160405290565b6040513d5f823e3d81fd5b5f602082840312156119e3575f5ffd5b5035919050565b6001600160a01b03811681146113a1575f5ffd5b5f60208284031215611a0e575f5ffd5b8135611a19816119ea565b9392505050565b634e487b7160e01b5f52604160045260245ffd5b5f5f60408385031215611a45575f5ffd5b8235611a50816119ea565b9150602083013567ffffffffffffffff811115611a6b575f5ffd5b8301601f81018513611a7b575f5ffd5b803567ffffffffffffffff811115611a9557611a95611a20565b604051601f8201601f19908116603f0116810167ffffffffffffffff81118282101715611ac457611ac4611a20565b604052818152828201602001871015611adb575f5ffd5b816020840160208301375f602083830101528093505050509250929050565b5f5f5f5f5f5f60c08789031215611b0f575f5ffd5b8635611b1a816119ea565b95506020870135611b2a816119ea565b94506040870135611b3a816119ea565b93506060870135611b4a816119ea565b92506080870135611b5a816119ea565b9598949750929591949360a090920135925050565b602081525f82518060208401528060208501604085015e5f604082850101526040601f19601f83011684010191505092915050565b5f60208284031215611bb4575f5ffd5b8151611a19816119ea565b5f60208284031215611bcf575f5ffd5b81518015158114611a19575f5ffd5b634e487b7160e01b5f52601160045260245ffd5b80820281158282048414176116f9576116f9611bde565b5f82611c2357634e487b7160e01b5f52601260045260245ffd5b500490565b818103818111156116f9576116f9611bde565b805169ffffffffffffffffffff811681146110f2575f5ffd5b5f5f5f5f5f60a08688031215611c68575f5ffd5b611c7186611c3b565b60208701516040880151606089015192975090955093509150611c9660808701611c3b565b90509295509295909350565b5f60208284031215611cb2575f5ffd5b505191905056fe360894a13ba1a3210667c828492db98dca3e2076cc3735a920a3ca505d382bbca26469706673582212208578a4faa6244fcf42b3b1f75fe08b369dd5c44642453da67808c45c91fec6b764736f6c634300081c0033",
  "linkReferences": {},
  "deployedLinkReferences": {},
  "immutableReferences": {
    "957": [
      {
        "length": 32,
        "start": 5311
      },
      {
        "length": 32,
        "start": 5352
      },
      {
        "length": 32,
        "start": 5671
      }
    ]
  },
  "inputSourceName": "project/contracts/Reserve.sol",
  "buildInfoId": "solc-0_8_28-0064ba36aa0d241763be74df71b6731c3ab3b9f9"
}