{
  "_format": "hh3-artifact-1",
  "contractName": "Reserve",
  "sourceName": "contracts/Reserve.sol",
  "abi": [
    {
      "inputs": [],
      "stateMutability": "nonpayable",
      "type": "constructor"
    },
    {
      "inputs": [
        {
          "internalType": "address",
          "name": "target",
          "type": "address"
        }
      ],
      "name": "AddressEmptyCode",
      "type": "error"
    },
    {
      "inputs": [
        {
          "internalType": "address",
          "name": "implementation",
          "type": "address"
        }
      ],
      "name": "ERC1967InvalidImplementation",
      "type": "error"
    },
    {
      "inputs": [],
      "name": "ERC1967NonPayable",
      "type": "error"
    },
    {
      "inputs": [],
      "name": "FailedCall",
      "type": "error"
    },
    {
      "inputs": [],
      "name": "InvalidInitialization",
      "type": "error"
    },
    {
      "inputs": [
        {
          "internalType": "uint256",
          "name": "ratio",
          "type": "uint256"
        }
      ],
      "name": "InvalidRatio",
      "type": "error"
    },
    {
      "inputs": [],
      "name": "NoGLDSupply",
      "type": "error"
    },
    {
      "inputs": [],
      "name": "NoPriceAvailable",
      "type": "error"
    },
    {
      "inputs": [],
      "name": "NotInitializing",
      "type": "error"
    },
    {
      "inputs": [
        {
          "internalType": "address",
          "name": "owner",
          "type": "address"
        }
      ],
      "name": "OwnableInvalidOwner",
      "type": "error"
    },
    {
      "inputs": [
        {
          "internalType": "address",
          "name": "account",
          "type": "address"
        }
      ],
      "name": "OwnableUnauthorizedAccount",
      "type": "error"
    },
    {
      "inputs": [
        {
          "internalType": "address",
          "name": "token",
          "type": "address"
        }
      ],
      "name": "SafeERC20FailedOperation",
      "type": "error"
    },
    {
      "inputs": [],
      "name": "UUPSUnauthorizedCallContext",
      "type": "error"
    },
    {
      "inputs": [
        {
          "internalType": "bytes32",
          "name": "slot",
          "type": "bytes32"
        }
      ],
      "name": "UUPSUnsupportedProxiableUUID",
      "type": "error"
    },
    {
      "inputs": [],
      "name": "ZeroAddress",
      "type": "error"
    },
    {
      "inputs": [],
      "name": "ZeroAmount",
      "type": "error"
    },
    {
      "anonymous": false,
      "inputs": [
        {
          "indexed": true,
          "internalType": "uint256",
          "name": "timestamp",
          "type": "uint256"
        },
        {
          "indexed": false,
          "internalType": "uint256",
          "name": "ratioBps",
          "type": "uint256"
        }
      ],
      "name": "ExchangePausedByReserve",
      "type": "event"
    },
    {
      "anonymous": false,
      "inputs": [
        {
          "indexed": true,
          "internalType": "uint256",
          "name": "timestamp",
          "type": "uint256"
        },
        {
          "indexed": false,
          "internalType": "uint256",
          "name": "ratioBps",
          "type": "uint256"
        }
      ],
      "name": "ExchangeUnpausedByReserve",
      "type": "event"
    },
    {
      "anonymous": false,
      "inputs": [
        {
          "indexed": false,
          "internalType": "uint64",
          "name": "version",
          "type": "uint64"
        }
      ],
      "name": "Initialized",
      "type": "event"
    },
    {
      "anonymous": false,
      "inputs": [
        {
          "indexed": false,
          "internalType": "uint256",
          "name": "oldRatio",
          "type": "uint256"
        },
        {
          "indexed": false,
          "internalType": "uint256",
          "name": "newRatio",
          "type": "uint256"
        }
      ],
      "name": "MinRatioUpdated",
      "type": "event"
    },
    {
      "anonymous": false,
      "inputs": [
        {
          "indexed": false,
          "internalType": "uint256",
          "name": "oldMaxAge",
          "type": "uint256"
        },
        {
          "indexed": false,
          "internalType": "uint256",
          "name": "newMaxAge",
          "type": "uint256"
        }
      ],
      "name": "OracleMaxAgeUpdated",
      "type": "event"
    },
    {
      "anonymous": false,
      "inputs": [
        {
          "indexed": true,
          "internalType": "address",
          "name": "oldOracle",
          "type": "address"
        },
        {
          "indexed": true,
          "internalType": "address",
          "name": "newOracle",
          "type": "address"
        }
      ],
      "name": "OracleUpdated",
      "type": "event"
    },
    {
      "anonymous": false,
      "inputs": [
        {
          "indexed": true,
          "internalType": "address",
          "name": "previousOwner",
          "type": "address"
        },
        {
          "indexed": true,
          "internalType": "address",
          "name": "newOwner",
          "type": "address"
        }
      ],
      "name": "OwnershipTransferred",
      "type": "event"
    },
    {
      "anonymous": false,
      "inputs": [
        {
          "indexed": true,
          "internalType": "address",
          "name": "by",
          "type": "address"
        },
        {
          "indexed": false,
          "internalType": "uint256",
          "name": "amount",
          "type": "uint256"
        },
        {
          "indexed": false,
          "internalType": "uint256",
          "name": "newRatioBps",
          "type": "uint256"
        }
      ],
      "name": "Recapitalized",
      "type": "event"
    },
    {
      "anonymous": false,
      "inputs": [
        {
          "indexed": true,
          "internalType": "uint256",
          "name": "timestamp",
          "type": "uint256"
        },
        {
          "indexed": false,
          "internalType": "uint256",
          "name": "usdcReserve",
          "type": "uint256"
        },
        {
          "indexed": false,
          "internalType": "uint256",
          "name": "gldSupply",
          "type": "uint256"
        },
        {
          "indexed": false,
          "internalType": "uint256",
          "name": "goldValueUsdc",
          "type": "uint256"
        },
        {
          "indexed": false,
          "internalType": "uint256",
          "name": "ratioBps",
          "type": "uint256"
        },
        {
          "indexed": false,
          "internalType": "bool",
          "name": "healthy",
          "type": "bool"
        }
      ],
      "name": "ReserveChecked",
      "type": "event"
    },
    {
      "anonymous": false,
      "inputs": [
        {
          "indexed": true,
          "internalType": "uint256",
          "name": "timestamp",
          "type": "uint256"
        },
        {
          "indexed": false,
          "internalType": "uint256",
          "name": "deficit",
          "type": "uint256"
        },
        {
          "indexed": false,
          "internalType": "uint256",
          "name": "ratioBps",
          "type": "uint256"
        },
        {
          "indexed": false,
          "internalType": "uint256",
          "name": "minRatioBps",
          "type": "uint256"
        }
      ],
      "name": "ReserveDeficit",
      "type": "event"
    },
    {
      "anonymous": false,
      "inputs": [
        {
          "indexed": true,
          "internalType": "address",
          "name": "implementation",
          "type": "address"
        }
      ],
      "name": "Upgraded",
      "type": "event"
    },
    {
      "inputs": [],
      "name": "BASIS_POINTS",
      "outputs": [
        {
          "internalType": "uint256",
          "name": "",
          "type": "uint256"
        }
      ],
      "stateMutability": "view",
      "type": "function"
    },
    {
      "inputs": [],
      "name": "DEFAULT_MIN_RATIO",
      "outputs": [
        {
          "internalType": "uint256",
          "name": "",
          "type": "uint256"
        }
      ],
      "stateMutability": "view",
      "type": "function"
    },
    {
      "inputs": [],
      "name": "UPGRADE_INTERFACE_VERSION",
      "outputs": [
        {
          "internalType": "string",
          "name": "",
          "type": "string"
        }
      ],
      "stateMutability": "view",
      "type": "function"
    },
    {
      "inputs": [],
      "name": "checkReserve",
      "outputs": [
        {
          "internalType": "uint256",
          "name": "usdcReserve",
          "type": "uint256"
        },
        {
          "internalType": "uint256",
          "name": "gldSupply",
          "type": "uint256"
        },
        {
          "internalType": "uint256",
          "name": "goldValueUsdc",
          "type": "uint256"
        },
        {
          "internalType": "uint256",
          "name": "ratioBps",
          "type": "uint256"
        }
      ],
      "stateMutability": "view",
      "type": "function"
    },
    {
      "inputs": [],
      "name": "exchange",
      "outputs": [
        {
          "internalType": "contract IExchange",
          "name": "",
          "type": "address"
        }
      ],
      "stateMutability": "view",
      "type": "function"
    },
    {
      "inputs": [],
      "name": "getPrice",
      "outputs": [
        {
          "internalType": "uint256",
          "name": "price",
          "type": "uint256"
        }
      ],
      "stateMutability": "view",
      "type": "function"
    },
    {
      "inputs": [],
      "name": "getReserveStatus",
      "outputs": [
        {
          "internalType": "uint256",
          "name": "usdcReserve",
          "type": "uint256"
        },
        {
          "internalType": "uint256",
          "name": "gldSupply",
          "type": "uint256"
        },
        {
          "internalType": "uint256",
          "name": "goldValueUsdc",
          "type": "uint256"
        },
        {
          "internalType": "uint256",
          "name": "ratioBps",
          "type": "uint256"
        },
        {
          "internalType": "uint256",
          "name": "minRatio",
          "type": "uint256"
        },
        {
          "internalType": "bool",
          "name": "healthy",
          "type": "bool"
        },
        {
          "internalType": "bool",
          "name": "exchangePaused",
          "type": "bool"
        },
        {
          "internalType": "uint256",
          "name": "price",
          "type": "uint256"
        },
        {
          "internalType": "uint256",
          "name": "deficitUsdc",
          "type": "uint256"
        }
      ],
      "stateMutability": "view",
      "type": "function"
    },
    {
      "inputs": [],
      "name": "gld",
      "outputs": [
        {
          "internalType": "contract IGLDReserve",
          "name": "",
          "type": "address"
        }
      ],
      "stateMutability": "view",
      "type": "function"
    },
    {
      "inputs": [
        {
          "internalType": "address",
          "name": "initialOwner",
          "type": "address"
        },
        {
          "internalType": "address",
          "name": "gldAddress",
          "type": "address"
        },
        {
          "internalType": "address",
          "name": "treasuryAddress",
          "type": "address"
        },
        {
          "internalType": "address",
          "name": "exchangeAddress",
          "type": "address"
        },
        {
          "internalType": "address",
          "name": "oracleAddress",
          "type": "address"
        },
        {
          "internalType": "uint256",
          "name": "initMinRatio",
          "type": "uint256"
        }
      ],
      "name": "initialize",
      "outputs": [],
      "stateMutability": "nonpayable",
      "type": "function"
    },
    {
      "inputs": [],
      "name": "isHealthy",
      "outputs": [
        {
          "internalType": "bool",
          "name": "",
          "type": "bool"
        }
      ],
      "stateMutability": "view",
      "type": "function"
    },
    {
      "inputs": [],
      "name": "lastCheckAt",
      "outputs": [
        {
          "internalType": "uint256",
          "name": "",
          "type": "uint256"
        }
      ],
      "stateMutability": "view",
      "type": "function"
    },
    {
      "inputs": [],
      "name": "lastCheckHealthy",
      "outputs": [
        {
          "internalType": "bool",
          "name": "",
          "type": "bool"
        }
      ],
      "stateMutability": "view",
      "type": "function"
    },
    {
      "inputs": [],
      "name": "minRatioBps",
      "outputs": [
        {
          "internalType": "uint256",
          "name": "",
          "type": "uint256"
        }
      ],
      "stateMutability": "view",
      "type": "function"
    },
    {
      "inputs": [],
      "name": "oracle",
      "outputs": [
        {
          "internalType": "contract IOracle",
          "name": "",
          "type": "address"
        }
      ],
      "stateMutability": "view",
      "type": "function"
    },
    {
      "inputs": [],
      "name": "oracleMaxAge",
      "outputs": [
        {
          "internalType": "uint256",
          "name": "",
          "type": "uint256"
        }
      ],
      "stateMutability": "view",
      "type": "function"
    },
    {
      "inputs": [],
      "name": "owner",
      "outputs": [
        {
          "internalType": "address",
          "name": "",
          "type": "address"
        }
      ],
      "stateMutability": "view",
      "type": "function"
    },
    {
      "inputs": [],
      "name": "proofOfReserve",
      "outputs": [],
      "stateMutability": "nonpayable",
      "type": "function"
    },
    {
      "inputs": [],
      "name": "proxiableUUID",
      "outputs": [
        {
          "internalType": "bytes32",
          "name": "",
          "type": "bytes32"
        }
      ],
      "stateMutability": "view",
      "type": "function"
    },
    {
      "inputs": [
        {
          "internalType": "uint256",
          "name": "amount",
          "type": "uint256"
        }
      ],
      "name": "recapitalize",
      "outputs": [],
      "stateMutability": "nonpayable",
      "type": "function"
    },
    {
      "inputs": [],
      "name": "renounceOwnership",
      "outputs": [],
      "stateMutability": "nonpayable",
      "type": "function"
    },
    {
      "inputs": [
        {
          "internalType": "uint256",
          "name": "newRatioBps",
          "type": "uint256"
        }
      ],
      "name": "setMinRatio",
      "outputs": [],
      "stateMutability": "nonpayable",
      "type": "function"
    },
    {
      "inputs": [
        {
          "internalType": "address",
          "name": "newOracle",
          "type": "address"
        }
      ],
      "name": "setOracle",
      "outputs": [],
      "stateMutability": "nonpayable",
      "type": "function"
    },
    {
      "inputs": [
        {
          "internalType": "uint256",
          "name": "newMaxAge",
          "type": "uint256"
        }
      ],
      "name": "setOracleMaxAge",
      "outputs": [],
      "stateMutability": "nonpayable",
      "type": "function"
    },
    {
      "inputs": [
        {
          "internalType": "address",
          "name": "newOwner",
          "type": "address"
        }
      ],
      "name": "transferOwnership",
      "outputs": [],
      "stateMutability": "nonpayable",
      "type": "function"
    },
    {
      "inputs": [],
      "name": "treasury",
      "outputs": [
        {
          "internalType": "contract ITreasuryReserve",
          "name": "",
          "type": "address"
        }
      ],
      "stateMutability": "view",
      "type": "function"
    },
    {
      "inputs": [
        {
          "internalType": "address",
          "name": "newImplementation",
          "type": "address"
        },
        {
          "internalType": "bytes",
          "name": "data",
          "type": "bytes"
        }
      ],
      "name": "upgradeToAndCall",
      "outputs": [],
      "stateMutability": "payable",
      "type": "function"
    }
  ],
  "bytecode": "0x60a060405230608052348015610013575f5ffd5b5061001c610021565b6100d3565b7ff0c57e16840df040f15088dc2f81fe391c3923bec73e23a9662efc9c229c6a00805468010000000000000000900460ff16156100715760405163f92ee8a960e01b815260040160405180910390fd5b80546001600160401b03908116146100d05780546001600160401b0319166001600160401b0390811782556040519081527fc7f505b2f371ae2175ee4913f4499e1f2633a7b5936321eed1cdaeb6115181d29060200160405180910390a15b50565b608051611ba16100f95f395f81816113510152818161137a01526114b90152611ba15ff3fe60806040526004361061017b575f3560e01c806398d5fdca116100cd578063e1ac7cfe11610087578063ec029a4411610062578063ec029a441461046c578063eecc5be21461048b578063f0218a94146104a0578063f2fde38b146104bf575f5ffd5b8063e1ac7cfe14610424578063e1f1c4a714610395578063e402080414610458575f5ffd5b806398d5fdca1461036c5780639c56b27214610380578063a097f30914610395578063a589b334146103aa578063ad3cb1cc146103c8578063d2f7265a14610405575f5ffd5b8063564ed5ee116101385780637adbf973116101135780637adbf973146102d35780637dc0d1d0146102f25780638da5cb5b1461031157806395b6ef0c1461034d575f5ffd5b8063564ed5ee1461022c57806361d027b314610288578063715018a6146102bf575f5ffd5b80630c47d2671461017f5780631fbfe658146101a05780632740af7c146101ce5780634f1ef286146101e257806352d1902d146101f557806353971dd314610217575b5f5ffd5b34801561018a575f5ffd5b5061019e610199366004611865565b6104de565b005b3480156101ab575f5ffd5b506007546101b99060ff1681565b60405190151581526020015b60405180910390f35b3480156101d9575f5ffd5b5061019e61076e565b61019e6101f03660046118a4565b610a9b565b348015610200575f5ffd5b50610209610aba565b6040519081526020016101c5565b348015610222575f5ffd5b5061020960065481565b348015610237575f5ffd5b50610240610ad5565b60408051998a5260208a01989098529688019590955260608701939093526080860191909152151560a0850152151560c084015260e0830152610100820152610120016101c5565b348015610293575f5ffd5b506001546102a7906001600160a01b031681565b6040516001600160a01b0390911681526020016101c5565b3480156102ca575f5ffd5b5061019e610bc2565b3480156102de575f5ffd5b5061019e6102ed36600461196a565b610bd5565b3480156102fd575f5ffd5b506003546102a7906001600160a01b031681565b34801561031c575f5ffd5b507f9016d09d72d40fdae2fd8ceac6b6234c7706214fd39c1cd1e609a0528c199300546001600160a01b03166102a7565b348015610358575f5ffd5b5061019e61036736600461198c565b610c38565b348015610377575f5ffd5b50610209610e7b565b34801561038b575f5ffd5b5061020960055481565b3480156103a0575f5ffd5b5061020961271081565b3480156103b5575f5ffd5b505f546102a7906001600160a01b031681565b3480156103d3575f5ffd5b506103f8604051806040016040528060058152602001640352e302e360dc1b81525081565b6040516101c59190611a01565b348015610410575f5ffd5b506002546102a7906001600160a01b031681565b34801561042f575f5ffd5b50610438610fc2565b6040805194855260208501939093529183015260608201526080016101c5565b348015610463575f5ffd5b506101b9611120565b348015610477575f5ffd5b5061019e610486366004611865565b611138565b348015610496575f5ffd5b5061020960045481565b3480156104ab575f5ffd5b5061019e6104ba366004611865565b6111b0565b3480156104ca575f5ffd5b5061019e6104d936600461196a565b6111f9565b6104e6611236565b805f0361050657604051631f2a200560e01b815260040160405180910390fd5b60015460408051631f209df760e11b815290515f926001600160a01b031691633e413bee9160048083019260209291908290030181865afa15801561054d573d5f5f3e3d5ffd5b505050506040513d601f19601f820116820180604052508101906105719190611a36565b9050806105896001600160a01b038216333086611291565b6001546105a3906001600160a01b038381169116856112c7565b60015460405163b6b55f2560e01b8152600481018590526001600160a01b039091169063b6b55f25906024015f604051808303815f87803b1580156105e6575f5ffd5b505af11580156105f8573d5f5f3e3d5ffd5b505050505f610605610fc2565b604080518981526020810183905281519296503395507f1fee765e80ddaf742ff398712668092546689ad5b99733e879e8baf04a9800179450829003019150a260045481101580156106c6575060025f9054906101000a90046001600160a01b03166001600160a01b0316635c975abb6040518163ffffffff1660e01b8152600401602060405180830381865afa1580156106a2573d5f5f3e3d5ffd5b505050506040513d601f19601f820116820180604052508101906106c69190611a51565b156107685760025f9054906101000a90046001600160a01b03166001600160a01b0316633f4ba83a6040518163ffffffff1660e01b81526004015f604051808303815f87803b158015610717575f5ffd5b505af1158015610729573d5f5f3e3d5ffd5b50505050427fd9e5e6ee504cfba36c7b8913400b667468850073114254e604ebfd124e1ae1638260405161075f91815260200190565b60405180910390a25b50505050565b5f5f5f5f61077a610fc2565b6004544260068190556007805460ff1916928410159283179055604080518781526020810187905290810185905260608101849052608081018390529599509397509195509350917febe8de9da4d3668ba0df3bf4576fefbb2c084f6f17fe72703e4165722a8bbc079060a00160405180910390a28061097e575f85612710600454866108079190611a84565b6108119190611a9b565b61081b9190611aba565b6004546040805183815260208101879052808201929092525191925042917f46508c14c5deb1fc9126b7d576dbded816dd3c8774635707894a1b6426654c049181900360600190a260025f9054906101000a90046001600160a01b03166001600160a01b0316635c975abb6040518163ffffffff1660e01b8152600401602060405180830381865afa1580156108b3573d5f5f3e3d5ffd5b505050506040513d601f19601f820116820180604052508101906108d79190611a51565b6109785760025f9054906101000a90046001600160a01b03166001600160a01b0316638456cb596040518163ffffffff1660e01b81526004015f604051808303815f87803b158015610927575f5ffd5b505af1158015610939573d5f5f3e3d5ffd5b50505050427f1d887312f96636242c14964fa6035cc795d171eb37411d7f88a4c2036f6cba3d8460405161096f91815260200190565b60405180910390a25b50610a94565b60025f9054906101000a90046001600160a01b03166001600160a01b0316635c975abb6040518163ffffffff1660e01b8152600401602060405180830381865afa1580156109ce573d5f5f3e3d5ffd5b505050506040513d601f19601f820116820180604052508101906109f29190611a51565b15610a945760025f9054906101000a90046001600160a01b03166001600160a01b0316633f4ba83a6040518163ffffffff1660e01b81526004015f604051808303815f87803b158015610a43575f5ffd5b505af1158015610a55573d5f5f3e3d5ffd5b50505050427fd9e5e6ee504cfba36c7b8913400b667468850073114254e604ebfd124e1ae16383604051610a8b91815260200190565b60405180910390a25b5050505050565b610aa3611346565b610aac826113ea565b610ab682826113f2565b5050565b5f610ac36114ae565b505f516020611b4c5f395f51905f5290565b5f5f5f5f5f5f5f5f5f610ae6610fc2565b809950819a50829b50839c50505050506004549450600454861015935060025f9054906101000a90046001600160a01b03166001600160a01b0316635c975abb6040518163ffffffff1660e01b8152600401602060405180830381865afa158015610b53573d5f5f3e3d5ffd5b505050506040513d601f19601f82011682018060405250810190610b779190611a51565b9250610b81610e7b565b915083610bb3578861271060045489610b9a9190611a84565b610ba49190611a9b565b610bae9190611aba565b610bb5565b5f5b9050909192939495969798565b610bca611236565b610bd35f6114f7565b565b610bdd611236565b6003546040516001600160a01b038084169216907f078c3b417dadf69374a59793b829c52001247130433427049317bde56607b1b7905f90a3600380546001600160a01b0319166001600160a01b0392909216919091179055565b5f610c41611567565b805490915060ff600160401b820416159067ffffffffffffffff165f81158015610c685750825b90505f8267ffffffffffffffff166001148015610c845750303b155b905081158015610c92575080155b15610cb05760405163f92ee8a960e01b815260040160405180910390fd5b845467ffffffffffffffff191660011785558315610cda57845460ff60401b1916600160401b1785555b6001600160a01b038b16610d015760405163d92e233d60e01b815260040160405180910390fd5b6001600160a01b038a16610d285760405163d92e233d60e01b815260040160405180910390fd5b6001600160a01b038916610d4f5760405163d92e233d60e01b815260040160405180910390fd5b6001600160a01b038816610d765760405163d92e233d60e01b815260040160405180910390fd5b851580610d845750614e2086115b15610daa5760405163046a85ef60e31b8152600481018790526024015b60405180910390fd5b610db38b611591565b5f80546001600160a01b03808d166001600160a01b031992831617909255600180548c8416908316179055600280548b84169216919091179055871615610e1057600380546001600160a01b0319166001600160a01b0389161790555b6004869055610e106005556007805460ff191660011790558315610e6e57845460ff60401b19168555604051600181527fc7f505b2f371ae2175ee4913f4499e1f2633a7b5936321eed1cdaeb6115181d29060200160405180910390a15b5050505050505050505050565b6003545f906001600160a01b031615610f305760035f9054906101000a90046001600160a01b03166001600160a01b031663feaf968c6040518163ffffffff1660e01b815260040160a060405180830381865afa925050508015610efc575060408051601f3d908101601f19168201909252610ef991810190611ae6565b60015b15610f30575f84138015610f1b5750600554610f188342611aba565b11155b15610f2a575091949350505050565b50505050505b600254604080516371450dc360e11b815290515f926001600160a01b03169163e28a1b869160048083019260209291908290030181865afa158015610f77573d5f5f3e3d5ffd5b505050506040513d601f19601f82011682018060405250810190610f9b9190611b34565b9050805f03610fbd57604051631821d12360e31b815260040160405180910390fd5b919050565b5f5f5f5f60015f9054906101000a90046001600160a01b03166001600160a01b031663ff50abdc6040518163ffffffff1660e01b8152600401602060405180830381865afa158015611016573d5f5f3e3d5ffd5b505050506040513d601f19601f8201168201806040525081019061103a9190611b34565b93505f5f9054906101000a90046001600160a01b03166001600160a01b03166318160ddd6040518163ffffffff1660e01b8152600401602060405180830381865afa15801561108b573d5f5f3e3d5ffd5b505050506040513d601f19601f820116820180604052508101906110af9190611b34565b9250825f036110c657505f91508190505f1961111a565b5f6110cf610e7b565b9050620186a06110df8286611a84565b6110e99190611a9b565b9250825f036110ff57505f91505f19905061111a565b8261110c61271087611a84565b6111169190611a9b565b9150505b90919293565b5f5f61112a610fc2565b600454111595945050505050565b611140611236565b80158061114e5750614e2081115b1561116f5760405163046a85ef60e31b815260048101829052602401610da1565b60045460408051918252602082018390527fe6b782a9c9128bdb75a3f0fc9d04e645b2b76ae80620e5ae506efbc4cbbce3e5910160405180910390a1600455565b6111b8611236565b60055460408051918252602082018390527fdc69c1ebd7f21dc66c736c87fb4de0dd6824633b099f73165f3b2b7bce220341910160405180910390a1600555565b611201611236565b6001600160a01b03811661122a57604051631e4fbdf760e01b81525f6004820152602401610da1565b611233816114f7565b50565b336112687f9016d09d72d40fdae2fd8ceac6b6234c7706214fd39c1cd1e609a0528c199300546001600160a01b031690565b6001600160a01b031614610bd35760405163118cdaa760e01b8152336004820152602401610da1565b61129f8484848460016115a2565b61076857604051635274afe760e01b81526001600160a01b0385166004820152602401610da1565b6112d38383835f61160f565b611341576112e483835f600161160f565b61130c57604051635274afe760e01b81526001600160a01b0384166004820152602401610da1565b611319838383600161160f565b61134157604051635274afe760e01b81526001600160a01b0384166004820152602401610da1565b505050565b306001600160a01b037f00000000000000000000000000000000000000000000000000000000000000001614806113cc57507f00000000000000000000000000000000000000000000000000000000000000006001600160a01b03166113c05f516020611b4c5f395f51905f52546001600160a01b031690565b6001600160a01b031614155b15610bd35760405163703e46dd60e11b815260040160405180910390fd5b611233611236565b816001600160a01b03166352d1902d6040518163ffffffff1660e01b8152600401602060405180830381865afa92505050801561144c575060408051601f3d908101601f1916820190925261144991810190611b34565b60015b61147457604051634c9c8ce360e01b81526001600160a01b0383166004820152602401610da1565b5f516020611b4c5f395f51905f5281146114a457604051632a87526960e21b815260048101829052602401610da1565b6113418383611671565b306001600160a01b037f00000000000000000000000000000000000000000000000000000000000000001614610bd35760405163703e46dd60e11b815260040160405180910390fd5b7f9016d09d72d40fdae2fd8ceac6b6234c7706214fd39c1cd1e609a0528c19930080546001600160a01b031981166001600160a01b03848116918217845560405192169182907f8be0079c531659141344cd1fd0a4f28419497f9722a3daafe3b4186f6b6457e0905f90a3505050565b5f807ff0c57e16840df040f15088dc2f81fe391c3923bec73e23a9662efc9c229c6a005b92915050565b6115996116c6565b611233816116eb565b6040516323b872dd60e01b5f8181526001600160a01b038781166004528616602452604485905291602083606481808c5af1925060015f511483166115fe5783831516156115f2573d5f823e3d81fd5b5f883b113d1516831692505b604052505f60605295945050505050565b60405163095ea7b360e01b5f8181526001600160a01b038616600452602485905291602083604481808b5af1925060015f51148316611665578383151615611659573d5f823e3d81fd5b5f873b113d1516831692505b60405250949350505050565b61167a826116f3565b6040516001600160a01b038316907fbc7cd75a20ee27fd9adebab32041f755214dbc6bffa90cc0225b39da2e5c2d3b905f90a28051156116be576113418282611756565b610ab66117f6565b6116ce611815565b610bd357604051631afcd79f60e31b815260040160405180910390fd5b6112016116c6565b806001600160a01b03163b5f0361172857604051634c9c8ce360e01b81526001600160a01b0382166004820152602401610da1565b5f516020611b4c5f395f51905f5280546001600160a01b0319166001600160a01b0392909216919091179055565b60605f611763848461182e565b905080801561178457505f3d118061178457505f846001600160a01b03163b115b1561179957611791611841565b91505061158b565b80156117c357604051639996b31560e01b81526001600160a01b0385166004820152602401610da1565b3d156117d6576117d161185a565b6117ef565b60405163d6bda27560e01b815260040160405180910390fd5b5092915050565b3415610bd35760405163b398979f60e01b815260040160405180910390fd5b5f61181e611567565b54600160401b900460ff16919050565b5f5f5f835160208501865af49392505050565b6040513d81523d5f602083013e3d602001810160405290565b6040513d5f823e3d81fd5b5f60208284031215611875575f5ffd5b5035919050565b6001600160a01b0381168114611233575f5ffd5b634e487b7160e01b5f52604160045260245ffd5b5f5f604083850312156118b5575f5ffd5b82356118c08161187c565b9150602083013567ffffffffffffffff8111156118db575f5ffd5b8301601f810185136118eb575f5ffd5b803567ffffffffffffffff81111561190557611905611890565b604051601f8201601f19908116603f0116810167ffffffffffffffff8111828210171561193457611934611890565b60405281815282820160200187101561194b575f5ffd5b816020840160208301375f602083830101528093505050509250929050565b5f6020828403121561197a575f5ffd5b81356119858161187c565b9392505050565b5f5f5f5f5f5f60c087890312156119a1575f5ffd5b86356119ac8161187c565b955060208701356119bc8161187c565b945060408701356119cc8161187c565b935060608701356119dc8161187c565b925060808701356119ec8161187c565b9598949750929591949360a090920135925050565b602081525f82518060208401528060208501604085015e5f604082850101526040601f19601f83011684010191505092915050565b5f60208284031215611a46575f5ffd5b81516119858161187c565b5f60208284031215611a61575f5ffd5b81518015158114611985575f5ffd5b634e487b7160e01b5f52601160045260245ffd5b808202811582820484141761158b5761158b611a70565b5f82611ab557634e487b7160e01b5f52601260045260245ffd5b500490565b8181038181111561158b5761158b611a70565b805169ffffffffffffffffffff81168114610fbd575f5ffd5b5f5f5f5f5f60a08688031215611afa575f5ffd5b611b0386611acd565b60208701516040880151606089015192975090955093509150611b2860808701611acd565b90509295509295909350565b5f60208284031215611b44575f5ffd5b505191905056fe360894a13ba1a3210667c828492db98dca3e2076cc3735a920a3ca505d382bbca2646970667358221220e59f06680c3cff855bd6c1cafc6fb36819effead8e5fabadcf590f2503d98c3664736f6c634300081c0033",
  "linkReferences": {},
  "deployedLinkReferences": {},
  "immutableReferences": {
    "957": [
      {
        "length": 32,
        "start": 4945
      },
      {
        "length": 32,
        "start": 4986
      },
      {
        "length": 32,
        "start": 5305
      }
    ]
  },
  "inputSourceName": "project/contracts/Reserve.sol",
  "buildInfoId": "solc-0_8_28-981cdf4f60934fb21f2c4c507db15ab46b35df43"
}