{
  "_format": "hh3-artifact-1",
  "contractName": "SerialNumber",
  "sourceName": "contracts/SerialNumber.sol",
  "abi": [
    {
      "inputs": [],
      "stateMutability": "nonpayable",
      "type": "constructor"
    },
    {
      "inputs": [
        {
          "internalType": "address",
          "name": "target",
          "type": "address"
        }
      ],
      "name": "AddressEmptyCode",
      "type": "error"
    },
    {
      "inputs": [
        {
          "internalType": "address",
          "name": "implementation",
          "type": "address"
        }
      ],
      "name": "ERC1967InvalidImplementation",
      "type": "error"
    },
    {
      "inputs": [],
      "name": "ERC1967NonPayable",
      "type": "error"
    },
    {
      "inputs": [],
      "name": "EmptyPrefix",
      "type": "error"
    },
    {
      "inputs": [],
      "name": "FailedCall",
      "type": "error"
    },
    {
      "inputs": [],
      "name": "InvalidInitialization",
      "type": "error"
    },
    {
      "inputs": [
        {
          "internalType": "uint16",
          "name": "year",
          "type": "uint16"
        }
      ],
      "name": "InvalidYear",
      "type": "error"
    },
    {
      "inputs": [],
      "name": "NotInitializing",
      "type": "error"
    },
    {
      "inputs": [
        {
          "internalType": "address",
          "name": "owner",
          "type": "address"
        }
      ],
      "name": "OwnableInvalidOwner",
      "type": "error"
    },
    {
      "inputs": [
        {
          "internalType": "address",
          "name": "account",
          "type": "address"
        }
      ],
      "name": "OwnableUnauthorizedAccount",
      "type": "error"
    },
    {
      "inputs": [
        {
          "internalType": "string",
          "name": "code",
          "type": "string"
        }
      ],
      "name": "SerialCodeExists",
      "type": "error"
    },
    {
      "inputs": [
        {
          "internalType": "uint256",
          "name": "id",
          "type": "uint256"
        }
      ],
      "name": "SerialInactive",
      "type": "error"
    },
    {
      "inputs": [
        {
          "internalType": "uint256",
          "name": "id",
          "type": "uint256"
        }
      ],
      "name": "SerialNotFound",
      "type": "error"
    },
    {
      "inputs": [],
      "name": "UUPSUnauthorizedCallContext",
      "type": "error"
    },
    {
      "inputs": [
        {
          "internalType": "bytes32",
          "name": "slot",
          "type": "bytes32"
        }
      ],
      "name": "UUPSUnsupportedProxiableUUID",
      "type": "error"
    },
    {
      "inputs": [
        {
          "internalType": "address",
          "name": "caller",
          "type": "address"
        }
      ],
      "name": "UnauthorizedIssuer",
      "type": "error"
    },
    {
      "inputs": [],
      "name": "ZeroAddress",
      "type": "error"
    },
    {
      "anonymous": false,
      "inputs": [
        {
          "indexed": false,
          "internalType": "string",
          "name": "oldPrefix",
          "type": "string"
        },
        {
          "indexed": false,
          "internalType": "string",
          "name": "newPrefix",
          "type": "string"
        }
      ],
      "name": "DefaultPrefixUpdated",
      "type": "event"
    },
    {
      "anonymous": false,
      "inputs": [
        {
          "indexed": false,
          "internalType": "uint64",
          "name": "version",
          "type": "uint64"
        }
      ],
      "name": "Initialized",
      "type": "event"
    },
    {
      "anonymous": false,
      "inputs": [
        {
          "indexed": true,
          "internalType": "address",
          "name": "issuer",
          "type": "address"
        }
      ],
      "name": "IssuerAuthorized",
      "type": "event"
    },
    {
      "anonymous": false,
      "inputs": [
        {
          "indexed": true,
          "internalType": "address",
          "name": "issuer",
          "type": "address"
        }
      ],
      "name": "IssuerRevoked",
      "type": "event"
    },
    {
      "anonymous": false,
      "inputs": [
        {
          "indexed": true,
          "internalType": "address",
          "name": "previousOwner",
          "type": "address"
        },
        {
          "indexed": true,
          "internalType": "address",
          "name": "newOwner",
          "type": "address"
        }
      ],
      "name": "OwnershipTransferred",
      "type": "event"
    },
    {
      "anonymous": false,
      "inputs": [
        {
          "indexed": true,
          "internalType": "uint256",
          "name": "id",
          "type": "uint256"
        },
        {
          "indexed": true,
          "internalType": "address",
          "name": "by",
          "type": "address"
        }
      ],
      "name": "SerialDeactivated",
      "type": "event"
    },
    {
      "anonymous": false,
      "inputs": [
        {
          "indexed": true,
          "internalType": "uint256",
          "name": "id",
          "type": "uint256"
        },
        {
          "indexed": false,
          "internalType": "string",
          "name": "serialCode",
          "type": "string"
        },
        {
          "indexed": false,
          "internalType": "string",
          "name": "prefix",
          "type": "string"
        },
        {
          "indexed": false,
          "internalType": "uint16",
          "name": "year",
          "type": "uint16"
        },
        {
          "indexed": false,
          "internalType": "uint256",
          "name": "counter",
          "type": "uint256"
        },
        {
          "indexed": true,
          "internalType": "address",
          "name": "issuedTo",
          "type": "address"
        },
        {
          "indexed": true,
          "internalType": "address",
          "name": "issuer",
          "type": "address"
        }
      ],
      "name": "SerialGenerated",
      "type": "event"
    },
    {
      "anonymous": false,
      "inputs": [
        {
          "indexed": true,
          "internalType": "uint256",
          "name": "id",
          "type": "uint256"
        },
        {
          "indexed": true,
          "internalType": "address",
          "name": "from",
          "type": "address"
        },
        {
          "indexed": true,
          "internalType": "address",
          "name": "to",
          "type": "address"
        }
      ],
      "name": "SerialTransferred",
      "type": "event"
    },
    {
      "anonymous": false,
      "inputs": [
        {
          "indexed": true,
          "internalType": "address",
          "name": "implementation",
          "type": "address"
        }
      ],
      "name": "Upgraded",
      "type": "event"
    },
    {
      "inputs": [],
      "name": "UPGRADE_INTERFACE_VERSION",
      "outputs": [
        {
          "internalType": "string",
          "name": "",
          "type": "string"
        }
      ],
      "stateMutability": "view",
      "type": "function"
    },
    {
      "inputs": [
        {
          "internalType": "address",
          "name": "issuer",
          "type": "address"
        }
      ],
      "name": "authorizeIssuer",
      "outputs": [],
      "stateMutability": "nonpayable",
      "type": "function"
    },
    {
      "inputs": [
        {
          "internalType": "address",
          "name": "",
          "type": "address"
        }
      ],
      "name": "authorizedIssuers",
      "outputs": [
        {
          "internalType": "bool",
          "name": "",
          "type": "bool"
        }
      ],
      "stateMutability": "view",
      "type": "function"
    },
    {
      "inputs": [],
      "name": "currentYear",
      "outputs": [
        {
          "internalType": "uint16",
          "name": "",
          "type": "uint16"
        }
      ],
      "stateMutability": "view",
      "type": "function"
    },
    {
      "inputs": [
        {
          "internalType": "uint256",
          "name": "id",
          "type": "uint256"
        }
      ],
      "name": "deactivate",
      "outputs": [],
      "stateMutability": "nonpayable",
      "type": "function"
    },
    {
      "inputs": [],
      "name": "defaultPrefix",
      "outputs": [
        {
          "internalType": "string",
          "name": "",
          "type": "string"
        }
      ],
      "stateMutability": "view",
      "type": "function"
    },
    {
      "inputs": [
        {
          "internalType": "string",
          "name": "code",
          "type": "string"
        }
      ],
      "name": "exists",
      "outputs": [
        {
          "internalType": "bool",
          "name": "",
          "type": "bool"
        }
      ],
      "stateMutability": "view",
      "type": "function"
    },
    {
      "inputs": [
        {
          "internalType": "address",
          "name": "issuedTo",
          "type": "address"
        }
      ],
      "name": "generate",
      "outputs": [
        {
          "internalType": "uint256",
          "name": "id",
          "type": "uint256"
        },
        {
          "internalType": "string",
          "name": "serialCode",
          "type": "string"
        }
      ],
      "stateMutability": "nonpayable",
      "type": "function"
    },
    {
      "inputs": [
        {
          "internalType": "string",
          "name": "prefix",
          "type": "string"
        },
        {
          "internalType": "uint16",
          "name": "year",
          "type": "uint16"
        },
        {
          "internalType": "address",
          "name": "issuedTo",
          "type": "address"
        }
      ],
      "name": "generateForYear",
      "outputs": [
        {
          "internalType": "uint256",
          "name": "id",
          "type": "uint256"
        },
        {
          "internalType": "string",
          "name": "serialCode",
          "type": "string"
        }
      ],
      "stateMutability": "nonpayable",
      "type": "function"
    },
    {
      "inputs": [
        {
          "internalType": "string",
          "name": "prefix",
          "type": "string"
        },
        {
          "internalType": "address",
          "name": "issuedTo",
          "type": "address"
        }
      ],
      "name": "generateWithPrefix",
      "outputs": [
        {
          "internalType": "uint256",
          "name": "id",
          "type": "uint256"
        },
        {
          "internalType": "string",
          "name": "serialCode",
          "type": "string"
        }
      ],
      "stateMutability": "nonpayable",
      "type": "function"
    },
    {
      "inputs": [
        {
          "internalType": "uint256",
          "name": "id",
          "type": "uint256"
        }
      ],
      "name": "getSerial",
      "outputs": [
        {
          "components": [
            {
              "internalType": "uint256",
              "name": "id",
              "type": "uint256"
            },
            {
              "internalType": "string",
              "name": "serialCode",
              "type": "string"
            },
            {
              "internalType": "string",
              "name": "prefix",
              "type": "string"
            },
            {
              "internalType": "uint16",
              "name": "year",
              "type": "uint16"
            },
            {
              "internalType": "uint256",
              "name": "counter",
              "type": "uint256"
            },
            {
              "internalType": "address",
              "name": "issuedTo",
              "type": "address"
            },
            {
              "internalType": "uint256",
              "name": "issuedAt",
              "type": "uint256"
            },
            {
              "internalType": "bool",
              "name": "active",
              "type": "bool"
            }
          ],
          "internalType": "struct SerialNumber.Serial",
          "name": "",
          "type": "tuple"
        }
      ],
      "stateMutability": "view",
      "type": "function"
    },
    {
      "inputs": [
        {
          "internalType": "string",
          "name": "code",
          "type": "string"
        }
      ],
      "name": "getSerialByCode",
      "outputs": [
        {
          "components": [
            {
              "internalType": "uint256",
              "name": "id",
              "type": "uint256"
            },
            {
              "internalType": "string",
              "name": "serialCode",
              "type": "string"
            },
            {
              "internalType": "string",
              "name": "prefix",
              "type": "string"
            },
            {
              "internalType": "uint16",
              "name": "year",
              "type": "uint16"
            },
            {
              "internalType": "uint256",
              "name": "counter",
              "type": "uint256"
            },
            {
              "internalType": "address",
              "name": "issuedTo",
              "type": "address"
            },
            {
              "internalType": "uint256",
              "name": "issuedAt",
              "type": "uint256"
            },
            {
              "internalType": "bool",
              "name": "active",
              "type": "bool"
            }
          ],
          "internalType": "struct SerialNumber.Serial",
          "name": "",
          "type": "tuple"
        }
      ],
      "stateMutability": "view",
      "type": "function"
    },
    {
      "inputs": [
        {
          "internalType": "address",
          "name": "holder",
          "type": "address"
        }
      ],
      "name": "getSerialsOf",
      "outputs": [
        {
          "internalType": "uint256[]",
          "name": "",
          "type": "uint256[]"
        }
      ],
      "stateMutability": "view",
      "type": "function"
    },
    {
      "inputs": [
        {
          "internalType": "address",
          "name": "initialOwner",
          "type": "address"
        },
        {
          "internalType": "string",
          "name": "initPrefix",
          "type": "string"
        }
      ],
      "name": "initialize",
      "outputs": [],
      "stateMutability": "nonpayable",
      "type": "function"
    },
    {
      "inputs": [
        {
          "internalType": "string",
          "name": "prefix",
          "type": "string"
        },
        {
          "internalType": "uint16",
          "name": "year",
          "type": "uint16"
        }
      ],
      "name": "nextCounter",
      "outputs": [
        {
          "internalType": "uint256",
          "name": "",
          "type": "uint256"
        }
      ],
      "stateMutability": "view",
      "type": "function"
    },
    {
      "inputs": [],
      "name": "owner",
      "outputs": [
        {
          "internalType": "address",
          "name": "",
          "type": "address"
        }
      ],
      "stateMutability": "view",
      "type": "function"
    },
    {
      "inputs": [],
      "name": "proxiableUUID",
      "outputs": [
        {
          "internalType": "bytes32",
          "name": "",
          "type": "bytes32"
        }
      ],
      "stateMutability": "view",
      "type": "function"
    },
    {
      "inputs": [],
      "name": "renounceOwnership",
      "outputs": [],
      "stateMutability": "nonpayable",
      "type": "function"
    },
    {
      "inputs": [
        {
          "internalType": "address",
          "name": "issuer",
          "type": "address"
        }
      ],
      "name": "revokeIssuer",
      "outputs": [],
      "stateMutability": "nonpayable",
      "type": "function"
    },
    {
      "inputs": [
        {
          "internalType": "string",
          "name": "newPrefix",
          "type": "string"
        }
      ],
      "name": "setDefaultPrefix",
      "outputs": [],
      "stateMutability": "nonpayable",
      "type": "function"
    },
    {
      "inputs": [],
      "name": "totalGenerated",
      "outputs": [
        {
          "internalType": "uint256",
          "name": "",
          "type": "uint256"
        }
      ],
      "stateMutability": "view",
      "type": "function"
    },
    {
      "inputs": [
        {
          "internalType": "uint256",
          "name": "id",
          "type": "uint256"
        },
        {
          "internalType": "address",
          "name": "to",
          "type": "address"
        }
      ],
      "name": "transfer",
      "outputs": [],
      "stateMutability": "nonpayable",
      "type": "function"
    },
    {
      "inputs": [
        {
          "internalType": "address",
          "name": "newOwner",
          "type": "address"
        }
      ],
      "name": "transferOwnership",
      "outputs": [],
      "stateMutability": "nonpayable",
      "type": "function"
    },
    {
      "inputs": [
        {
          "internalType": "address",
          "name": "newImplementation",
          "type": "address"
        },
        {
          "internalType": "bytes",
          "name": "data",
          "type": "bytes"
        }
      ],
      "name": "upgradeToAndCall",
      "outputs": [],
      "stateMutability": "payable",
      "type": "function"
    }
  ],
  "bytecode": "0x60a060405230608052348015610013575f5ffd5b5061001c610021565b6100d3565b7ff0c57e16840df040f15088dc2f81fe391c3923bec73e23a9662efc9c229c6a00805468010000000000000000900460ff16156100715760405163f92ee8a960e01b815260040160405180910390fd5b80546001600160401b03908116146100d05780546001600160401b0319166001600160401b0390811782556040519081527fc7f505b2f371ae2175ee4913f4499e1f2633a7b5936321eed1cdaeb6115181d29060200160405180910390a15b50565b60805161251f6100f95f395f81816115010152818161152a0152611669015261251f5ff3fe608060405260043610610146575f3560e01c8063715018a6116100b3578063ad3cb1cc1161006d578063ad3cb1cc146103b1578063b7760c8f146103ee578063be9773c61461040d578063f2fde38b14610421578063f399e22e14610440578063f731fa0f1461045f575f5ffd5b8063715018a614610300578063836860f0146103145780638b35a80c146103335780638da5cb5b14610347578063916b9bef14610373578063957fd69714610392575f5ffd5b80632fa61cd8116101045780632fa61cd814610242578063436693d5146102615780634645a3bb146102805780634f1ef286146102ac57806352d1902d146102bf57806362951fbb146102e1575f5ffd5b80626296791461014a578063033980011461016b5780630b5a006b146101a057806312d66bb8146101c7578063261a323e146101e65780632a5637ca14610215575b5f5ffd5b348015610155575f5ffd5b50610169610164366004611bce565b61048d565b005b348015610176575f5ffd5b5061018a610185366004611c2b565b6104dd565b6040516101979190611c97565b60405180910390f35b3480156101ab575f5ffd5b506101b46106c5565b60405161ffff9091168152602001610197565b3480156101d2575f5ffd5b506101696101e1366004611c2b565b6106d4565b3480156101f1575f5ffd5b50610205610200366004611c2b565b61074b565b6040519015158152602001610197565b348015610220575f5ffd5b5061023461022f366004611d40565b610777565b604051610197929190611da0565b34801561024d575f5ffd5b5061023461025c366004611bce565b61082f565b34801561026c575f5ffd5b5061016961027b366004611bce565b610925565b34801561028b575f5ffd5b5061029f61029a366004611bce565b61099f565b6040516101979190611db8565b6101696102ba366004611e0e565b610a08565b3480156102ca575f5ffd5b506102d3610a27565b604051908152602001610197565b3480156102ec575f5ffd5b506102d36102fb366004611ecf565b610a42565b34801561030b575f5ffd5b50610169610a87565b34801561031f575f5ffd5b5061018a61032e366004611f1e565b610a9a565b34801561033e575f5ffd5b506102d3610c66565b348015610352575f5ffd5b5061035b610c76565b6040516001600160a01b039091168152602001610197565b34801561037e575f5ffd5b5061016961038d366004611f1e565b610ca4565b34801561039d575f5ffd5b506102346103ac366004611f35565b610da8565b3480156103bc575f5ffd5b506103e1604051806040016040528060058152602001640352e302e360dc1b81525081565b6040516101979190611f7b565b3480156103f9575f5ffd5b50610169610408366004611f8d565b610e70565b348015610418575f5ffd5b506103e1610fd6565b34801561042c575f5ffd5b5061016961043b366004611bce565b611062565b34801561044b575f5ffd5b5061016961045a366004611fb7565b61109f565b34801561046a575f5ffd5b50610205610479366004611bce565b5f6020819052908152604090205460ff1681565b6104956111f3565b6001600160a01b0381165f81815260208190526040808220805460ff19169055517f95a4c2ae425bb769549aa1a911911ff57c17ae811ae8c8962d0b9746fcb153979190a250565b6104e5611b65565b5f600384846040516104f8929190612005565b9081526020016040518091039020549050805f036105305760405163751c7f1160e11b81525f60048201526024015b60405180910390fd5b60025f8281526020019081526020015f20604051806101000160405290815f820154815260200160018201805461056690612014565b80601f016020809104026020016040519081016040528092919081815260200182805461059290612014565b80156105dd5780601f106105b4576101008083540402835291602001916105dd565b820191905f5260205f20905b8154815290600101906020018083116105c057829003601f168201915b505050505081526020016002820180546105f690612014565b80601f016020809104026020016040519081016040528092919081815260200182805461062290612014565b801561066d5780601f106106445761010080835404028352916020019161066d565b820191905f5260205f20905b81548152906001019060200180831161065057829003601f168201915b5050509183525050600382015461ffff1660208201526004820154604082015260058201546001600160a01b031660608201526006820154608082015260079091015460ff16151560a0909101529150505b92915050565b5f6106cf42611225565b905090565b6106dc6111f3565b5f8190036106fd57604051637ebf292760e01b815260040160405180910390fd5b7f2b5b495ab25ce7dcd44a137d17af10cfe69e0cbe32c4b71d0d8c177f8cacac3f6006838360405161073193929190612074565b60405180910390a1600661074682848361215b565b505050565b5f6003838360405161075e929190612005565b9081526040519081900360200190205415159392505050565b5f60606107826111f3565b5f8590036107a357604051637ebf292760e01b815260040160405180910390fd5b6107e48461ffff1610806107bc57506108348461ffff16115b156107e05760405163dfe7135b60e01b815261ffff85166004820152602401610527565b61082286868080601f0160208091040260200160405190810160405280939291908181526020018383808284375f920191909152508892508791506112429050565b9150915094509492505050565b335f9081526020819052604081205460609060ff1615801561086a5750610854610c76565b6001600160a01b0316336001600160a01b031614155b1561088a57604051632eaf165960e11b8152336004820152602401610527565b61091c6006805461089a90612014565b80601f01602080910402602001604051908101604052809291908181526020018280546108c690612014565b80156109115780601f106108e857610100808354040283529160200191610911565b820191905f5260205f20905b8154815290600101906020018083116108f457829003601f168201915b5050505050846114cf565b91509150915091565b61092d6111f3565b6001600160a01b0381166109545760405163d92e233d60e01b815260040160405180910390fd5b6001600160a01b0381165f81815260208190526040808220805460ff19166001179055517f8b4006ca14f23d4e7aa8d120d1ab7c3761d650eefac1a5d6732dbea94b54ea249190a250565b6001600160a01b0381165f908152600460209081526040918290208054835181840281018401909452808452606093928301828280156109fc57602002820191905f5260205f20905b8154815260200190600101908083116109e8575b50505050509050919050565b610a106114f6565b610a198261159a565b610a2382826115a2565b5050565b5f610a3061165e565b505f5160206124ca5f395f51905f5290565b5f60018484604051610a55929190612005565b908152604080516020928190038301902061ffff85165f9081529252902054610a7f906001612228565b949350505050565b610a8f6111f3565b610a985f6116a7565b565b610aa2611b65565b5f828152600260205260408120600601549003610ad55760405163751c7f1160e11b815260048101839052602401610527565b60025f8381526020019081526020015f20604051806101000160405290815f8201548152602001600182018054610b0b90612014565b80601f0160208091040260200160405190810160405280929190818152602001828054610b3790612014565b8015610b825780601f10610b5957610100808354040283529160200191610b82565b820191905f5260205f20905b815481529060010190602001808311610b6557829003601f168201915b50505050508152602001600282018054610b9b90612014565b80601f0160208091040260200160405190810160405280929190818152602001828054610bc790612014565b8015610c125780601f10610be957610100808354040283529160200191610c12565b820191905f5260205f20905b815481529060010190602001808311610bf557829003601f168201915b5050509183525050600382015461ffff1660208201526004820154604082015260058201546001600160a01b031660608201526006820154608082015260079091015460ff16151560a09091015292915050565b5f60016005546106cf919061223b565b7f9016d09d72d40fdae2fd8ceac6b6234c7706214fd39c1cd1e609a0528c199300546001600160a01b031690565b335f9081526020819052604090205460ff16158015610cdc5750610cc6610c76565b6001600160a01b0316336001600160a01b031614155b15610cfc57604051632eaf165960e11b8152336004820152602401610527565b5f818152600260205260408120600601549003610d2f5760405163751c7f1160e11b815260048101829052602401610527565b5f8181526002602052604090206007015460ff16610d6357604051631021e12560e31b815260048101829052602401610527565b5f81815260026020526040808220600701805460ff1916905551339183917f67e4f9d03154636f0fe9b72bcdcda8d04e252b133e2fc103a2e975a74b820efb9190a350565b335f9081526020819052604081205460609060ff16158015610de35750610dcd610c76565b6001600160a01b0316336001600160a01b031614155b15610e0357604051632eaf165960e11b8152336004820152602401610527565b5f849003610e2457604051637ebf292760e01b815260040160405180910390fd5b610e6485858080601f0160208091040260200160405190810160405280939291908181526020018383808284375f920191909152508792506114cf915050565b91509150935093915050565b335f9081526020819052604090205460ff16158015610ea85750610e92610c76565b6001600160a01b0316336001600160a01b031614155b15610ec857604051632eaf165960e11b8152336004820152602401610527565b5f828152600260205260408120600601549003610efb5760405163751c7f1160e11b815260048101839052602401610527565b5f8281526002602052604090206007015460ff16610f2f57604051631021e12560e31b815260048101839052602401610527565b6001600160a01b038116610f565760405163d92e233d60e01b815260040160405180910390fd5b5f82815260026020908152604080832060050180546001600160a01b031981166001600160a01b038781169182179093558086526004855283862080546001810182559087529486209094018790559151911692839186917f7a6b11198c69eb67003a8ba890267e9e0f6f562a2f5301efeb90d4ea736fa08291a4505050565b60068054610fe390612014565b80601f016020809104026020016040519081016040528092919081815260200182805461100f90612014565b801561105a5780601f106110315761010080835404028352916020019161105a565b820191905f5260205f20905b81548152906001019060200180831161103d57829003601f168201915b505050505081565b61106a6111f3565b6001600160a01b03811661109357604051631e4fbdf760e01b81525f6004820152602401610527565b61109c816116a7565b50565b5f6110a8611717565b805490915060ff600160401b82041615906001600160401b03165f811580156110ce5750825b90505f826001600160401b031660011480156110e95750303b155b9050811580156110f7575080155b156111155760405163f92ee8a960e01b815260040160405180910390fd5b845467ffffffffffffffff19166001178555831561113f57845460ff60401b1916600160401b1785555b6001600160a01b0388166111665760405163d92e233d60e01b815260040160405180910390fd5b5f86900361118757604051637ebf292760e01b815260040160405180910390fd5b6111908861173f565b600661119d87898361215b565b50600160055583156111e957845460ff60401b19168555604051600181527fc7f505b2f371ae2175ee4913f4499e1f2633a7b5936321eed1cdaeb6115181d29060200160405180910390a15b5050505050505050565b336111fc610c76565b6001600160a01b031614610a985760405163118cdaa760e01b8152336004820152602401610527565b5f6301e13380816112368285612262565b610a7f906107b2612228565b5f60606001600160a01b03831661126c5760405163d92e233d60e01b815260040160405180910390fd5b60018560405161127c919061228c565b908152604080516020928190038301902061ffff87165f908152925281208054916112a683612297565b91905055505f6001866040516112bc919061228c565b908152604080516020928190038301902061ffff88165f908152925290205490506112e8868683611750565b91506003826040516112fa919061228c565b9081526020016040518091039020545f1461132a57816040516304506d9f60e01b81526004016105279190611f7b565b60058054905f61133983612297565b90915550604080516101008101825282815260208082018681528284018b905261ffff8a166060840152608083018690526001600160a01b03891660a08401524260c0840152600160e084018190525f868152600290935293909120825181559051939650909290918201906113af90826122af565b50604082015160028201906113c490826122af565b5060608201516003828101805461ffff191661ffff909316929092179091556080830151600483015560a08301516005830180546001600160a01b0319166001600160a01b0390921691909117905560c0830151600683015560e0909201516007909101805460ff191691151591909117905560405184919061144890859061228c565b9081526040805160209281900383018120939093556001600160a01b0387165f81815260048452918220805460018101825590835292909120909101859055339185907ff794d5c5fa0f243701bc1e47a9410f20c92b77456bafcec9d00a2631dc0ad758906114be9087908c908c908990612369565b60405180910390a450935093915050565b5f60605f6114dc42611225565b90506114e9858286611242565b92509250505b9250929050565b306001600160a01b037f000000000000000000000000000000000000000000000000000000000000000016148061157c57507f00000000000000000000000000000000000000000000000000000000000000006001600160a01b03166115705f5160206124ca5f395f51905f52546001600160a01b031690565b6001600160a01b031614155b15610a985760405163703e46dd60e11b815260040160405180910390fd5b61109c6111f3565b816001600160a01b03166352d1902d6040518163ffffffff1660e01b8152600401602060405180830381865afa9250505080156115fc575060408051601f3d908101601f191682019092526115f9918101906123a5565b60015b61162457604051634c9c8ce360e01b81526001600160a01b0383166004820152602401610527565b5f5160206124ca5f395f51905f52811461165457604051632a87526960e21b815260048101829052602401610527565b6107468383611791565b306001600160a01b037f00000000000000000000000000000000000000000000000000000000000000001614610a985760405163703e46dd60e11b815260040160405180910390fd5b7f9016d09d72d40fdae2fd8ceac6b6234c7706214fd39c1cd1e609a0528c19930080546001600160a01b031981166001600160a01b03848116918217845560405192169182907f8be0079c531659141344cd1fd0a4f28419497f9722a3daafe3b4186f6b6457e0905f90a3505050565b5f807ff0c57e16840df040f15088dc2f81fe391c3923bec73e23a9662efc9c229c6a006106bf565b6117476117e6565b61109c8161180b565b60608361175c84611813565b611767846006611922565b604051602001611779939291906123bc565b60405160208183030381529060405290509392505050565b61179a826119f3565b6040516001600160a01b038316907fbc7cd75a20ee27fd9adebab32041f755214dbc6bffa90cc0225b39da2e5c2d3b905f90a28051156117de576107468282611a56565b610a23611af6565b6117ee611b15565b610a9857604051631afcd79f60e31b815260040160405180910390fd5b61106a6117e6565b60608161ffff165f0361183d5750506040805180820190915260018152600360fc1b602082015290565b815f5b61ffff82161561186a5780611854816123f1565b91506118639050600a8361240f565b9150611840565b5f8160ff166001600160401b0381111561188657611886611dfa565b6040519080825280601f01601f1916602001820160405280156118b0576020820181803683370190505b5090505b61ffff851615610a7f57816118c881612432565b92506118d79050600a8661244d565b6118e2906030612470565b60f81b818360ff16815181106118fa576118fa612489565b60200101906001600160f81b03191690815f1a90535061191b600a8661240f565b94506118b4565b60605f8260ff166001600160401b0381111561194057611940611dfa565b6040519080825280601f01601f19166020018201604052801561196a576020820181803683370190505b5090505f5b8360ff168160ff1610156119eb57611988600a8661249d565b611993906030612470565b60f81b82826119a36001886124b0565b6119ad91906124b0565b60ff16815181106119c0576119c0612489565b60200101906001600160f81b03191690815f1a9053506119e1600a86612262565b945060010161196f565b509392505050565b806001600160a01b03163b5f03611a2857604051634c9c8ce360e01b81526001600160a01b0382166004820152602401610527565b5f5160206124ca5f395f51905f5280546001600160a01b0319166001600160a01b0392909216919091179055565b60605f611a638484611b2e565b9050808015611a8457505f3d1180611a8457505f846001600160a01b03163b115b15611a9957611a91611b41565b9150506106bf565b8015611ac357604051639996b31560e01b81526001600160a01b0385166004820152602401610527565b3d15611ad657611ad1611b5a565b611aef565b60405163d6bda27560e01b815260040160405180910390fd5b5092915050565b3415610a985760405163b398979f60e01b815260040160405180910390fd5b5f611b1e611717565b54600160401b900460ff16919050565b5f5f5f835160208501865af49392505050565b6040513d81523d5f602083013e3d602001810160405290565b6040513d5f823e3d81fd5b6040518061010001604052805f815260200160608152602001606081526020015f61ffff1681526020015f81526020015f6001600160a01b031681526020015f81526020015f151581525090565b80356001600160a01b0381168114611bc9575f5ffd5b919050565b5f60208284031215611bde575f5ffd5b611be782611bb3565b9392505050565b5f5f83601f840112611bfe575f5ffd5b5081356001600160401b03811115611c14575f5ffd5b6020830191508360208285010111156114ef575f5ffd5b5f5f60208385031215611c3c575f5ffd5b82356001600160401b03811115611c51575f5ffd5b611c5d85828601611bee565b90969095509350505050565b5f81518084528060208401602086015e5f602082860101526020601f19601f83011685010191505092915050565b60208152815160208201525f60208301516101006040840152611cbe610120840182611c69565b90506040840151601f19848303016060850152611cdb8282611c69565b91505061ffff6060850151166080840152608084015160a084015260a0840151611d1060c08501826001600160a01b03169052565b5060c084015160e084015260e08401516119eb61010085018215159052565b803561ffff81168114611bc9575f5ffd5b5f5f5f5f60608587031215611d53575f5ffd5b84356001600160401b03811115611d68575f5ffd5b611d7487828801611bee565b9095509350611d87905060208601611d2f565b9150611d9560408601611bb3565b905092959194509250565b828152604060208201525f610a7f6040830184611c69565b602080825282518282018190525f918401906040840190835b81811015611def578351835260209384019390920191600101611dd1565b509095945050505050565b634e487b7160e01b5f52604160045260245ffd5b5f5f60408385031215611e1f575f5ffd5b611e2883611bb3565b915060208301356001600160401b03811115611e42575f5ffd5b8301601f81018513611e52575f5ffd5b80356001600160401b03811115611e6b57611e6b611dfa565b604051601f8201601f19908116603f011681016001600160401b0381118282101715611e9957611e99611dfa565b604052818152828201602001871015611eb0575f5ffd5b816020840160208301375f602083830101528093505050509250929050565b5f5f5f60408486031215611ee1575f5ffd5b83356001600160401b03811115611ef6575f5ffd5b611f0286828701611bee565b9094509250611f15905060208501611d2f565b90509250925092565b5f60208284031215611f2e575f5ffd5b5035919050565b5f5f5f60408486031215611f47575f5ffd5b83356001600160401b03811115611f5c575f5ffd5b611f6886828701611bee565b9094509250611f15905060208501611bb3565b602081525f611be76020830184611c69565b5f5f60408385031215611f9e575f5ffd5b82359150611fae60208401611bb3565b90509250929050565b5f5f5f60408486031215611fc9575f5ffd5b611fd284611bb3565b925060208401356001600160401b03811115611fec575f5ffd5b611ff886828701611bee565b9497909650939450505050565b818382375f9101908152919050565b600181811c9082168061202857607f821691505b60208210810361204657634e487b7160e01b5f52602260045260245ffd5b50919050565b81835281816020850137505f828201602090810191909152601f909101601f19169091010190565b604081525f5f855461208581612014565b806040860152600182165f81146120a357600181146120bf576120f0565b60ff1983166060870152606082151560051b87010193506120f0565b885f5260205f205f5b838110156120e7578154888201606001526001909101906020016120c8565b87016060019450505b505050828103602084015261210681858761204c565b9695505050505050565b601f82111561074657805f5260205f20601f840160051c810160208510156121355750805b601f840160051c820191505b81811015612154575f8155600101612141565b5050505050565b6001600160401b0383111561217257612172611dfa565b612186836121808354612014565b83612110565b5f601f8411600181146121b7575f85156121a05750838201355b5f19600387901b1c1916600186901b178355612154565b5f83815260208120601f198716915b828110156121e657868501358255602094850194600190920191016121c6565b5086821015612202575f1960f88860031b161c19848701351681555b505060018560011b0183555050505050565b634e487b7160e01b5f52601160045260245ffd5b808201808211156106bf576106bf612214565b818103818111156106bf576106bf612214565b634e487b7160e01b5f52601260045260245ffd5b5f826122705761227061224e565b500490565b5f81518060208401855e5f93019283525090919050565b5f611be78284612275565b5f600182016122a8576122a8612214565b5060010190565b81516001600160401b038111156122c8576122c8611dfa565b6122dc816122d68454612014565b84612110565b6020601f82116001811461230e575f83156122f75750848201515b5f19600385901b1c1916600184901b178455612154565b5f84815260208120601f198516915b8281101561233d578785015182556020948501946001909201910161231d565b508482101561235a57868401515f19600387901b60f8161c191681555b50505050600190811b01905550565b608081525f61237b6080830187611c69565b828103602084015261238d8187611c69565b61ffff95909516604084015250506060015292915050565b5f602082840312156123b5575f5ffd5b5051919050565b5f6123c78286612275565b602d60f81b81526123db6001820186612275565b9050602d60f81b81526121066001820185612275565b5f60ff821660ff810361240657612406612214565b60010192915050565b5f61ffff8316806124225761242261224e565b8061ffff84160491505092915050565b5f60ff82168061244457612444612214565b5f190192915050565b5f61ffff8316806124605761246061224e565b8061ffff84160691505092915050565b60ff81811683821601908111156106bf576106bf612214565b634e487b7160e01b5f52603260045260245ffd5b5f826124ab576124ab61224e565b500690565b60ff82811682821603908111156106bf576106bf61221456fe360894a13ba1a3210667c828492db98dca3e2076cc3735a920a3ca505d382bbca2646970667358221220fc237e1d411946a93567e5ce2472a1406642087fa16c790ff1ac20c081e1138464736f6c634300081c0033",
  "linkReferences": {},
  "deployedLinkReferences": {},
  "immutableReferences": {
    "867": [
      {
        "length": 32,
        "start": 5377
      },
      {
        "length": 32,
        "start": 5418
      },
      {
        "length": 32,
        "start": 5737
      }
    ]
  },
  "inputSourceName": "project/contracts/SerialNumber.sol",
  "buildInfoId": "solc-0_8_28-588fee0bf38682420d5825ca519e6ef4418fdc94"
}