{
  "_format": "hh3-artifact-1",
  "contractName": "Treasury",
  "sourceName": "contracts/Treasury.sol",
  "abi": [
    {
      "inputs": [],
      "stateMutability": "nonpayable",
      "type": "constructor"
    },
    {
      "inputs": [
        {
          "internalType": "address",
          "name": "target",
          "type": "address"
        }
      ],
      "name": "AddressEmptyCode",
      "type": "error"
    },
    {
      "inputs": [
        {
          "internalType": "address",
          "name": "implementation",
          "type": "address"
        }
      ],
      "name": "ERC1967InvalidImplementation",
      "type": "error"
    },
    {
      "inputs": [],
      "name": "ERC1967NonPayable",
      "type": "error"
    },
    {
      "inputs": [],
      "name": "EnforcedPause",
      "type": "error"
    },
    {
      "inputs": [],
      "name": "ExpectedPause",
      "type": "error"
    },
    {
      "inputs": [],
      "name": "FailedCall",
      "type": "error"
    },
    {
      "inputs": [
        {
          "internalType": "uint256",
          "name": "requested",
          "type": "uint256"
        },
        {
          "internalType": "uint256",
          "name": "available",
          "type": "uint256"
        }
      ],
      "name": "InsufficientBalance",
      "type": "error"
    },
    {
      "inputs": [],
      "name": "InvalidInitialization",
      "type": "error"
    },
    {
      "inputs": [],
      "name": "NotInitializing",
      "type": "error"
    },
    {
      "inputs": [
        {
          "internalType": "address",
          "name": "owner",
          "type": "address"
        }
      ],
      "name": "OwnableInvalidOwner",
      "type": "error"
    },
    {
      "inputs": [
        {
          "internalType": "address",
          "name": "account",
          "type": "address"
        }
      ],
      "name": "OwnableUnauthorizedAccount",
      "type": "error"
    },
    {
      "inputs": [
        {
          "internalType": "address",
          "name": "token",
          "type": "address"
        }
      ],
      "name": "SafeERC20FailedOperation",
      "type": "error"
    },
    {
      "inputs": [],
      "name": "UUPSUnauthorizedCallContext",
      "type": "error"
    },
    {
      "inputs": [
        {
          "internalType": "bytes32",
          "name": "slot",
          "type": "bytes32"
        }
      ],
      "name": "UUPSUnsupportedProxiableUUID",
      "type": "error"
    },
    {
      "inputs": [
        {
          "internalType": "address",
          "name": "caller",
          "type": "address"
        }
      ],
      "name": "UnauthorizedOperator",
      "type": "error"
    },
    {
      "inputs": [],
      "name": "ZeroAddress",
      "type": "error"
    },
    {
      "inputs": [],
      "name": "ZeroAmount",
      "type": "error"
    },
    {
      "anonymous": false,
      "inputs": [
        {
          "indexed": true,
          "internalType": "address",
          "name": "user",
          "type": "address"
        },
        {
          "indexed": false,
          "internalType": "uint256",
          "name": "amount",
          "type": "uint256"
        }
      ],
      "name": "Deposited",
      "type": "event"
    },
    {
      "anonymous": false,
      "inputs": [
        {
          "indexed": true,
          "internalType": "address",
          "name": "to",
          "type": "address"
        },
        {
          "indexed": false,
          "internalType": "uint256",
          "name": "amount",
          "type": "uint256"
        }
      ],
      "name": "EmergencyWithdrawn",
      "type": "event"
    },
    {
      "anonymous": false,
      "inputs": [
        {
          "indexed": false,
          "internalType": "uint64",
          "name": "version",
          "type": "uint64"
        }
      ],
      "name": "Initialized",
      "type": "event"
    },
    {
      "anonymous": false,
      "inputs": [
        {
          "indexed": true,
          "internalType": "address",
          "name": "oldOperator",
          "type": "address"
        },
        {
          "indexed": true,
          "internalType": "address",
          "name": "newOperator",
          "type": "address"
        }
      ],
      "name": "OperatorUpdated",
      "type": "event"
    },
    {
      "anonymous": false,
      "inputs": [
        {
          "indexed": true,
          "internalType": "address",
          "name": "to",
          "type": "address"
        },
        {
          "indexed": false,
          "internalType": "uint256",
          "name": "amount",
          "type": "uint256"
        }
      ],
      "name": "OperatorWithdrawn",
      "type": "event"
    },
    {
      "anonymous": false,
      "inputs": [
        {
          "indexed": true,
          "internalType": "address",
          "name": "previousOwner",
          "type": "address"
        },
        {
          "indexed": true,
          "internalType": "address",
          "name": "newOwner",
          "type": "address"
        }
      ],
      "name": "OwnershipTransferred",
      "type": "event"
    },
    {
      "anonymous": false,
      "inputs": [
        {
          "indexed": false,
          "internalType": "address",
          "name": "account",
          "type": "address"
        }
      ],
      "name": "Paused",
      "type": "event"
    },
    {
      "anonymous": false,
      "inputs": [
        {
          "indexed": false,
          "internalType": "address",
          "name": "account",
          "type": "address"
        }
      ],
      "name": "Unpaused",
      "type": "event"
    },
    {
      "anonymous": false,
      "inputs": [
        {
          "indexed": true,
          "internalType": "address",
          "name": "implementation",
          "type": "address"
        }
      ],
      "name": "Upgraded",
      "type": "event"
    },
    {
      "anonymous": false,
      "inputs": [
        {
          "indexed": true,
          "internalType": "address",
          "name": "oldUsdc",
          "type": "address"
        },
        {
          "indexed": true,
          "internalType": "address",
          "name": "newUsdc",
          "type": "address"
        }
      ],
      "name": "UsdcAddressUpdated",
      "type": "event"
    },
    {
      "anonymous": false,
      "inputs": [
        {
          "indexed": true,
          "internalType": "address",
          "name": "user",
          "type": "address"
        },
        {
          "indexed": false,
          "internalType": "uint256",
          "name": "amount",
          "type": "uint256"
        }
      ],
      "name": "Withdrawn",
      "type": "event"
    },
    {
      "inputs": [],
      "name": "UPGRADE_INTERFACE_VERSION",
      "outputs": [
        {
          "internalType": "string",
          "name": "",
          "type": "string"
        }
      ],
      "stateMutability": "view",
      "type": "function"
    },
    {
      "inputs": [
        {
          "internalType": "address",
          "name": "user",
          "type": "address"
        }
      ],
      "name": "balanceOf",
      "outputs": [
        {
          "internalType": "uint256",
          "name": "",
          "type": "uint256"
        }
      ],
      "stateMutability": "view",
      "type": "function"
    },
    {
      "inputs": [
        {
          "internalType": "uint256",
          "name": "amount",
          "type": "uint256"
        }
      ],
      "name": "deposit",
      "outputs": [],
      "stateMutability": "nonpayable",
      "type": "function"
    },
    {
      "inputs": [
        {
          "internalType": "address",
          "name": "to",
          "type": "address"
        }
      ],
      "name": "emergencyWithdraw",
      "outputs": [],
      "stateMutability": "nonpayable",
      "type": "function"
    },
    {
      "inputs": [
        {
          "internalType": "address",
          "name": "initialOwner",
          "type": "address"
        },
        {
          "internalType": "address",
          "name": "usdcAddress",
          "type": "address"
        }
      ],
      "name": "initialize",
      "outputs": [],
      "stateMutability": "nonpayable",
      "type": "function"
    },
    {
      "inputs": [],
      "name": "operator",
      "outputs": [
        {
          "internalType": "address",
          "name": "",
          "type": "address"
        }
      ],
      "stateMutability": "view",
      "type": "function"
    },
    {
      "inputs": [
        {
          "internalType": "address",
          "name": "to",
          "type": "address"
        },
        {
          "internalType": "uint256",
          "name": "amount",
          "type": "uint256"
        }
      ],
      "name": "operatorWithdraw",
      "outputs": [],
      "stateMutability": "nonpayable",
      "type": "function"
    },
    {
      "inputs": [],
      "name": "owner",
      "outputs": [
        {
          "internalType": "address",
          "name": "",
          "type": "address"
        }
      ],
      "stateMutability": "view",
      "type": "function"
    },
    {
      "inputs": [],
      "name": "pause",
      "outputs": [],
      "stateMutability": "nonpayable",
      "type": "function"
    },
    {
      "inputs": [],
      "name": "paused",
      "outputs": [
        {
          "internalType": "bool",
          "name": "",
          "type": "bool"
        }
      ],
      "stateMutability": "view",
      "type": "function"
    },
    {
      "inputs": [],
      "name": "proxiableUUID",
      "outputs": [
        {
          "internalType": "bytes32",
          "name": "",
          "type": "bytes32"
        }
      ],
      "stateMutability": "view",
      "type": "function"
    },
    {
      "inputs": [],
      "name": "renounceOwnership",
      "outputs": [],
      "stateMutability": "nonpayable",
      "type": "function"
    },
    {
      "inputs": [
        {
          "internalType": "address",
          "name": "newOperator",
          "type": "address"
        }
      ],
      "name": "setOperator",
      "outputs": [],
      "stateMutability": "nonpayable",
      "type": "function"
    },
    {
      "inputs": [
        {
          "internalType": "address",
          "name": "newUsdc",
          "type": "address"
        }
      ],
      "name": "setUsdcAddress",
      "outputs": [],
      "stateMutability": "nonpayable",
      "type": "function"
    },
    {
      "inputs": [],
      "name": "totalDeposited",
      "outputs": [
        {
          "internalType": "uint256",
          "name": "",
          "type": "uint256"
        }
      ],
      "stateMutability": "view",
      "type": "function"
    },
    {
      "inputs": [
        {
          "internalType": "address",
          "name": "newOwner",
          "type": "address"
        }
      ],
      "name": "transferOwnership",
      "outputs": [],
      "stateMutability": "nonpayable",
      "type": "function"
    },
    {
      "inputs": [],
      "name": "unpause",
      "outputs": [],
      "stateMutability": "nonpayable",
      "type": "function"
    },
    {
      "inputs": [
        {
          "internalType": "address",
          "name": "newImplementation",
          "type": "address"
        },
        {
          "internalType": "bytes",
          "name": "data",
          "type": "bytes"
        }
      ],
      "name": "upgradeToAndCall",
      "outputs": [],
      "stateMutability": "payable",
      "type": "function"
    },
    {
      "inputs": [],
      "name": "usdc",
      "outputs": [
        {
          "internalType": "contract IERC20",
          "name": "",
          "type": "address"
        }
      ],
      "stateMutability": "view",
      "type": "function"
    },
    {
      "inputs": [
        {
          "internalType": "uint256",
          "name": "amount",
          "type": "uint256"
        }
      ],
      "name": "withdraw",
      "outputs": [],
      "stateMutability": "nonpayable",
      "type": "function"
    }
  ],
  "bytecode": "0x60a060405230608052348015610013575f5ffd5b5061001c610021565b6100d3565b7ff0c57e16840df040f15088dc2f81fe391c3923bec73e23a9662efc9c229c6a00805468010000000000000000900460ff16156100715760405163f92ee8a960e01b815260040160405180910390fd5b80546001600160401b03908116146100d05780546001600160401b0319166001600160401b0390811782556040519081527fc7f505b2f371ae2175ee4913f4499e1f2633a7b5936321eed1cdaeb6115181d29060200160405180910390a15b50565b60805161156a6100f95f395f8181610d5f01528181610d880152610ec7015261156a5ff3fe60806040526004361061011b575f3560e01c8063715018a61161009d578063b6b55f2511610062578063b6b55f251461031b578063d38bcdee1461033a578063efd6828014610359578063f2fde38b14610378578063ff50abdc14610397575f5ffd5b8063715018a6146102835780638456cb59146102975780638da5cb5b146102ab578063ad3cb1cc146102bf578063b3ab15fb146102fc575f5ffd5b806352d1902d116100e357806352d1902d146101c1578063570ca735146101e35780635c975abb146102025780636ff1c9bc1461023057806370a082311461024f575f5ffd5b80632e1a7d4d1461011f5780633e413bee146101405780633f4ba83a1461017b578063485cc9551461018f5780634f1ef286146101ae575b5f5ffd5b34801561012a575f5ffd5b5061013e6101393660046112eb565b6103ab565b005b34801561014b575f5ffd5b505f5461015e906001600160a01b031681565b6040516001600160a01b0390911681526020015b60405180910390f35b348015610186575f5ffd5b5061013e610529565b34801561019a575f5ffd5b5061013e6101a936600461131d565b61053b565b61013e6101bc366004611362565b6106a5565b3480156101cc575f5ffd5b506101d56106c4565b604051908152602001610172565b3480156101ee575f5ffd5b5060035461015e906001600160a01b031681565b34801561020d575f5ffd5b505f5160206115155f395f51905f525460ff166040519015158152602001610172565b34801561023b575f5ffd5b5061013e61024a366004611426565b6106df565b34801561025a575f5ffd5b506101d5610269366004611426565b6001600160a01b03165f9081526001602052604090205490565b34801561028e575f5ffd5b5061013e6107eb565b3480156102a2575f5ffd5b5061013e6107fc565b3480156102b6575f5ffd5b5061015e61080c565b3480156102ca575f5ffd5b506102ef604051806040016040528060058152602001640352e302e360dc1b81525081565b6040516101729190611446565b348015610307575f5ffd5b5061013e610316366004611426565b61083a565b348015610326575f5ffd5b5061013e6103353660046112eb565b61089d565b348015610345575f5ffd5b5061013e610354366004611426565b6109a3565b348015610364575f5ffd5b5061013e61037336600461147b565b610a2b565b348015610383575f5ffd5b5061013e610392366004611426565b610bd9565b3480156103a2575f5ffd5b506002546101d5565b6103b3610c16565b6003546001600160a01b031633148015906103e757506103d161080c565b6001600160a01b0316336001600160a01b031614155b1561040c5760405163740fbe6160e01b81523360048201526024015b60405180910390fd5b805f0361042c57604051631f2a200560e01b815260040160405180910390fd5b5f80546040516370a0823160e01b81523060048201526001600160a01b03909116906370a0823190602401602060405180830381865afa158015610472573d5f5f3e3d5ffd5b505050506040513d601f19601f8201168201806040525081019061049691906114a3565b9050808211156104c35760405163cf47918160e01b81526004810183905260248101829052604401610403565b8160025f8282546104d491906114ce565b90915550505f546104ef906001600160a01b03163384610c46565b60405182815233907f7084f5476618d8e60b11ef0d7d3f06914655adb8793e28ff7f018d4c76d505d5906020015b60405180910390a25050565b610531610c80565b610539610cb2565b565b5f610544610d11565b805490915060ff600160401b820416159067ffffffffffffffff165f8115801561056b5750825b90505f8267ffffffffffffffff1660011480156105875750303b155b905081158015610595575080155b156105b35760405163f92ee8a960e01b815260040160405180910390fd5b845467ffffffffffffffff1916600117855583156105dd57845460ff60401b1916600160401b1785555b6001600160a01b0387166106045760405163d92e233d60e01b815260040160405180910390fd5b6001600160a01b03861661062b5760405163d92e233d60e01b815260040160405180910390fd5b61063487610d3b565b61063c610d4c565b5f80546001600160a01b0319166001600160a01b038816179055831561069c57845460ff60401b19168555604051600181527fc7f505b2f371ae2175ee4913f4499e1f2633a7b5936321eed1cdaeb6115181d29060200160405180910390a15b50505050505050565b6106ad610d54565b6106b682610df8565b6106c08282610e00565b5050565b5f6106cd610ebc565b505f5160206114f55f395f51905f5290565b6106e7610c80565b6001600160a01b03811661070e5760405163d92e233d60e01b815260040160405180910390fd5b5f80546040516370a0823160e01b81523060048201526001600160a01b03909116906370a0823190602401602060405180830381865afa158015610754573d5f5f3e3d5ffd5b505050506040513d601f19601f8201168201806040525081019061077891906114a3565b9050805f0361079a57604051631f2a200560e01b815260040160405180910390fd5b5f546107b0906001600160a01b03168383610c46565b816001600160a01b03167f2e39961a70a10f4d46383948095ac2752b3ee642a7c76aa827410aaff08c2e518260405161051d91815260200190565b6107f3610c80565b6105395f610f05565b610804610c80565b610539610f75565b7f9016d09d72d40fdae2fd8ceac6b6234c7706214fd39c1cd1e609a0528c199300546001600160a01b031690565b610842610c80565b6003546040516001600160a01b038084169216907ffbe5b6cbafb274f445d7fed869dc77a838d8243a22c460de156560e8857cad03905f90a3600380546001600160a01b0319166001600160a01b0392909216919091179055565b6108a5610c16565b6003546001600160a01b031633148015906108d957506108c361080c565b6001600160a01b0316336001600160a01b031614155b156108f95760405163740fbe6160e01b8152336004820152602401610403565b805f0361091957604051631f2a200560e01b815260040160405180910390fd5b335f90815260016020526040812080548392906109379084906114e1565b925050819055508060025f82825461094f91906114e1565b90915550505f5461096b906001600160a01b0316333084610fbd565b60405181815233907f2da466a7b24304f47e87fa2e1e5a81b9831ce54fec19055ce277ca2f39ba42c49060200160405180910390a250565b6109ab610c80565b6001600160a01b0381166109d25760405163d92e233d60e01b815260040160405180910390fd5b5f80546040516001600160a01b03808516939216917f7dcd2c12cfcc397a33bdadd64452f757ead5ae363dcd02873aebbb68d4ee47d091a35f80546001600160a01b0319166001600160a01b0392909216919091179055565b610a33610c16565b6003546001600160a01b03163314801590610a675750610a5161080c565b6001600160a01b0316336001600160a01b031614155b15610a875760405163740fbe6160e01b8152336004820152602401610403565b6001600160a01b038216610aae5760405163d92e233d60e01b815260040160405180910390fd5b805f03610ace57604051631f2a200560e01b815260040160405180910390fd5b5f80546040516370a0823160e01b81523060048201526001600160a01b03909116906370a0823190602401602060405180830381865afa158015610b14573d5f5f3e3d5ffd5b505050506040513d601f19601f82011682018060405250810190610b3891906114a3565b905080821115610b655760405163cf47918160e01b81526004810183905260248101829052604401610403565b8160025f828254610b7691906114ce565b90915550505f54610b91906001600160a01b03168484610c46565b826001600160a01b03167f4eea589c35918e3c4d8e0371a062a1d544e41d78fb522381678923b9cd6e6dfa83604051610bcc91815260200190565b60405180910390a2505050565b610be1610c80565b6001600160a01b038116610c0a57604051631e4fbdf760e01b81525f6004820152602401610403565b610c1381610f05565b50565b5f5160206115155f395f51905f525460ff16156105395760405163d93c066560e01b815260040160405180910390fd5b610c538383836001610ff9565b610c7b57604051635274afe760e01b81526001600160a01b0384166004820152602401610403565b505050565b33610c8961080c565b6001600160a01b0316146105395760405163118cdaa760e01b8152336004820152602401610403565b610cba61105b565b5f5160206115155f395f51905f52805460ff191681557f5db9ee0a495bf2e6ff9c91a7834c1ba4fdd244a5e8aa4e537bd38aeae4b073aa335b6040516001600160a01b03909116815260200160405180910390a150565b5f807ff0c57e16840df040f15088dc2f81fe391c3923bec73e23a9662efc9c229c6a005b92915050565b610d4361108a565b610c13816110af565b61053961108a565b306001600160a01b037f0000000000000000000000000000000000000000000000000000000000000000161480610dda57507f00000000000000000000000000000000000000000000000000000000000000006001600160a01b0316610dce5f5160206114f55f395f51905f52546001600160a01b031690565b6001600160a01b031614155b156105395760405163703e46dd60e11b815260040160405180910390fd5b610c13610c80565b816001600160a01b03166352d1902d6040518163ffffffff1660e01b8152600401602060405180830381865afa925050508015610e5a575060408051601f3d908101601f19168201909252610e57918101906114a3565b60015b610e8257604051634c9c8ce360e01b81526001600160a01b0383166004820152602401610403565b5f5160206114f55f395f51905f528114610eb257604051632a87526960e21b815260048101829052602401610403565b610c7b83836110b7565b306001600160a01b037f000000000000000000000000000000000000000000000000000000000000000016146105395760405163703e46dd60e11b815260040160405180910390fd5b7f9016d09d72d40fdae2fd8ceac6b6234c7706214fd39c1cd1e609a0528c19930080546001600160a01b031981166001600160a01b03848116918217845560405192169182907f8be0079c531659141344cd1fd0a4f28419497f9722a3daafe3b4186f6b6457e0905f90a3505050565b610f7d610c16565b5f5160206115155f395f51905f52805460ff191660011781557f62e78cea01bee320cd4e420270b5ea74000d11b0c9f74754ebdbfc544b05a25833610cf3565b610fcb84848484600161110c565b610ff357604051635274afe760e01b81526001600160a01b0385166004820152602401610403565b50505050565b60405163a9059cbb60e01b5f8181526001600160a01b038616600452602485905291602083604481808b5af1925060015f5114831661104f578383151615611043573d5f823e3d81fd5b5f873b113d1516831692505b60405250949350505050565b5f5160206115155f395f51905f525460ff1661053957604051638dfc202b60e01b815260040160405180910390fd5b611092611179565b61053957604051631afcd79f60e31b815260040160405180910390fd5b610be161108a565b6110c082611192565b6040516001600160a01b038316907fbc7cd75a20ee27fd9adebab32041f755214dbc6bffa90cc0225b39da2e5c2d3b905f90a280511561110457610c7b82826111f5565b6106c0611295565b6040516323b872dd60e01b5f8181526001600160a01b038781166004528616602452604485905291602083606481808c5af1925060015f5114831661116857838315161561115c573d5f823e3d81fd5b5f883b113d1516831692505b604052505f60605295945050505050565b5f611182610d11565b54600160401b900460ff16919050565b806001600160a01b03163b5f036111c757604051634c9c8ce360e01b81526001600160a01b0382166004820152602401610403565b5f5160206114f55f395f51905f5280546001600160a01b0319166001600160a01b0392909216919091179055565b60605f61120284846112b4565b905080801561122357505f3d118061122357505f846001600160a01b03163b115b15611238576112306112c7565b915050610d35565b801561126257604051639996b31560e01b81526001600160a01b0385166004820152602401610403565b3d15611275576112706112e0565b61128e565b60405163d6bda27560e01b815260040160405180910390fd5b5092915050565b34156105395760405163b398979f60e01b815260040160405180910390fd5b5f5f5f835160208501865af49392505050565b6040513d81523d5f602083013e3d602001810160405290565b6040513d5f823e3d81fd5b5f602082840312156112fb575f5ffd5b5035919050565b80356001600160a01b0381168114611318575f5ffd5b919050565b5f5f6040838503121561132e575f5ffd5b61133783611302565b915061134560208401611302565b90509250929050565b634e487b7160e01b5f52604160045260245ffd5b5f5f60408385031215611373575f5ffd5b61137c83611302565b9150602083013567ffffffffffffffff811115611397575f5ffd5b8301601f810185136113a7575f5ffd5b803567ffffffffffffffff8111156113c1576113c161134e565b604051601f8201601f19908116603f0116810167ffffffffffffffff811182821017156113f0576113f061134e565b604052818152828201602001871015611407575f5ffd5b816020840160208301375f602083830101528093505050509250929050565b5f60208284031215611436575f5ffd5b61143f82611302565b9392505050565b602081525f82518060208401528060208501604085015e5f604082850101526040601f19601f83011684010191505092915050565b5f5f6040838503121561148c575f5ffd5b61149583611302565b946020939093013593505050565b5f602082840312156114b3575f5ffd5b5051919050565b634e487b7160e01b5f52601160045260245ffd5b81810381811115610d3557610d356114ba565b80820180821115610d3557610d356114ba56fe360894a13ba1a3210667c828492db98dca3e2076cc3735a920a3ca505d382bbccd5ed15c6e187e77e9aee88184c21f4f2182ab5827cb3b7e07fbedcd63f03300a264697066735822122075a01b38286704ae1e29921c806a5e62ace8b8d6ab57f97e59fdfb058605732e64736f6c634300081c0033",
  "linkReferences": {},
  "deployedLinkReferences": {},
  "immutableReferences": {
    "1117": [
      {
        "length": 32,
        "start": 3423
      },
      {
        "length": 32,
        "start": 3464
      },
      {
        "length": 32,
        "start": 3783
      }
    ]
  },
  "inputSourceName": "project/contracts/Treasury.sol",
  "buildInfoId": "solc-0_8_28-a23ca626017cc980ca6b7c71a40c49b04e59a5ca"
}