{
  "_format": "hh3-artifact-1",
  "contractName": "Treasury",
  "sourceName": "contracts/Treasury.sol",
  "abi": [
    {
      "inputs": [],
      "stateMutability": "nonpayable",
      "type": "constructor"
    },
    {
      "inputs": [
        {
          "internalType": "address",
          "name": "target",
          "type": "address"
        }
      ],
      "name": "AddressEmptyCode",
      "type": "error"
    },
    {
      "inputs": [
        {
          "internalType": "address",
          "name": "implementation",
          "type": "address"
        }
      ],
      "name": "ERC1967InvalidImplementation",
      "type": "error"
    },
    {
      "inputs": [],
      "name": "ERC1967NonPayable",
      "type": "error"
    },
    {
      "inputs": [],
      "name": "EnforcedPause",
      "type": "error"
    },
    {
      "inputs": [],
      "name": "ExpectedPause",
      "type": "error"
    },
    {
      "inputs": [],
      "name": "FailedCall",
      "type": "error"
    },
    {
      "inputs": [
        {
          "internalType": "uint256",
          "name": "requested",
          "type": "uint256"
        },
        {
          "internalType": "uint256",
          "name": "available",
          "type": "uint256"
        }
      ],
      "name": "InsufficientBalance",
      "type": "error"
    },
    {
      "inputs": [],
      "name": "InvalidInitialization",
      "type": "error"
    },
    {
      "inputs": [],
      "name": "NotInitializing",
      "type": "error"
    },
    {
      "inputs": [
        {
          "internalType": "address",
          "name": "owner",
          "type": "address"
        }
      ],
      "name": "OwnableInvalidOwner",
      "type": "error"
    },
    {
      "inputs": [
        {
          "internalType": "address",
          "name": "account",
          "type": "address"
        }
      ],
      "name": "OwnableUnauthorizedAccount",
      "type": "error"
    },
    {
      "inputs": [
        {
          "internalType": "address",
          "name": "token",
          "type": "address"
        }
      ],
      "name": "SafeERC20FailedOperation",
      "type": "error"
    },
    {
      "inputs": [],
      "name": "UUPSUnauthorizedCallContext",
      "type": "error"
    },
    {
      "inputs": [
        {
          "internalType": "bytes32",
          "name": "slot",
          "type": "bytes32"
        }
      ],
      "name": "UUPSUnsupportedProxiableUUID",
      "type": "error"
    },
    {
      "inputs": [
        {
          "internalType": "address",
          "name": "caller",
          "type": "address"
        }
      ],
      "name": "UnauthorizedOperator",
      "type": "error"
    },
    {
      "inputs": [],
      "name": "ZeroAddress",
      "type": "error"
    },
    {
      "inputs": [],
      "name": "ZeroAmount",
      "type": "error"
    },
    {
      "anonymous": false,
      "inputs": [
        {
          "indexed": true,
          "internalType": "address",
          "name": "user",
          "type": "address"
        },
        {
          "indexed": false,
          "internalType": "uint256",
          "name": "amount",
          "type": "uint256"
        }
      ],
      "name": "Deposited",
      "type": "event"
    },
    {
      "anonymous": false,
      "inputs": [
        {
          "indexed": true,
          "internalType": "address",
          "name": "to",
          "type": "address"
        },
        {
          "indexed": false,
          "internalType": "uint256",
          "name": "amount",
          "type": "uint256"
        }
      ],
      "name": "EmergencyWithdrawn",
      "type": "event"
    },
    {
      "anonymous": false,
      "inputs": [
        {
          "indexed": false,
          "internalType": "uint64",
          "name": "version",
          "type": "uint64"
        }
      ],
      "name": "Initialized",
      "type": "event"
    },
    {
      "anonymous": false,
      "inputs": [
        {
          "indexed": true,
          "internalType": "address",
          "name": "oldOperator",
          "type": "address"
        },
        {
          "indexed": true,
          "internalType": "address",
          "name": "newOperator",
          "type": "address"
        }
      ],
      "name": "OperatorUpdated",
      "type": "event"
    },
    {
      "anonymous": false,
      "inputs": [
        {
          "indexed": true,
          "internalType": "address",
          "name": "to",
          "type": "address"
        },
        {
          "indexed": false,
          "internalType": "uint256",
          "name": "amount",
          "type": "uint256"
        }
      ],
      "name": "OperatorWithdrawn",
      "type": "event"
    },
    {
      "anonymous": false,
      "inputs": [
        {
          "indexed": true,
          "internalType": "address",
          "name": "previousOwner",
          "type": "address"
        },
        {
          "indexed": true,
          "internalType": "address",
          "name": "newOwner",
          "type": "address"
        }
      ],
      "name": "OwnershipTransferred",
      "type": "event"
    },
    {
      "anonymous": false,
      "inputs": [
        {
          "indexed": false,
          "internalType": "address",
          "name": "account",
          "type": "address"
        }
      ],
      "name": "Paused",
      "type": "event"
    },
    {
      "anonymous": false,
      "inputs": [
        {
          "indexed": false,
          "internalType": "address",
          "name": "account",
          "type": "address"
        }
      ],
      "name": "Unpaused",
      "type": "event"
    },
    {
      "anonymous": false,
      "inputs": [
        {
          "indexed": true,
          "internalType": "address",
          "name": "implementation",
          "type": "address"
        }
      ],
      "name": "Upgraded",
      "type": "event"
    },
    {
      "anonymous": false,
      "inputs": [
        {
          "indexed": true,
          "internalType": "address",
          "name": "oldUsdc",
          "type": "address"
        },
        {
          "indexed": true,
          "internalType": "address",
          "name": "newUsdc",
          "type": "address"
        }
      ],
      "name": "UsdcAddressUpdated",
      "type": "event"
    },
    {
      "anonymous": false,
      "inputs": [
        {
          "indexed": true,
          "internalType": "address",
          "name": "user",
          "type": "address"
        },
        {
          "indexed": false,
          "internalType": "uint256",
          "name": "amount",
          "type": "uint256"
        }
      ],
      "name": "Withdrawn",
      "type": "event"
    },
    {
      "inputs": [],
      "name": "UPGRADE_INTERFACE_VERSION",
      "outputs": [
        {
          "internalType": "string",
          "name": "",
          "type": "string"
        }
      ],
      "stateMutability": "view",
      "type": "function"
    },
    {
      "inputs": [
        {
          "internalType": "address",
          "name": "user",
          "type": "address"
        }
      ],
      "name": "balanceOf",
      "outputs": [
        {
          "internalType": "uint256",
          "name": "",
          "type": "uint256"
        }
      ],
      "stateMutability": "view",
      "type": "function"
    },
    {
      "inputs": [
        {
          "internalType": "uint256",
          "name": "amount",
          "type": "uint256"
        }
      ],
      "name": "deposit",
      "outputs": [],
      "stateMutability": "nonpayable",
      "type": "function"
    },
    {
      "inputs": [
        {
          "internalType": "address",
          "name": "to",
          "type": "address"
        }
      ],
      "name": "emergencyWithdraw",
      "outputs": [],
      "stateMutability": "nonpayable",
      "type": "function"
    },
    {
      "inputs": [
        {
          "internalType": "address",
          "name": "initialOwner",
          "type": "address"
        },
        {
          "internalType": "address",
          "name": "usdcAddress",
          "type": "address"
        }
      ],
      "name": "initialize",
      "outputs": [],
      "stateMutability": "nonpayable",
      "type": "function"
    },
    {
      "inputs": [
        {
          "internalType": "uint256",
          "name": "amount",
          "type": "uint256"
        }
      ],
      "name": "injectCapital",
      "outputs": [],
      "stateMutability": "nonpayable",
      "type": "function"
    },
    {
      "inputs": [],
      "name": "operator",
      "outputs": [
        {
          "internalType": "address",
          "name": "",
          "type": "address"
        }
      ],
      "stateMutability": "view",
      "type": "function"
    },
    {
      "inputs": [
        {
          "internalType": "address",
          "name": "to",
          "type": "address"
        },
        {
          "internalType": "uint256",
          "name": "amount",
          "type": "uint256"
        }
      ],
      "name": "operatorWithdraw",
      "outputs": [],
      "stateMutability": "nonpayable",
      "type": "function"
    },
    {
      "inputs": [],
      "name": "owner",
      "outputs": [
        {
          "internalType": "address",
          "name": "",
          "type": "address"
        }
      ],
      "stateMutability": "view",
      "type": "function"
    },
    {
      "inputs": [],
      "name": "pause",
      "outputs": [],
      "stateMutability": "nonpayable",
      "type": "function"
    },
    {
      "inputs": [],
      "name": "paused",
      "outputs": [
        {
          "internalType": "bool",
          "name": "",
          "type": "bool"
        }
      ],
      "stateMutability": "view",
      "type": "function"
    },
    {
      "inputs": [],
      "name": "proxiableUUID",
      "outputs": [
        {
          "internalType": "bytes32",
          "name": "",
          "type": "bytes32"
        }
      ],
      "stateMutability": "view",
      "type": "function"
    },
    {
      "inputs": [],
      "name": "renounceOwnership",
      "outputs": [],
      "stateMutability": "nonpayable",
      "type": "function"
    },
    {
      "inputs": [],
      "name": "reserve",
      "outputs": [
        {
          "internalType": "address",
          "name": "",
          "type": "address"
        }
      ],
      "stateMutability": "view",
      "type": "function"
    },
    {
      "inputs": [
        {
          "internalType": "address",
          "name": "newOperator",
          "type": "address"
        }
      ],
      "name": "setOperator",
      "outputs": [],
      "stateMutability": "nonpayable",
      "type": "function"
    },
    {
      "inputs": [
        {
          "internalType": "address",
          "name": "newReserve",
          "type": "address"
        }
      ],
      "name": "setReserve",
      "outputs": [],
      "stateMutability": "nonpayable",
      "type": "function"
    },
    {
      "inputs": [
        {
          "internalType": "address",
          "name": "newUsdc",
          "type": "address"
        }
      ],
      "name": "setUsdcAddress",
      "outputs": [],
      "stateMutability": "nonpayable",
      "type": "function"
    },
    {
      "inputs": [],
      "name": "totalDeposited",
      "outputs": [
        {
          "internalType": "uint256",
          "name": "",
          "type": "uint256"
        }
      ],
      "stateMutability": "view",
      "type": "function"
    },
    {
      "inputs": [
        {
          "internalType": "address",
          "name": "newOwner",
          "type": "address"
        }
      ],
      "name": "transferOwnership",
      "outputs": [],
      "stateMutability": "nonpayable",
      "type": "function"
    },
    {
      "inputs": [],
      "name": "unpause",
      "outputs": [],
      "stateMutability": "nonpayable",
      "type": "function"
    },
    {
      "inputs": [
        {
          "internalType": "address",
          "name": "newImplementation",
          "type": "address"
        },
        {
          "internalType": "bytes",
          "name": "data",
          "type": "bytes"
        }
      ],
      "name": "upgradeToAndCall",
      "outputs": [],
      "stateMutability": "payable",
      "type": "function"
    },
    {
      "inputs": [],
      "name": "usdc",
      "outputs": [
        {
          "internalType": "contract IERC20",
          "name": "",
          "type": "address"
        }
      ],
      "stateMutability": "view",
      "type": "function"
    },
    {
      "inputs": [
        {
          "internalType": "uint256",
          "name": "amount",
          "type": "uint256"
        }
      ],
      "name": "withdraw",
      "outputs": [],
      "stateMutability": "nonpayable",
      "type": "function"
    }
  ],
  "bytecode": "0x60a060405230608052348015610013575f5ffd5b5061001c610021565b6100d3565b7ff0c57e16840df040f15088dc2f81fe391c3923bec73e23a9662efc9c229c6a00805468010000000000000000900460ff16156100715760405163f92ee8a960e01b815260040160405180910390fd5b80546001600160401b03908116146100d05780546001600160401b0319166001600160401b0390811782556040519081527fc7f505b2f371ae2175ee4913f4499e1f2633a7b5936321eed1cdaeb6115181d29060200160405180910390a15b50565b6080516117056100f95f395f8181610efa01528181610f23015261106201526117055ff3fe60806040526004361061013c575f3560e01c8063715018a6116100b3578063b6b55f251161006d578063b6b55f251461037a578063cd3293de14610399578063d38bcdee146103b8578063efd68280146103d7578063f2fde38b146103f6578063ff50abdc14610415575f5ffd5b8063715018a6146102c35780638456cb59146102d75780638da5cb5b146102eb5780639cecc80a146102ff578063ad3cb1cc1461031e578063b3ab15fb1461035b575f5ffd5b806352d1902d1161010457806352d1902d146101e2578063570ca735146102045780635c975abb146102235780635ecc7512146102515780636ff1c9bc1461027057806370a082311461028f575f5ffd5b80632e1a7d4d146101405780633e413bee146101615780633f4ba83a1461019c578063485cc955146101b05780634f1ef286146101cf575b5f5ffd5b34801561014b575f5ffd5b5061015f61015a366004611486565b610429565b005b34801561016c575f5ffd5b505f5461017f906001600160a01b031681565b6040516001600160a01b0390911681526020015b60405180910390f35b3480156101a7575f5ffd5b5061015f6105a7565b3480156101bb575f5ffd5b5061015f6101ca3660046114b8565b6105b9565b61015f6101dd3660046114fd565b610723565b3480156101ed575f5ffd5b506101f6610742565b604051908152602001610193565b34801561020f575f5ffd5b5060035461017f906001600160a01b031681565b34801561022e575f5ffd5b505f5160206116b05f395f51905f525460ff166040519015158152602001610193565b34801561025c575f5ffd5b5061015f61026b366004611486565b61075d565b34801561027b575f5ffd5b5061015f61028a3660046115c1565b610856565b34801561029a575f5ffd5b506101f66102a93660046115c1565b6001600160a01b03165f9081526001602052604090205490565b3480156102ce575f5ffd5b5061015f610962565b3480156102e2575f5ffd5b5061015f610973565b3480156102f6575f5ffd5b5061017f610983565b34801561030a575f5ffd5b5061015f6103193660046115c1565b6109b1565b348015610329575f5ffd5b5061034e604051806040016040528060058152602001640352e302e360dc1b81525081565b60405161019391906115e1565b348015610366575f5ffd5b5061015f6103753660046115c1565b6109db565b348015610385575f5ffd5b5061015f610394366004611486565b610a3e565b3480156103a4575f5ffd5b5060045461017f906001600160a01b031681565b3480156103c3575f5ffd5b5061015f6103d23660046115c1565b610b3e565b3480156103e2575f5ffd5b5061015f6103f1366004611616565b610bc6565b348015610401575f5ffd5b5061015f6104103660046115c1565b610d74565b348015610420575f5ffd5b506002546101f6565b610431610db1565b6003546001600160a01b03163314801590610465575061044f610983565b6001600160a01b0316336001600160a01b031614155b1561048a5760405163740fbe6160e01b81523360048201526024015b60405180910390fd5b805f036104aa57604051631f2a200560e01b815260040160405180910390fd5b5f80546040516370a0823160e01b81523060048201526001600160a01b03909116906370a0823190602401602060405180830381865afa1580156104f0573d5f5f3e3d5ffd5b505050506040513d601f19601f82011682018060405250810190610514919061163e565b9050808211156105415760405163cf47918160e01b81526004810183905260248101829052604401610481565b8160025f8282546105529190611669565b90915550505f5461056d906001600160a01b03163384610de1565b60405182815233907f7084f5476618d8e60b11ef0d7d3f06914655adb8793e28ff7f018d4c76d505d5906020015b60405180910390a25050565b6105af610e1b565b6105b7610e4d565b565b5f6105c2610eac565b805490915060ff600160401b820416159067ffffffffffffffff165f811580156105e95750825b90505f8267ffffffffffffffff1660011480156106055750303b155b905081158015610613575080155b156106315760405163f92ee8a960e01b815260040160405180910390fd5b845467ffffffffffffffff19166001178555831561065b57845460ff60401b1916600160401b1785555b6001600160a01b0387166106825760405163d92e233d60e01b815260040160405180910390fd5b6001600160a01b0386166106a95760405163d92e233d60e01b815260040160405180910390fd5b6106b287610ed6565b6106ba610ee7565b5f80546001600160a01b0319166001600160a01b038816179055831561071a57845460ff60401b19168555604051600181527fc7f505b2f371ae2175ee4913f4499e1f2633a7b5936321eed1cdaeb6115181d29060200160405180910390a15b50505050505050565b61072b610eef565b61073482610f93565b61073e8282610f9b565b5050565b5f61074b611057565b505f5160206116905f395f51905f5290565b610765610db1565b61076d610983565b6001600160a01b0316336001600160a01b03161415801561079957506003546001600160a01b03163314155b80156107b057506004546001600160a01b03163314155b156107d05760405163740fbe6160e01b8152336004820152602401610481565b805f036107f057604051631f2a200560e01b815260040160405180910390fd5b5f54610807906001600160a01b03163330846110a0565b8060025f828254610818919061167c565b909155505060405181815233907f2da466a7b24304f47e87fa2e1e5a81b9831ce54fec19055ce277ca2f39ba42c4906020015b60405180910390a250565b61085e610e1b565b6001600160a01b0381166108855760405163d92e233d60e01b815260040160405180910390fd5b5f80546040516370a0823160e01b81523060048201526001600160a01b03909116906370a0823190602401602060405180830381865afa1580156108cb573d5f5f3e3d5ffd5b505050506040513d601f19601f820116820180604052508101906108ef919061163e565b9050805f0361091157604051631f2a200560e01b815260040160405180910390fd5b5f54610927906001600160a01b03168383610de1565b816001600160a01b03167f2e39961a70a10f4d46383948095ac2752b3ee642a7c76aa827410aaff08c2e518260405161059b91815260200190565b61096a610e1b565b6105b75f6110dc565b61097b610e1b565b6105b761114c565b7f9016d09d72d40fdae2fd8ceac6b6234c7706214fd39c1cd1e609a0528c199300546001600160a01b031690565b6109b9610e1b565b600480546001600160a01b0319166001600160a01b0392909216919091179055565b6109e3610e1b565b6003546040516001600160a01b038084169216907ffbe5b6cbafb274f445d7fed869dc77a838d8243a22c460de156560e8857cad03905f90a3600380546001600160a01b0319166001600160a01b0392909216919091179055565b610a46610db1565b6003546001600160a01b03163314801590610a7a5750610a64610983565b6001600160a01b0316336001600160a01b031614155b15610a9a5760405163740fbe6160e01b8152336004820152602401610481565b805f03610aba57604051631f2a200560e01b815260040160405180910390fd5b335f9081526001602052604081208054839290610ad890849061167c565b925050819055508060025f828254610af0919061167c565b90915550505f54610b0c906001600160a01b03163330846110a0565b60405181815233907f2da466a7b24304f47e87fa2e1e5a81b9831ce54fec19055ce277ca2f39ba42c49060200161084b565b610b46610e1b565b6001600160a01b038116610b6d5760405163d92e233d60e01b815260040160405180910390fd5b5f80546040516001600160a01b03808516939216917f7dcd2c12cfcc397a33bdadd64452f757ead5ae363dcd02873aebbb68d4ee47d091a35f80546001600160a01b0319166001600160a01b0392909216919091179055565b610bce610db1565b6003546001600160a01b03163314801590610c025750610bec610983565b6001600160a01b0316336001600160a01b031614155b15610c225760405163740fbe6160e01b8152336004820152602401610481565b6001600160a01b038216610c495760405163d92e233d60e01b815260040160405180910390fd5b805f03610c6957604051631f2a200560e01b815260040160405180910390fd5b5f80546040516370a0823160e01b81523060048201526001600160a01b03909116906370a0823190602401602060405180830381865afa158015610caf573d5f5f3e3d5ffd5b505050506040513d601f19601f82011682018060405250810190610cd3919061163e565b905080821115610d005760405163cf47918160e01b81526004810183905260248101829052604401610481565b8160025f828254610d119190611669565b90915550505f54610d2c906001600160a01b03168484610de1565b826001600160a01b03167f4eea589c35918e3c4d8e0371a062a1d544e41d78fb522381678923b9cd6e6dfa83604051610d6791815260200190565b60405180910390a2505050565b610d7c610e1b565b6001600160a01b038116610da557604051631e4fbdf760e01b81525f6004820152602401610481565b610dae816110dc565b50565b5f5160206116b05f395f51905f525460ff16156105b75760405163d93c066560e01b815260040160405180910390fd5b610dee8383836001611194565b610e1657604051635274afe760e01b81526001600160a01b0384166004820152602401610481565b505050565b33610e24610983565b6001600160a01b0316146105b75760405163118cdaa760e01b8152336004820152602401610481565b610e556111f6565b5f5160206116b05f395f51905f52805460ff191681557f5db9ee0a495bf2e6ff9c91a7834c1ba4fdd244a5e8aa4e537bd38aeae4b073aa335b6040516001600160a01b03909116815260200160405180910390a150565b5f807ff0c57e16840df040f15088dc2f81fe391c3923bec73e23a9662efc9c229c6a005b92915050565b610ede611225565b610dae8161124a565b6105b7611225565b306001600160a01b037f0000000000000000000000000000000000000000000000000000000000000000161480610f7557507f00000000000000000000000000000000000000000000000000000000000000006001600160a01b0316610f695f5160206116905f395f51905f52546001600160a01b031690565b6001600160a01b031614155b156105b75760405163703e46dd60e11b815260040160405180910390fd5b610dae610e1b565b816001600160a01b03166352d1902d6040518163ffffffff1660e01b8152600401602060405180830381865afa925050508015610ff5575060408051601f3d908101601f19168201909252610ff29181019061163e565b60015b61101d57604051634c9c8ce360e01b81526001600160a01b0383166004820152602401610481565b5f5160206116905f395f51905f52811461104d57604051632a87526960e21b815260048101829052602401610481565b610e168383611252565b306001600160a01b037f000000000000000000000000000000000000000000000000000000000000000016146105b75760405163703e46dd60e11b815260040160405180910390fd5b6110ae8484848460016112a7565b6110d657604051635274afe760e01b81526001600160a01b0385166004820152602401610481565b50505050565b7f9016d09d72d40fdae2fd8ceac6b6234c7706214fd39c1cd1e609a0528c19930080546001600160a01b031981166001600160a01b03848116918217845560405192169182907f8be0079c531659141344cd1fd0a4f28419497f9722a3daafe3b4186f6b6457e0905f90a3505050565b611154610db1565b5f5160206116b05f395f51905f52805460ff191660011781557f62e78cea01bee320cd4e420270b5ea74000d11b0c9f74754ebdbfc544b05a25833610e8e565b60405163a9059cbb60e01b5f8181526001600160a01b038616600452602485905291602083604481808b5af1925060015f511483166111ea5783831516156111de573d5f823e3d81fd5b5f873b113d1516831692505b60405250949350505050565b5f5160206116b05f395f51905f525460ff166105b757604051638dfc202b60e01b815260040160405180910390fd5b61122d611314565b6105b757604051631afcd79f60e31b815260040160405180910390fd5b610d7c611225565b61125b8261132d565b6040516001600160a01b038316907fbc7cd75a20ee27fd9adebab32041f755214dbc6bffa90cc0225b39da2e5c2d3b905f90a280511561129f57610e168282611390565b61073e611430565b6040516323b872dd60e01b5f8181526001600160a01b038781166004528616602452604485905291602083606481808c5af1925060015f511483166113035783831516156112f7573d5f823e3d81fd5b5f883b113d1516831692505b604052505f60605295945050505050565b5f61131d610eac565b54600160401b900460ff16919050565b806001600160a01b03163b5f0361136257604051634c9c8ce360e01b81526001600160a01b0382166004820152602401610481565b5f5160206116905f395f51905f5280546001600160a01b0319166001600160a01b0392909216919091179055565b60605f61139d848461144f565b90508080156113be57505f3d11806113be57505f846001600160a01b03163b115b156113d3576113cb611462565b915050610ed0565b80156113fd57604051639996b31560e01b81526001600160a01b0385166004820152602401610481565b3d156114105761140b61147b565b611429565b60405163d6bda27560e01b815260040160405180910390fd5b5092915050565b34156105b75760405163b398979f60e01b815260040160405180910390fd5b5f5f5f835160208501865af49392505050565b6040513d81523d5f602083013e3d602001810160405290565b6040513d5f823e3d81fd5b5f60208284031215611496575f5ffd5b5035919050565b80356001600160a01b03811681146114b3575f5ffd5b919050565b5f5f604083850312156114c9575f5ffd5b6114d28361149d565b91506114e06020840161149d565b90509250929050565b634e487b7160e01b5f52604160045260245ffd5b5f5f6040838503121561150e575f5ffd5b6115178361149d565b9150602083013567ffffffffffffffff811115611532575f5ffd5b8301601f81018513611542575f5ffd5b803567ffffffffffffffff81111561155c5761155c6114e9565b604051601f8201601f19908116603f0116810167ffffffffffffffff8111828210171561158b5761158b6114e9565b6040528181528282016020018710156115a2575f5ffd5b816020840160208301375f602083830101528093505050509250929050565b5f602082840312156115d1575f5ffd5b6115da8261149d565b9392505050565b602081525f82518060208401528060208501604085015e5f604082850101526040601f19601f83011684010191505092915050565b5f5f60408385031215611627575f5ffd5b6116308361149d565b946020939093013593505050565b5f6020828403121561164e575f5ffd5b5051919050565b634e487b7160e01b5f52601160045260245ffd5b81810381811115610ed057610ed0611655565b80820180821115610ed057610ed061165556fe360894a13ba1a3210667c828492db98dca3e2076cc3735a920a3ca505d382bbccd5ed15c6e187e77e9aee88184c21f4f2182ab5827cb3b7e07fbedcd63f03300a2646970667358221220ec95e1e2e2b8dee229a6d87904e5a24ffeec69ee9ed21ad1a7d5d9126b3abd5664736f6c634300081c0033",
  "linkReferences": {},
  "deployedLinkReferences": {},
  "immutableReferences": {
    "1117": [
      {
        "length": 32,
        "start": 3834
      },
      {
        "length": 32,
        "start": 3875
      },
      {
        "length": 32,
        "start": 4194
      }
    ]
  },
  "inputSourceName": "project/contracts/Treasury.sol",
  "buildInfoId": "solc-0_8_28-b5b0657fa2de21ce40f328601f0429261d1b8201"
}