{
  "_format": "hh3-artifact-1",
  "contractName": "Treasury",
  "sourceName": "contracts/Treasury.sol",
  "abi": [
    {
      "inputs": [],
      "stateMutability": "nonpayable",
      "type": "constructor"
    },
    {
      "inputs": [
        {
          "internalType": "address",
          "name": "target",
          "type": "address"
        }
      ],
      "name": "AddressEmptyCode",
      "type": "error"
    },
    {
      "inputs": [
        {
          "internalType": "address",
          "name": "implementation",
          "type": "address"
        }
      ],
      "name": "ERC1967InvalidImplementation",
      "type": "error"
    },
    {
      "inputs": [],
      "name": "ERC1967NonPayable",
      "type": "error"
    },
    {
      "inputs": [],
      "name": "EnforcedPause",
      "type": "error"
    },
    {
      "inputs": [],
      "name": "ExpectedPause",
      "type": "error"
    },
    {
      "inputs": [],
      "name": "FailedCall",
      "type": "error"
    },
    {
      "inputs": [
        {
          "internalType": "uint256",
          "name": "requested",
          "type": "uint256"
        },
        {
          "internalType": "uint256",
          "name": "available",
          "type": "uint256"
        }
      ],
      "name": "InsufficientBalance",
      "type": "error"
    },
    {
      "inputs": [],
      "name": "InvalidInitialization",
      "type": "error"
    },
    {
      "inputs": [],
      "name": "NotInitializing",
      "type": "error"
    },
    {
      "inputs": [
        {
          "internalType": "address",
          "name": "owner",
          "type": "address"
        }
      ],
      "name": "OwnableInvalidOwner",
      "type": "error"
    },
    {
      "inputs": [
        {
          "internalType": "address",
          "name": "account",
          "type": "address"
        }
      ],
      "name": "OwnableUnauthorizedAccount",
      "type": "error"
    },
    {
      "inputs": [
        {
          "internalType": "address",
          "name": "token",
          "type": "address"
        }
      ],
      "name": "SafeERC20FailedOperation",
      "type": "error"
    },
    {
      "inputs": [],
      "name": "UUPSUnauthorizedCallContext",
      "type": "error"
    },
    {
      "inputs": [
        {
          "internalType": "bytes32",
          "name": "slot",
          "type": "bytes32"
        }
      ],
      "name": "UUPSUnsupportedProxiableUUID",
      "type": "error"
    },
    {
      "inputs": [
        {
          "internalType": "address",
          "name": "caller",
          "type": "address"
        }
      ],
      "name": "UnauthorizedOperator",
      "type": "error"
    },
    {
      "inputs": [],
      "name": "ZeroAddress",
      "type": "error"
    },
    {
      "inputs": [],
      "name": "ZeroAmount",
      "type": "error"
    },
    {
      "anonymous": false,
      "inputs": [
        {
          "indexed": true,
          "internalType": "address",
          "name": "user",
          "type": "address"
        },
        {
          "indexed": false,
          "internalType": "uint256",
          "name": "amount",
          "type": "uint256"
        }
      ],
      "name": "Deposited",
      "type": "event"
    },
    {
      "anonymous": false,
      "inputs": [
        {
          "indexed": true,
          "internalType": "address",
          "name": "to",
          "type": "address"
        },
        {
          "indexed": false,
          "internalType": "uint256",
          "name": "amount",
          "type": "uint256"
        }
      ],
      "name": "EmergencyWithdrawn",
      "type": "event"
    },
    {
      "anonymous": false,
      "inputs": [
        {
          "indexed": false,
          "internalType": "uint64",
          "name": "version",
          "type": "uint64"
        }
      ],
      "name": "Initialized",
      "type": "event"
    },
    {
      "anonymous": false,
      "inputs": [
        {
          "indexed": true,
          "internalType": "address",
          "name": "oldOperator",
          "type": "address"
        },
        {
          "indexed": true,
          "internalType": "address",
          "name": "newOperator",
          "type": "address"
        }
      ],
      "name": "OperatorUpdated",
      "type": "event"
    },
    {
      "anonymous": false,
      "inputs": [
        {
          "indexed": true,
          "internalType": "address",
          "name": "to",
          "type": "address"
        },
        {
          "indexed": false,
          "internalType": "uint256",
          "name": "amount",
          "type": "uint256"
        }
      ],
      "name": "OperatorWithdrawn",
      "type": "event"
    },
    {
      "anonymous": false,
      "inputs": [
        {
          "indexed": true,
          "internalType": "address",
          "name": "previousOwner",
          "type": "address"
        },
        {
          "indexed": true,
          "internalType": "address",
          "name": "newOwner",
          "type": "address"
        }
      ],
      "name": "OwnershipTransferred",
      "type": "event"
    },
    {
      "anonymous": false,
      "inputs": [
        {
          "indexed": false,
          "internalType": "address",
          "name": "account",
          "type": "address"
        }
      ],
      "name": "Paused",
      "type": "event"
    },
    {
      "anonymous": false,
      "inputs": [
        {
          "indexed": false,
          "internalType": "address",
          "name": "account",
          "type": "address"
        }
      ],
      "name": "Unpaused",
      "type": "event"
    },
    {
      "anonymous": false,
      "inputs": [
        {
          "indexed": true,
          "internalType": "address",
          "name": "implementation",
          "type": "address"
        }
      ],
      "name": "Upgraded",
      "type": "event"
    },
    {
      "anonymous": false,
      "inputs": [
        {
          "indexed": true,
          "internalType": "address",
          "name": "oldUsdc",
          "type": "address"
        },
        {
          "indexed": true,
          "internalType": "address",
          "name": "newUsdc",
          "type": "address"
        }
      ],
      "name": "UsdcAddressUpdated",
      "type": "event"
    },
    {
      "anonymous": false,
      "inputs": [
        {
          "indexed": true,
          "internalType": "address",
          "name": "user",
          "type": "address"
        },
        {
          "indexed": false,
          "internalType": "uint256",
          "name": "amount",
          "type": "uint256"
        }
      ],
      "name": "Withdrawn",
      "type": "event"
    },
    {
      "inputs": [],
      "name": "UPGRADE_INTERFACE_VERSION",
      "outputs": [
        {
          "internalType": "string",
          "name": "",
          "type": "string"
        }
      ],
      "stateMutability": "view",
      "type": "function"
    },
    {
      "inputs": [
        {
          "internalType": "address",
          "name": "user",
          "type": "address"
        }
      ],
      "name": "balanceOf",
      "outputs": [
        {
          "internalType": "uint256",
          "name": "",
          "type": "uint256"
        }
      ],
      "stateMutability": "view",
      "type": "function"
    },
    {
      "inputs": [
        {
          "internalType": "uint256",
          "name": "amount",
          "type": "uint256"
        }
      ],
      "name": "deposit",
      "outputs": [],
      "stateMutability": "nonpayable",
      "type": "function"
    },
    {
      "inputs": [
        {
          "internalType": "address",
          "name": "to",
          "type": "address"
        }
      ],
      "name": "emergencyWithdraw",
      "outputs": [],
      "stateMutability": "nonpayable",
      "type": "function"
    },
    {
      "inputs": [
        {
          "internalType": "address",
          "name": "initialOwner",
          "type": "address"
        },
        {
          "internalType": "address",
          "name": "usdcAddress",
          "type": "address"
        }
      ],
      "name": "initialize",
      "outputs": [],
      "stateMutability": "nonpayable",
      "type": "function"
    },
    {
      "inputs": [],
      "name": "operator",
      "outputs": [
        {
          "internalType": "address",
          "name": "",
          "type": "address"
        }
      ],
      "stateMutability": "view",
      "type": "function"
    },
    {
      "inputs": [
        {
          "internalType": "address",
          "name": "to",
          "type": "address"
        },
        {
          "internalType": "uint256",
          "name": "amount",
          "type": "uint256"
        }
      ],
      "name": "operatorWithdraw",
      "outputs": [],
      "stateMutability": "nonpayable",
      "type": "function"
    },
    {
      "inputs": [],
      "name": "owner",
      "outputs": [
        {
          "internalType": "address",
          "name": "",
          "type": "address"
        }
      ],
      "stateMutability": "view",
      "type": "function"
    },
    {
      "inputs": [],
      "name": "pause",
      "outputs": [],
      "stateMutability": "nonpayable",
      "type": "function"
    },
    {
      "inputs": [],
      "name": "paused",
      "outputs": [
        {
          "internalType": "bool",
          "name": "",
          "type": "bool"
        }
      ],
      "stateMutability": "view",
      "type": "function"
    },
    {
      "inputs": [],
      "name": "proxiableUUID",
      "outputs": [
        {
          "internalType": "bytes32",
          "name": "",
          "type": "bytes32"
        }
      ],
      "stateMutability": "view",
      "type": "function"
    },
    {
      "inputs": [],
      "name": "renounceOwnership",
      "outputs": [],
      "stateMutability": "nonpayable",
      "type": "function"
    },
    {
      "inputs": [
        {
          "internalType": "address",
          "name": "newOperator",
          "type": "address"
        }
      ],
      "name": "setOperator",
      "outputs": [],
      "stateMutability": "nonpayable",
      "type": "function"
    },
    {
      "inputs": [
        {
          "internalType": "address",
          "name": "newUsdc",
          "type": "address"
        }
      ],
      "name": "setUsdcAddress",
      "outputs": [],
      "stateMutability": "nonpayable",
      "type": "function"
    },
    {
      "inputs": [],
      "name": "totalDeposited",
      "outputs": [
        {
          "internalType": "uint256",
          "name": "",
          "type": "uint256"
        }
      ],
      "stateMutability": "view",
      "type": "function"
    },
    {
      "inputs": [
        {
          "internalType": "address",
          "name": "newOwner",
          "type": "address"
        }
      ],
      "name": "transferOwnership",
      "outputs": [],
      "stateMutability": "nonpayable",
      "type": "function"
    },
    {
      "inputs": [],
      "name": "unpause",
      "outputs": [],
      "stateMutability": "nonpayable",
      "type": "function"
    },
    {
      "inputs": [
        {
          "internalType": "address",
          "name": "newImplementation",
          "type": "address"
        },
        {
          "internalType": "bytes",
          "name": "data",
          "type": "bytes"
        }
      ],
      "name": "upgradeToAndCall",
      "outputs": [],
      "stateMutability": "payable",
      "type": "function"
    },
    {
      "inputs": [],
      "name": "usdc",
      "outputs": [
        {
          "internalType": "contract IERC20",
          "name": "",
          "type": "address"
        }
      ],
      "stateMutability": "view",
      "type": "function"
    },
    {
      "inputs": [
        {
          "internalType": "uint256",
          "name": "amount",
          "type": "uint256"
        }
      ],
      "name": "withdraw",
      "outputs": [],
      "stateMutability": "nonpayable",
      "type": "function"
    }
  ],
  "bytecode": "0x60a060405230608052348015610013575f5ffd5b5061001c610021565b6100d3565b7ff0c57e16840df040f15088dc2f81fe391c3923bec73e23a9662efc9c229c6a00805468010000000000000000900460ff16156100715760405163f92ee8a960e01b815260040160405180910390fd5b80546001600160401b03908116146100d05780546001600160401b0319166001600160401b0390811782556040519081527fc7f505b2f371ae2175ee4913f4499e1f2633a7b5936321eed1cdaeb6115181d29060200160405180910390a15b50565b60805161148a6100f95f395f8181610c7f01528181610ca80152610de7015261148a5ff3fe60806040526004361061011b575f3560e01c8063715018a61161009d578063b6b55f2511610062578063b6b55f251461031b578063d38bcdee1461033a578063efd6828014610359578063f2fde38b14610378578063ff50abdc14610397575f5ffd5b8063715018a6146102835780638456cb59146102975780638da5cb5b146102ab578063ad3cb1cc146102bf578063b3ab15fb146102fc575f5ffd5b806352d1902d116100e357806352d1902d146101c1578063570ca735146101e35780635c975abb146102025780636ff1c9bc1461023057806370a082311461024f575f5ffd5b80632e1a7d4d1461011f5780633e413bee146101405780633f4ba83a1461017b578063485cc9551461018f5780634f1ef286146101ae575b5f5ffd5b34801561012a575f5ffd5b5061013e61013936600461120b565b6103ab565b005b34801561014b575f5ffd5b505f5461015e906001600160a01b031681565b6040516001600160a01b0390911681526020015b60405180910390f35b348015610186575f5ffd5b5061013e61049d565b34801561019a575f5ffd5b5061013e6101a936600461123d565b6104af565b61013e6101bc366004611282565b610619565b3480156101cc575f5ffd5b506101d5610638565b604051908152602001610172565b3480156101ee575f5ffd5b5060035461015e906001600160a01b031681565b34801561020d575f5ffd5b505f5160206114355f395f51905f525460ff166040519015158152602001610172565b34801561023b575f5ffd5b5061013e61024a366004611346565b610653565b34801561025a575f5ffd5b506101d5610269366004611346565b6001600160a01b03165f9081526001602052604090205490565b34801561028e575f5ffd5b5061013e61075f565b3480156102a2575f5ffd5b5061013e610770565b3480156102b6575f5ffd5b5061015e610780565b3480156102ca575f5ffd5b506102ef604051806040016040528060058152602001640352e302e360dc1b81525081565b6040516101729190611366565b348015610307575f5ffd5b5061013e610316366004611346565b6107ae565b348015610326575f5ffd5b5061013e61033536600461120b565b610811565b348015610345575f5ffd5b5061013e610354366004611346565b6108c3565b348015610364575f5ffd5b5061013e61037336600461139b565b61094b565b348015610383575f5ffd5b5061013e610392366004611346565b610af9565b3480156103a2575f5ffd5b506002546101d5565b6103b3610b36565b805f036103d357604051631f2a200560e01b815260040160405180910390fd5b335f90815260016020526040902054808211156104125760405163cf47918160e01b815260048101839052602481018290526044015b60405180910390fd5b335f90815260016020526040812080548492906104309084906113d7565b925050819055508160025f82825461044891906113d7565b90915550505f54610463906001600160a01b03163384610b66565b60405182815233907f7084f5476618d8e60b11ef0d7d3f06914655adb8793e28ff7f018d4c76d505d5906020015b60405180910390a25050565b6104a5610ba0565b6104ad610bd2565b565b5f6104b8610c31565b805490915060ff600160401b820416159067ffffffffffffffff165f811580156104df5750825b90505f8267ffffffffffffffff1660011480156104fb5750303b155b905081158015610509575080155b156105275760405163f92ee8a960e01b815260040160405180910390fd5b845467ffffffffffffffff19166001178555831561055157845460ff60401b1916600160401b1785555b6001600160a01b0387166105785760405163d92e233d60e01b815260040160405180910390fd5b6001600160a01b03861661059f5760405163d92e233d60e01b815260040160405180910390fd5b6105a887610c5b565b6105b0610c6c565b5f80546001600160a01b0319166001600160a01b038816179055831561061057845460ff60401b19168555604051600181527fc7f505b2f371ae2175ee4913f4499e1f2633a7b5936321eed1cdaeb6115181d29060200160405180910390a15b50505050505050565b610621610c74565b61062a82610d18565b6106348282610d20565b5050565b5f610641610ddc565b505f5160206114155f395f51905f5290565b61065b610ba0565b6001600160a01b0381166106825760405163d92e233d60e01b815260040160405180910390fd5b5f80546040516370a0823160e01b81523060048201526001600160a01b03909116906370a0823190602401602060405180830381865afa1580156106c8573d5f5f3e3d5ffd5b505050506040513d601f19601f820116820180604052508101906106ec91906113ea565b9050805f0361070e57604051631f2a200560e01b815260040160405180910390fd5b5f54610724906001600160a01b03168383610b66565b816001600160a01b03167f2e39961a70a10f4d46383948095ac2752b3ee642a7c76aa827410aaff08c2e518260405161049191815260200190565b610767610ba0565b6104ad5f610e25565b610778610ba0565b6104ad610e95565b7f9016d09d72d40fdae2fd8ceac6b6234c7706214fd39c1cd1e609a0528c199300546001600160a01b031690565b6107b6610ba0565b6003546040516001600160a01b038084169216907ffbe5b6cbafb274f445d7fed869dc77a838d8243a22c460de156560e8857cad03905f90a3600380546001600160a01b0319166001600160a01b0392909216919091179055565b610819610b36565b805f0361083957604051631f2a200560e01b815260040160405180910390fd5b335f9081526001602052604081208054839290610857908490611401565b925050819055508060025f82825461086f9190611401565b90915550505f5461088b906001600160a01b0316333084610edd565b60405181815233907f2da466a7b24304f47e87fa2e1e5a81b9831ce54fec19055ce277ca2f39ba42c49060200160405180910390a250565b6108cb610ba0565b6001600160a01b0381166108f25760405163d92e233d60e01b815260040160405180910390fd5b5f80546040516001600160a01b03808516939216917f7dcd2c12cfcc397a33bdadd64452f757ead5ae363dcd02873aebbb68d4ee47d091a35f80546001600160a01b0319166001600160a01b0392909216919091179055565b610953610b36565b6003546001600160a01b031633148015906109875750610971610780565b6001600160a01b0316336001600160a01b031614155b156109a75760405163740fbe6160e01b8152336004820152602401610409565b6001600160a01b0382166109ce5760405163d92e233d60e01b815260040160405180910390fd5b805f036109ee57604051631f2a200560e01b815260040160405180910390fd5b5f80546040516370a0823160e01b81523060048201526001600160a01b03909116906370a0823190602401602060405180830381865afa158015610a34573d5f5f3e3d5ffd5b505050506040513d601f19601f82011682018060405250810190610a5891906113ea565b905080821115610a855760405163cf47918160e01b81526004810183905260248101829052604401610409565b8160025f828254610a9691906113d7565b90915550505f54610ab1906001600160a01b03168484610b66565b826001600160a01b03167f4eea589c35918e3c4d8e0371a062a1d544e41d78fb522381678923b9cd6e6dfa83604051610aec91815260200190565b60405180910390a2505050565b610b01610ba0565b6001600160a01b038116610b2a57604051631e4fbdf760e01b81525f6004820152602401610409565b610b3381610e25565b50565b5f5160206114355f395f51905f525460ff16156104ad5760405163d93c066560e01b815260040160405180910390fd5b610b738383836001610f19565b610b9b57604051635274afe760e01b81526001600160a01b0384166004820152602401610409565b505050565b33610ba9610780565b6001600160a01b0316146104ad5760405163118cdaa760e01b8152336004820152602401610409565b610bda610f7b565b5f5160206114355f395f51905f52805460ff191681557f5db9ee0a495bf2e6ff9c91a7834c1ba4fdd244a5e8aa4e537bd38aeae4b073aa335b6040516001600160a01b03909116815260200160405180910390a150565b5f807ff0c57e16840df040f15088dc2f81fe391c3923bec73e23a9662efc9c229c6a005b92915050565b610c63610faa565b610b3381610fcf565b6104ad610faa565b306001600160a01b037f0000000000000000000000000000000000000000000000000000000000000000161480610cfa57507f00000000000000000000000000000000000000000000000000000000000000006001600160a01b0316610cee5f5160206114155f395f51905f52546001600160a01b031690565b6001600160a01b031614155b156104ad5760405163703e46dd60e11b815260040160405180910390fd5b610b33610ba0565b816001600160a01b03166352d1902d6040518163ffffffff1660e01b8152600401602060405180830381865afa925050508015610d7a575060408051601f3d908101601f19168201909252610d77918101906113ea565b60015b610da257604051634c9c8ce360e01b81526001600160a01b0383166004820152602401610409565b5f5160206114155f395f51905f528114610dd257604051632a87526960e21b815260048101829052602401610409565b610b9b8383610fd7565b306001600160a01b037f000000000000000000000000000000000000000000000000000000000000000016146104ad5760405163703e46dd60e11b815260040160405180910390fd5b7f9016d09d72d40fdae2fd8ceac6b6234c7706214fd39c1cd1e609a0528c19930080546001600160a01b031981166001600160a01b03848116918217845560405192169182907f8be0079c531659141344cd1fd0a4f28419497f9722a3daafe3b4186f6b6457e0905f90a3505050565b610e9d610b36565b5f5160206114355f395f51905f52805460ff191660011781557f62e78cea01bee320cd4e420270b5ea74000d11b0c9f74754ebdbfc544b05a25833610c13565b610eeb84848484600161102c565b610f1357604051635274afe760e01b81526001600160a01b0385166004820152602401610409565b50505050565b60405163a9059cbb60e01b5f8181526001600160a01b038616600452602485905291602083604481808b5af1925060015f51148316610f6f578383151615610f63573d5f823e3d81fd5b5f873b113d1516831692505b60405250949350505050565b5f5160206114355f395f51905f525460ff166104ad57604051638dfc202b60e01b815260040160405180910390fd5b610fb2611099565b6104ad57604051631afcd79f60e31b815260040160405180910390fd5b610b01610faa565b610fe0826110b2565b6040516001600160a01b038316907fbc7cd75a20ee27fd9adebab32041f755214dbc6bffa90cc0225b39da2e5c2d3b905f90a280511561102457610b9b8282611115565b6106346111b5565b6040516323b872dd60e01b5f8181526001600160a01b038781166004528616602452604485905291602083606481808c5af1925060015f5114831661108857838315161561107c573d5f823e3d81fd5b5f883b113d1516831692505b604052505f60605295945050505050565b5f6110a2610c31565b54600160401b900460ff16919050565b806001600160a01b03163b5f036110e757604051634c9c8ce360e01b81526001600160a01b0382166004820152602401610409565b5f5160206114155f395f51905f5280546001600160a01b0319166001600160a01b0392909216919091179055565b60605f61112284846111d4565b905080801561114357505f3d118061114357505f846001600160a01b03163b115b15611158576111506111e7565b915050610c55565b801561118257604051639996b31560e01b81526001600160a01b0385166004820152602401610409565b3d1561119557611190611200565b6111ae565b60405163d6bda27560e01b815260040160405180910390fd5b5092915050565b34156104ad5760405163b398979f60e01b815260040160405180910390fd5b5f5f5f835160208501865af49392505050565b6040513d81523d5f602083013e3d602001810160405290565b6040513d5f823e3d81fd5b5f6020828403121561121b575f5ffd5b5035919050565b80356001600160a01b0381168114611238575f5ffd5b919050565b5f5f6040838503121561124e575f5ffd5b61125783611222565b915061126560208401611222565b90509250929050565b634e487b7160e01b5f52604160045260245ffd5b5f5f60408385031215611293575f5ffd5b61129c83611222565b9150602083013567ffffffffffffffff8111156112b7575f5ffd5b8301601f810185136112c7575f5ffd5b803567ffffffffffffffff8111156112e1576112e161126e565b604051601f8201601f19908116603f0116810167ffffffffffffffff811182821017156113105761131061126e565b604052818152828201602001871015611327575f5ffd5b816020840160208301375f602083830101528093505050509250929050565b5f60208284031215611356575f5ffd5b61135f82611222565b9392505050565b602081525f82518060208401528060208501604085015e5f604082850101526040601f19601f83011684010191505092915050565b5f5f604083850312156113ac575f5ffd5b6113b583611222565b946020939093013593505050565b634e487b7160e01b5f52601160045260245ffd5b81810381811115610c5557610c556113c3565b5f602082840312156113fa575f5ffd5b5051919050565b80820180821115610c5557610c556113c356fe360894a13ba1a3210667c828492db98dca3e2076cc3735a920a3ca505d382bbccd5ed15c6e187e77e9aee88184c21f4f2182ab5827cb3b7e07fbedcd63f03300a2646970667358221220e8c3a02f241a30809afdda063091acb240be4d5d3cbf8e15d992d9050bc7894564736f6c634300081c0033",
  "linkReferences": {},
  "deployedLinkReferences": {},
  "immutableReferences": {
    "1117": [
      {
        "length": 32,
        "start": 3199
      },
      {
        "length": 32,
        "start": 3240
      },
      {
        "length": 32,
        "start": 3559
      }
    ]
  },
  "inputSourceName": "project/contracts/Treasury.sol",
  "buildInfoId": "solc-0_8_28-27b391e62173439448c26346de94523731812d24"
}