{
  "_format": "hh3-artifact-1",
  "contractName": "Treasury",
  "sourceName": "contracts/Treasury.sol",
  "abi": [
    {
      "inputs": [],
      "stateMutability": "nonpayable",
      "type": "constructor"
    },
    {
      "inputs": [
        {
          "internalType": "address",
          "name": "target",
          "type": "address"
        }
      ],
      "name": "AddressEmptyCode",
      "type": "error"
    },
    {
      "inputs": [
        {
          "internalType": "address",
          "name": "implementation",
          "type": "address"
        }
      ],
      "name": "ERC1967InvalidImplementation",
      "type": "error"
    },
    {
      "inputs": [],
      "name": "ERC1967NonPayable",
      "type": "error"
    },
    {
      "inputs": [],
      "name": "EnforcedPause",
      "type": "error"
    },
    {
      "inputs": [],
      "name": "ExpectedPause",
      "type": "error"
    },
    {
      "inputs": [],
      "name": "FailedCall",
      "type": "error"
    },
    {
      "inputs": [
        {
          "internalType": "uint256",
          "name": "requested",
          "type": "uint256"
        },
        {
          "internalType": "uint256",
          "name": "available",
          "type": "uint256"
        }
      ],
      "name": "InsufficientBalance",
      "type": "error"
    },
    {
      "inputs": [],
      "name": "InvalidInitialization",
      "type": "error"
    },
    {
      "inputs": [],
      "name": "NotInitializing",
      "type": "error"
    },
    {
      "inputs": [
        {
          "internalType": "address",
          "name": "owner",
          "type": "address"
        }
      ],
      "name": "OwnableInvalidOwner",
      "type": "error"
    },
    {
      "inputs": [
        {
          "internalType": "address",
          "name": "account",
          "type": "address"
        }
      ],
      "name": "OwnableUnauthorizedAccount",
      "type": "error"
    },
    {
      "inputs": [
        {
          "internalType": "address",
          "name": "token",
          "type": "address"
        }
      ],
      "name": "SafeERC20FailedOperation",
      "type": "error"
    },
    {
      "inputs": [],
      "name": "UUPSUnauthorizedCallContext",
      "type": "error"
    },
    {
      "inputs": [
        {
          "internalType": "bytes32",
          "name": "slot",
          "type": "bytes32"
        }
      ],
      "name": "UUPSUnsupportedProxiableUUID",
      "type": "error"
    },
    {
      "inputs": [
        {
          "internalType": "address",
          "name": "caller",
          "type": "address"
        }
      ],
      "name": "UnauthorizedOperator",
      "type": "error"
    },
    {
      "inputs": [],
      "name": "ZeroAddress",
      "type": "error"
    },
    {
      "inputs": [],
      "name": "ZeroAmount",
      "type": "error"
    },
    {
      "anonymous": false,
      "inputs": [
        {
          "indexed": true,
          "internalType": "address",
          "name": "user",
          "type": "address"
        },
        {
          "indexed": false,
          "internalType": "uint256",
          "name": "amount",
          "type": "uint256"
        }
      ],
      "name": "Deposited",
      "type": "event"
    },
    {
      "anonymous": false,
      "inputs": [
        {
          "indexed": true,
          "internalType": "address",
          "name": "to",
          "type": "address"
        },
        {
          "indexed": false,
          "internalType": "uint256",
          "name": "amount",
          "type": "uint256"
        }
      ],
      "name": "EmergencyWithdrawn",
      "type": "event"
    },
    {
      "anonymous": false,
      "inputs": [
        {
          "indexed": false,
          "internalType": "uint64",
          "name": "version",
          "type": "uint64"
        }
      ],
      "name": "Initialized",
      "type": "event"
    },
    {
      "anonymous": false,
      "inputs": [
        {
          "indexed": true,
          "internalType": "address",
          "name": "oldOperator",
          "type": "address"
        },
        {
          "indexed": true,
          "internalType": "address",
          "name": "newOperator",
          "type": "address"
        }
      ],
      "name": "OperatorUpdated",
      "type": "event"
    },
    {
      "anonymous": false,
      "inputs": [
        {
          "indexed": true,
          "internalType": "address",
          "name": "to",
          "type": "address"
        },
        {
          "indexed": false,
          "internalType": "uint256",
          "name": "amount",
          "type": "uint256"
        }
      ],
      "name": "OperatorWithdrawn",
      "type": "event"
    },
    {
      "anonymous": false,
      "inputs": [
        {
          "indexed": true,
          "internalType": "address",
          "name": "previousOwner",
          "type": "address"
        },
        {
          "indexed": true,
          "internalType": "address",
          "name": "newOwner",
          "type": "address"
        }
      ],
      "name": "OwnershipTransferred",
      "type": "event"
    },
    {
      "anonymous": false,
      "inputs": [
        {
          "indexed": false,
          "internalType": "address",
          "name": "account",
          "type": "address"
        }
      ],
      "name": "Paused",
      "type": "event"
    },
    {
      "anonymous": false,
      "inputs": [
        {
          "indexed": false,
          "internalType": "address",
          "name": "account",
          "type": "address"
        }
      ],
      "name": "Unpaused",
      "type": "event"
    },
    {
      "anonymous": false,
      "inputs": [
        {
          "indexed": true,
          "internalType": "address",
          "name": "implementation",
          "type": "address"
        }
      ],
      "name": "Upgraded",
      "type": "event"
    },
    {
      "anonymous": false,
      "inputs": [
        {
          "indexed": true,
          "internalType": "address",
          "name": "oldUsdc",
          "type": "address"
        },
        {
          "indexed": true,
          "internalType": "address",
          "name": "newUsdc",
          "type": "address"
        }
      ],
      "name": "UsdcAddressUpdated",
      "type": "event"
    },
    {
      "anonymous": false,
      "inputs": [
        {
          "indexed": true,
          "internalType": "address",
          "name": "user",
          "type": "address"
        },
        {
          "indexed": false,
          "internalType": "uint256",
          "name": "amount",
          "type": "uint256"
        }
      ],
      "name": "Withdrawn",
      "type": "event"
    },
    {
      "inputs": [],
      "name": "UPGRADE_INTERFACE_VERSION",
      "outputs": [
        {
          "internalType": "string",
          "name": "",
          "type": "string"
        }
      ],
      "stateMutability": "view",
      "type": "function"
    },
    {
      "inputs": [
        {
          "internalType": "address",
          "name": "user",
          "type": "address"
        }
      ],
      "name": "balanceOf",
      "outputs": [
        {
          "internalType": "uint256",
          "name": "",
          "type": "uint256"
        }
      ],
      "stateMutability": "view",
      "type": "function"
    },
    {
      "inputs": [
        {
          "internalType": "uint256",
          "name": "amount",
          "type": "uint256"
        }
      ],
      "name": "deposit",
      "outputs": [],
      "stateMutability": "nonpayable",
      "type": "function"
    },
    {
      "inputs": [
        {
          "internalType": "address",
          "name": "to",
          "type": "address"
        }
      ],
      "name": "emergencyWithdraw",
      "outputs": [],
      "stateMutability": "nonpayable",
      "type": "function"
    },
    {
      "inputs": [
        {
          "internalType": "address",
          "name": "initialOwner",
          "type": "address"
        },
        {
          "internalType": "address",
          "name": "usdcAddress",
          "type": "address"
        }
      ],
      "name": "initialize",
      "outputs": [],
      "stateMutability": "nonpayable",
      "type": "function"
    },
    {
      "inputs": [
        {
          "internalType": "uint256",
          "name": "amount",
          "type": "uint256"
        }
      ],
      "name": "injectCapital",
      "outputs": [],
      "stateMutability": "nonpayable",
      "type": "function"
    },
    {
      "inputs": [],
      "name": "operator",
      "outputs": [
        {
          "internalType": "address",
          "name": "",
          "type": "address"
        }
      ],
      "stateMutability": "view",
      "type": "function"
    },
    {
      "inputs": [
        {
          "internalType": "address",
          "name": "to",
          "type": "address"
        },
        {
          "internalType": "uint256",
          "name": "amount",
          "type": "uint256"
        }
      ],
      "name": "operatorWithdraw",
      "outputs": [],
      "stateMutability": "nonpayable",
      "type": "function"
    },
    {
      "inputs": [],
      "name": "owner",
      "outputs": [
        {
          "internalType": "address",
          "name": "",
          "type": "address"
        }
      ],
      "stateMutability": "view",
      "type": "function"
    },
    {
      "inputs": [],
      "name": "pause",
      "outputs": [],
      "stateMutability": "nonpayable",
      "type": "function"
    },
    {
      "inputs": [],
      "name": "paused",
      "outputs": [
        {
          "internalType": "bool",
          "name": "",
          "type": "bool"
        }
      ],
      "stateMutability": "view",
      "type": "function"
    },
    {
      "inputs": [],
      "name": "proxiableUUID",
      "outputs": [
        {
          "internalType": "bytes32",
          "name": "",
          "type": "bytes32"
        }
      ],
      "stateMutability": "view",
      "type": "function"
    },
    {
      "inputs": [],
      "name": "renounceOwnership",
      "outputs": [],
      "stateMutability": "nonpayable",
      "type": "function"
    },
    {
      "inputs": [
        {
          "internalType": "address",
          "name": "newOperator",
          "type": "address"
        }
      ],
      "name": "setOperator",
      "outputs": [],
      "stateMutability": "nonpayable",
      "type": "function"
    },
    {
      "inputs": [
        {
          "internalType": "address",
          "name": "newUsdc",
          "type": "address"
        }
      ],
      "name": "setUsdcAddress",
      "outputs": [],
      "stateMutability": "nonpayable",
      "type": "function"
    },
    {
      "inputs": [],
      "name": "totalDeposited",
      "outputs": [
        {
          "internalType": "uint256",
          "name": "",
          "type": "uint256"
        }
      ],
      "stateMutability": "view",
      "type": "function"
    },
    {
      "inputs": [
        {
          "internalType": "address",
          "name": "newOwner",
          "type": "address"
        }
      ],
      "name": "transferOwnership",
      "outputs": [],
      "stateMutability": "nonpayable",
      "type": "function"
    },
    {
      "inputs": [],
      "name": "unpause",
      "outputs": [],
      "stateMutability": "nonpayable",
      "type": "function"
    },
    {
      "inputs": [
        {
          "internalType": "address",
          "name": "newImplementation",
          "type": "address"
        },
        {
          "internalType": "bytes",
          "name": "data",
          "type": "bytes"
        }
      ],
      "name": "upgradeToAndCall",
      "outputs": [],
      "stateMutability": "payable",
      "type": "function"
    },
    {
      "inputs": [],
      "name": "usdc",
      "outputs": [
        {
          "internalType": "contract IERC20",
          "name": "",
          "type": "address"
        }
      ],
      "stateMutability": "view",
      "type": "function"
    },
    {
      "inputs": [
        {
          "internalType": "uint256",
          "name": "amount",
          "type": "uint256"
        }
      ],
      "name": "withdraw",
      "outputs": [],
      "stateMutability": "nonpayable",
      "type": "function"
    }
  ],
  "bytecode": "0x60a060405230608052348015610013575f5ffd5b5061001c610021565b6100d3565b7ff0c57e16840df040f15088dc2f81fe391c3923bec73e23a9662efc9c229c6a00805468010000000000000000900460ff16156100715760405163f92ee8a960e01b815260040160405180910390fd5b80546001600160401b03908116146100d05780546001600160401b0319166001600160401b0390811782556040519081527fc7f505b2f371ae2175ee4913f4499e1f2633a7b5936321eed1cdaeb6115181d29060200160405180910390a15b50565b6080516116706100f95f395f8181610e6501528181610e8e0152610fcd01526116705ff3fe608060405260043610610126575f3560e01c806370a08231116100a8578063b3ab15fb1161006d578063b3ab15fb14610326578063b6b55f2514610345578063d38bcdee14610364578063efd6828014610383578063f2fde38b146103a2578063ff50abdc146103c1575f5ffd5b806370a0823114610279578063715018a6146102ad5780638456cb59146102c15780638da5cb5b146102d5578063ad3cb1cc146102e9575f5ffd5b806352d1902d116100ee57806352d1902d146101cc578063570ca735146101ee5780635c975abb1461020d5780635ecc75121461023b5780636ff1c9bc1461025a575f5ffd5b80632e1a7d4d1461012a5780633e413bee1461014b5780633f4ba83a14610186578063485cc9551461019a5780634f1ef286146101b9575b5f5ffd5b348015610135575f5ffd5b506101496101443660046113f1565b6103d5565b005b348015610156575f5ffd5b505f54610169906001600160a01b031681565b6040516001600160a01b0390911681526020015b60405180910390f35b348015610191575f5ffd5b50610149610553565b3480156101a5575f5ffd5b506101496101b4366004611423565b610565565b6101496101c7366004611468565b6106cf565b3480156101d7575f5ffd5b506101e06106ee565b60405190815260200161017d565b3480156101f9575f5ffd5b50600354610169906001600160a01b031681565b348015610218575f5ffd5b505f51602061161b5f395f51905f525460ff16604051901515815260200161017d565b348015610246575f5ffd5b506101496102553660046113f1565b610709565b348015610265575f5ffd5b5061014961027436600461152c565b6107eb565b348015610284575f5ffd5b506101e061029336600461152c565b6001600160a01b03165f9081526001602052604090205490565b3480156102b8575f5ffd5b506101496108f7565b3480156102cc575f5ffd5b50610149610908565b3480156102e0575f5ffd5b50610169610918565b3480156102f4575f5ffd5b50610319604051806040016040528060058152602001640352e302e360dc1b81525081565b60405161017d919061154c565b348015610331575f5ffd5b5061014961034036600461152c565b610946565b348015610350575f5ffd5b5061014961035f3660046113f1565b6109a9565b34801561036f575f5ffd5b5061014961037e36600461152c565b610aa9565b34801561038e575f5ffd5b5061014961039d366004611581565b610b31565b3480156103ad575f5ffd5b506101496103bc36600461152c565b610cdf565b3480156103cc575f5ffd5b506002546101e0565b6103dd610d1c565b6003546001600160a01b0316331480159061041157506103fb610918565b6001600160a01b0316336001600160a01b031614155b156104365760405163740fbe6160e01b81523360048201526024015b60405180910390fd5b805f0361045657604051631f2a200560e01b815260040160405180910390fd5b5f80546040516370a0823160e01b81523060048201526001600160a01b03909116906370a0823190602401602060405180830381865afa15801561049c573d5f5f3e3d5ffd5b505050506040513d601f19601f820116820180604052508101906104c091906115a9565b9050808211156104ed5760405163cf47918160e01b8152600481018390526024810182905260440161042d565b8160025f8282546104fe91906115d4565b90915550505f54610519906001600160a01b03163384610d4c565b60405182815233907f7084f5476618d8e60b11ef0d7d3f06914655adb8793e28ff7f018d4c76d505d5906020015b60405180910390a25050565b61055b610d86565b610563610db8565b565b5f61056e610e17565b805490915060ff600160401b820416159067ffffffffffffffff165f811580156105955750825b90505f8267ffffffffffffffff1660011480156105b15750303b155b9050811580156105bf575080155b156105dd5760405163f92ee8a960e01b815260040160405180910390fd5b845467ffffffffffffffff19166001178555831561060757845460ff60401b1916600160401b1785555b6001600160a01b03871661062e5760405163d92e233d60e01b815260040160405180910390fd5b6001600160a01b0386166106555760405163d92e233d60e01b815260040160405180910390fd5b61065e87610e41565b610666610e52565b5f80546001600160a01b0319166001600160a01b03881617905583156106c657845460ff60401b19168555604051600181527fc7f505b2f371ae2175ee4913f4499e1f2633a7b5936321eed1cdaeb6115181d29060200160405180910390a15b50505050505050565b6106d7610e5a565b6106e082610efe565b6106ea8282610f06565b5050565b5f6106f7610fc2565b505f5160206115fb5f395f51905f5290565b610711610d1c565b610719610918565b6001600160a01b0316336001600160a01b03161415801561074557506003546001600160a01b03163314155b156107655760405163740fbe6160e01b815233600482015260240161042d565b805f0361078557604051631f2a200560e01b815260040160405180910390fd5b5f5461079c906001600160a01b031633308461100b565b8060025f8282546107ad91906115e7565b909155505060405181815233907f2da466a7b24304f47e87fa2e1e5a81b9831ce54fec19055ce277ca2f39ba42c4906020015b60405180910390a250565b6107f3610d86565b6001600160a01b03811661081a5760405163d92e233d60e01b815260040160405180910390fd5b5f80546040516370a0823160e01b81523060048201526001600160a01b03909116906370a0823190602401602060405180830381865afa158015610860573d5f5f3e3d5ffd5b505050506040513d601f19601f8201168201806040525081019061088491906115a9565b9050805f036108a657604051631f2a200560e01b815260040160405180910390fd5b5f546108bc906001600160a01b03168383610d4c565b816001600160a01b03167f2e39961a70a10f4d46383948095ac2752b3ee642a7c76aa827410aaff08c2e518260405161054791815260200190565b6108ff610d86565b6105635f611047565b610910610d86565b6105636110b7565b7f9016d09d72d40fdae2fd8ceac6b6234c7706214fd39c1cd1e609a0528c199300546001600160a01b031690565b61094e610d86565b6003546040516001600160a01b038084169216907ffbe5b6cbafb274f445d7fed869dc77a838d8243a22c460de156560e8857cad03905f90a3600380546001600160a01b0319166001600160a01b0392909216919091179055565b6109b1610d1c565b6003546001600160a01b031633148015906109e557506109cf610918565b6001600160a01b0316336001600160a01b031614155b15610a055760405163740fbe6160e01b815233600482015260240161042d565b805f03610a2557604051631f2a200560e01b815260040160405180910390fd5b335f9081526001602052604081208054839290610a439084906115e7565b925050819055508060025f828254610a5b91906115e7565b90915550505f54610a77906001600160a01b031633308461100b565b60405181815233907f2da466a7b24304f47e87fa2e1e5a81b9831ce54fec19055ce277ca2f39ba42c4906020016107e0565b610ab1610d86565b6001600160a01b038116610ad85760405163d92e233d60e01b815260040160405180910390fd5b5f80546040516001600160a01b03808516939216917f7dcd2c12cfcc397a33bdadd64452f757ead5ae363dcd02873aebbb68d4ee47d091a35f80546001600160a01b0319166001600160a01b0392909216919091179055565b610b39610d1c565b6003546001600160a01b03163314801590610b6d5750610b57610918565b6001600160a01b0316336001600160a01b031614155b15610b8d5760405163740fbe6160e01b815233600482015260240161042d565b6001600160a01b038216610bb45760405163d92e233d60e01b815260040160405180910390fd5b805f03610bd457604051631f2a200560e01b815260040160405180910390fd5b5f80546040516370a0823160e01b81523060048201526001600160a01b03909116906370a0823190602401602060405180830381865afa158015610c1a573d5f5f3e3d5ffd5b505050506040513d601f19601f82011682018060405250810190610c3e91906115a9565b905080821115610c6b5760405163cf47918160e01b8152600481018390526024810182905260440161042d565b8160025f828254610c7c91906115d4565b90915550505f54610c97906001600160a01b03168484610d4c565b826001600160a01b03167f4eea589c35918e3c4d8e0371a062a1d544e41d78fb522381678923b9cd6e6dfa83604051610cd291815260200190565b60405180910390a2505050565b610ce7610d86565b6001600160a01b038116610d1057604051631e4fbdf760e01b81525f600482015260240161042d565b610d1981611047565b50565b5f51602061161b5f395f51905f525460ff16156105635760405163d93c066560e01b815260040160405180910390fd5b610d5983838360016110ff565b610d8157604051635274afe760e01b81526001600160a01b038416600482015260240161042d565b505050565b33610d8f610918565b6001600160a01b0316146105635760405163118cdaa760e01b815233600482015260240161042d565b610dc0611161565b5f51602061161b5f395f51905f52805460ff191681557f5db9ee0a495bf2e6ff9c91a7834c1ba4fdd244a5e8aa4e537bd38aeae4b073aa335b6040516001600160a01b03909116815260200160405180910390a150565b5f807ff0c57e16840df040f15088dc2f81fe391c3923bec73e23a9662efc9c229c6a005b92915050565b610e49611190565b610d19816111b5565b610563611190565b306001600160a01b037f0000000000000000000000000000000000000000000000000000000000000000161480610ee057507f00000000000000000000000000000000000000000000000000000000000000006001600160a01b0316610ed45f5160206115fb5f395f51905f52546001600160a01b031690565b6001600160a01b031614155b156105635760405163703e46dd60e11b815260040160405180910390fd5b610d19610d86565b816001600160a01b03166352d1902d6040518163ffffffff1660e01b8152600401602060405180830381865afa925050508015610f60575060408051601f3d908101601f19168201909252610f5d918101906115a9565b60015b610f8857604051634c9c8ce360e01b81526001600160a01b038316600482015260240161042d565b5f5160206115fb5f395f51905f528114610fb857604051632a87526960e21b81526004810182905260240161042d565b610d8183836111bd565b306001600160a01b037f000000000000000000000000000000000000000000000000000000000000000016146105635760405163703e46dd60e11b815260040160405180910390fd5b611019848484846001611212565b61104157604051635274afe760e01b81526001600160a01b038516600482015260240161042d565b50505050565b7f9016d09d72d40fdae2fd8ceac6b6234c7706214fd39c1cd1e609a0528c19930080546001600160a01b031981166001600160a01b03848116918217845560405192169182907f8be0079c531659141344cd1fd0a4f28419497f9722a3daafe3b4186f6b6457e0905f90a3505050565b6110bf610d1c565b5f51602061161b5f395f51905f52805460ff191660011781557f62e78cea01bee320cd4e420270b5ea74000d11b0c9f74754ebdbfc544b05a25833610df9565b60405163a9059cbb60e01b5f8181526001600160a01b038616600452602485905291602083604481808b5af1925060015f51148316611155578383151615611149573d5f823e3d81fd5b5f873b113d1516831692505b60405250949350505050565b5f51602061161b5f395f51905f525460ff1661056357604051638dfc202b60e01b815260040160405180910390fd5b61119861127f565b61056357604051631afcd79f60e31b815260040160405180910390fd5b610ce7611190565b6111c682611298565b6040516001600160a01b038316907fbc7cd75a20ee27fd9adebab32041f755214dbc6bffa90cc0225b39da2e5c2d3b905f90a280511561120a57610d8182826112fb565b6106ea61139b565b6040516323b872dd60e01b5f8181526001600160a01b038781166004528616602452604485905291602083606481808c5af1925060015f5114831661126e578383151615611262573d5f823e3d81fd5b5f883b113d1516831692505b604052505f60605295945050505050565b5f611288610e17565b54600160401b900460ff16919050565b806001600160a01b03163b5f036112cd57604051634c9c8ce360e01b81526001600160a01b038216600482015260240161042d565b5f5160206115fb5f395f51905f5280546001600160a01b0319166001600160a01b0392909216919091179055565b60605f61130884846113ba565b905080801561132957505f3d118061132957505f846001600160a01b03163b115b1561133e576113366113cd565b915050610e3b565b801561136857604051639996b31560e01b81526001600160a01b038516600482015260240161042d565b3d1561137b576113766113e6565b611394565b60405163d6bda27560e01b815260040160405180910390fd5b5092915050565b34156105635760405163b398979f60e01b815260040160405180910390fd5b5f5f5f835160208501865af49392505050565b6040513d81523d5f602083013e3d602001810160405290565b6040513d5f823e3d81fd5b5f60208284031215611401575f5ffd5b5035919050565b80356001600160a01b038116811461141e575f5ffd5b919050565b5f5f60408385031215611434575f5ffd5b61143d83611408565b915061144b60208401611408565b90509250929050565b634e487b7160e01b5f52604160045260245ffd5b5f5f60408385031215611479575f5ffd5b61148283611408565b9150602083013567ffffffffffffffff81111561149d575f5ffd5b8301601f810185136114ad575f5ffd5b803567ffffffffffffffff8111156114c7576114c7611454565b604051601f8201601f19908116603f0116810167ffffffffffffffff811182821017156114f6576114f6611454565b60405281815282820160200187101561150d575f5ffd5b816020840160208301375f602083830101528093505050509250929050565b5f6020828403121561153c575f5ffd5b61154582611408565b9392505050565b602081525f82518060208401528060208501604085015e5f604082850101526040601f19601f83011684010191505092915050565b5f5f60408385031215611592575f5ffd5b61159b83611408565b946020939093013593505050565b5f602082840312156115b9575f5ffd5b5051919050565b634e487b7160e01b5f52601160045260245ffd5b81810381811115610e3b57610e3b6115c0565b80820180821115610e3b57610e3b6115c056fe360894a13ba1a3210667c828492db98dca3e2076cc3735a920a3ca505d382bbccd5ed15c6e187e77e9aee88184c21f4f2182ab5827cb3b7e07fbedcd63f03300a2646970667358221220840596d586b626bd599b450400ba0af43bebce0cdb3cb29d093156593182859064736f6c634300081c0033",
  "linkReferences": {},
  "deployedLinkReferences": {},
  "immutableReferences": {
    "1117": [
      {
        "length": 32,
        "start": 3685
      },
      {
        "length": 32,
        "start": 3726
      },
      {
        "length": 32,
        "start": 4045
      }
    ]
  },
  "inputSourceName": "project/contracts/Treasury.sol",
  "buildInfoId": "solc-0_8_28-d281d8b4fc8acbe55e79b7c8b9c601530e6fe9e8"
}